:100000000C94F8100C9420110C9420110C942011D5
:100010000C9420110C9420110C9420110C9420119C
:100020000C9420110C9420110C94BF280C943829A6
:100030000C9420110C9420110C9420110C9420117C
:100040000C9420110C9420110C9420110C9420116C
:100050000C9420110C9420110C9420110C941E2847
:100060000C9420110C9420110C9420110C9420114C
:100070000C9420110C9420110C9420110C9420113C
:100080000C9420110C9420110C9420110C9420112C
:100090000C9420110C9420110C9420110C9420111C
:1000A0000C9420110C9420110C94201174177717C4
:1000B0007A177D1780178317861789178C178F1764
:1000C0009217951798179B179E17A117A417A71794
:1000D000D817E617FE170D1825183A1851186E187C
:1000E00083189718AB18BF18D318E1186226442656
:1000F0008426842684266A26742684267C268426E2
:10010000502658260000000000000000EE82EE009D
:10011000EE82EE0000000000000000000000000081
:1001200000000000EE82EE00000000000000000071
:100130000000000000000000EE82EE00EE82EE0003
:100140000000000000000000EE82EE000000000051
:10015000EE82EE00EE82EE00EE82EE000000000085
:10016000EE82EE00EE82EE00EE82EE000000000075
:10017000EE82EE00EE82EE000000000000000000C3
:10018000000000000000000000000000000000006F
:100190000000000000000000D3009400D300940091
:1001A000000000000000000000000000000000004F
:1001B000D3009400000000000000000000000000D8
:1001C00000000000D3009400D30094000000000061
:1001D00000000000D300940000000000D300940051
:1001E000D3009400D300940000000000D3009400DA
:1001F000D3009400D300940000000000D3009400CA
:10020000D300940000000000000000000000000087
:1002100000000000000000000000000000000000DE
:1002200000000000800080008000800000000000CE
:1002300000000000000000000000000080008000BE
:1002400000000000000000000000000000000000AE
:10025000800080008000800000000000000000009E
:10026000800080000000000080008000800080008E
:10027000800080000000000080008000800080007E
:10028000800080000000000080008000800080006E
:10029000000000000000000000000000000000005E
:1002A000000000000000000000000000000000004E
:1002B000000000000000000000000000000000003E
:1002C000000000000000000000000000000000002E
:1002D000000000000000000000000000000000001E
:1002E000000000000000000000000000000000000E
:1002F00000000000000000000000000000000000FE
:1003000000000000000000000000000000000000ED
:1003100000000000000000000000000000000000DD
:1003200000000000000000000000000000000000CD
:1003300000000000000000000000000000000000BD
:1003400000000000000000000000000000000000AD
:1003500000000000468FF6000000000000000000D2
:10036000000000000000000000000000000000008D
:10037000000000000000000000000000000000007D
:10038000000000000000000000000000000000006D
:10039000000000000000000000000000000000005D
:1003A000000000000000000000000000000000004D
:1003B000000000000000000000000000000000003D
:1003C000000000000000000000000000000000002D
:1003D000000000000000000000000000000000001D
:1003E000000000000000000000000000000000000D
:1003F00000000000000000000000000000000000FD
:1004000000000000000000000000000000000000EC
:100410000000000000000000468FF6000000000011
:1004200000000000000000000000000000000000CC
:1004300000000000000000000000000000000000BC
:1004400000000000000000000000000000000000AC
:10045000000000000000000000000000000000009C
:10046000000000000000000000000000000000008C
:10047000000000000000000000000000000000007C
:10048000000000000000000000000000000000006C
:10049000000000000000000000000000000000005C
:1004A000000000000000000000000000000000004C
:1004B000000000000000000000000000000000003C
:1004C0000000000000000000468FF6000000000061
:1004D000000000000000000000000000000000001C
:1004E000000000000000000000000000000000000C
:1004F00000000000000000000000000000000000FC
:1005000000000000000000000000000000000000EB
:1005100000000000000000000000000000000000DB
:1005200000000000000000000000000000000000CB
:1005300000000000000000000000000000000000BB
:1005400000000000000000000000000000000000AB
:10055000000000000000000000000000000000009B
:10056000468FF600000000000000000000000000C0
:10057000000000000000000000000000000000007B
:10058000000000000000000000000000000000006B
:10059000000000000000000000000000000000005B
:1005A000000000000000000000000000000000004B
:1005B000000000000000000000000000000000003B
:1005C000000000000000000000000000000000002B
:1005D00000000000468FF600000000000000000050
:1005E000000000000000000000000000000000000B
:1005F00000000000000000000000000000000000FB
:1006000000000000000000000000000000000000EA
:1006100000000000000000000000000000000000DA
:1006200000000000000000000000000000000000CA
:10063000468FF600000000000000000000000000EF
:1006400000000000000000000000000000000000AA
:10065000000000000000000000000000000000009A
:10066000000000000000000000000000000000008A
:10067000000000000000000000000000468FF600AF
:10068000000000000000000000000000000000006A
:10069000000000000000000000000000000000005A
:1006A000000000000000000000000000000000004A
:1006B000000000000000000000000000000000003A
:1006C000468FF6000000000000000000000000005F
:1006D000000000000000000000000000000000001A
:1006E0000000000000000000468FF600468FF60074
:1006F00000000000000000000000000000000000FA
:1007000000000000000000000000000000000000E9
:10071000468FF6000000000000000000000000000E
:1007200000000000000000000000000000000000C9
:1007300000000000000000000000000000000000B9
:10074000468FF600000000000000000000000000DE
:100750000000000000000000000000000000000099
:100760000000000000000000000000000000000089
:10077000000000000000000000000000468FF600AE
:10078000000000000000000000000000468FF6009E
:100790000000000000000000000000000000000059
:1007A000468FF6000000000000000000000000007E
:1007B0000000000000000000000000000000000039
:1007C0000000000000000000468FF600000000005E
:1007D0000000000000000000000000000000000019
:1007E0000000000000000000000000000000000009
:1007F00000000000000000000000000000000000F9
:10080000000000000000000000000000468FF6001D
:1008100000000000468FF60000000000000000000D
:1008200000000000000000000000000000000000C8
:10083000468FF600000000000000000000000000ED
:1008400000000000000000000000000000000000A8
:10085000468FF600000000000000000000000000CD
:100860000000000000000000000000000000000088
:1008700000000000468FF60000000000468FF600E2
:100880000000000000000000000000000000000068
:100890000000000000000000000000000000000058
:1008A0000000000000000000000000000000000048
:1008B0000000000000000000000000000000000038
:1008C000468FF60000000000468FF6000000000092
:1008D000468FF60000000000468FF6000000000082
:1008E0000000000000000000000000000000000008
:1008F00000000000000000000000000000000000F8
:1009000000000000000000000000000000000000E7
:1009100000000000000000000000000000000000D7
:1009200000000000000000000000000000000000C7
:1009300000000000000000000000000000000000B7
:1009400000000000000000000000000000000000A7
:100950000000000000000000000000000000000097
:100960000000000000000000000000000000000087
:100970000000000000000000000000000000000077
:100980000000000000000000000000000000000067
:100990000000000000000000000000000000000057
:1009A0000000000000000000000000000000000047
:1009B0000000000000000000000000000000000037
:1009C0000000000000FFFF00000000000000000029
:1009D0000000000000000000000000000000000017
:1009E0000000000000000000000000000000000007
:1009F00000000000000000000000000000000000F7
:100A000000000000000000000000000000000000E6
:100A100000000000000000000000000000000000D6
:100A200000000000000000000000000000000000C6
:100A300000000000000000000000000000000000B6
:100A400000000000000000000000000000000000A6
:100A500000FFFF0000FFFF0000000000000000009A
:100A60000000000000000000000000000000000086
:100A70000000000000000000000000000000000076
:100A80000000000000000000000000000000000066
:100A90000000000000000000000000000000000056
:100AA0000000000000000000000000000000000046
:100AB0000000000000000000000000000000000036
:100AC0000000000000000000000000000000000026
:100AD00000000000000000000000000000FFFF0018
:100AE00000FFFF0000FFFF0000000000000000000A
:100AF00000000000000000000000000000000000F6
:100B000000000000000000000000000000000000E5
:100B100000000000000000000000000000000000D5
:100B200000000000000000000000000000000000C5
:100B300000000000000000000000000000000000B5
:100B400000000000000000000000000000000000A5
:100B50000000000000000000000000000000000095
:100B6000000000000000000000FFFF0000FFFF0089
:100B700000FFFF0000FFFF00000000000000000079
:100B80000000000000000000000000000000000065
:100B90000000000000000000000000000000000055
:100BA0000000000000000000000000000000000045
:100BB0000000000000000000000000000000000035
:100BC0000000000000000000000000000000000025
:100BD0000000000000000000000000000000000015
:100BE0000000000000000000000000000000000005
:100BF0000000000000FFFF0000FFFF0000FFFF00FB
:100C000000FFFF0000FFFF000000000000000000E8
:100C100000000000000000000000000000000000D4
:100C200000000000000000000000000000000000C4
:100C300000000000000000000000000000000000B4
:100C400000000000000000000000000000000000A4
:100C50000000000000000000000000000000000094
:100C60000000000000000000000000000000000084
:100C70000000000000000000000000000000000074
:100C80000000000000FFFF0000FFFF0000FFFF006A
:100C900000FFFF0000FFFF00000000000000000058
:100CA0000000000000000000000000000000000044
:100CB0000000000000000000000000000000000034
:100CC0000000000000000000000000000000000024
:100CD0000000000000000000000000000000000014
:100CE0000000000000000000000000000000000004
:100CF00000000000000000000000000000000000F4
:100D000000000000000000000000000000000000E3
:100D10000000000000FFFF0000FFFF0000FFFF00D9
:100D200000FFFF0000FFFF000000000000000000C7
:100D300000000000000000000000000000000000B3
:100D400000000000000000000000000000000000A3
:100D50000000000000000000000000000000000093
:100D60000000000000000000000000000000000083
:100D70000000000000000000000000000000000073
:100D80000000000000000000000000000000000063
:100D90000000000000000000000000000000000053
:100DA0000000000000FFFF0000FFFF0000FFFF0049
:100DB00000FFFF0000FFFF00000000000000000037
:100DC0000000000000000000000000000000000023
:100DD0000000000000000000000000000000000013
:100DE0000000000000000000000000000000000003
:100DF00000000000000000000000000000000000F3
:100E000000000000000000000000000000000000E2
:100E100000000000000000000000000000000000D2
:100E200000000000000000000000000000000000C2
:100E30000000000000FFFF0000FFFF0000FFFF00B8
:100E400000FFFF0000FFFF000000000000000000A6
:100E50000000000000000000000000000000000092
:100E60000000000000000000000000000000000082
:100E70000000000000000000000000000000000072
:100E80000000000000000000000000000000000062
:100E90000000000000000000000000000000000052
:100EA0000000000000000000000000000000000042
:100EB0000000000000000000000000000000000032
:100EC0000000000000FFFF0000FFFF0000FFFF0028
:100ED00000FFFF0000FFFF00000000000000000016
:100EE0000000000000000000000000000000000002
:100EF00000000000000000000000000000000000F2
:100F000000000000000000000000000000000000E1
:100F100000000000000000000000000000000000D1
:100F200000000000000000000000000000000000C1
:100F300000000000000000000000000000000000B1
:100F400000000000000000000000000000000000A1
:100F50000000000000FFFF0000FFFF0000FFFF0097
:100F600000FFFF0000FFFF00000000000000000085
:100F70000000000000000000000000000000000071
:100F80000000000000000000000000000000000061
:100F90000000000000000000000000000000000051
:100FA0000000000000000000000000000000000041
:100FB0000000000000000000000000000000000031
:100FC0000000000000000000000000000000000021
:100FD0000000000000000000000000000000000011
:100FE0000000000000FFFF0000FFFF0000FFFF0007
:100FF00000FFFF0000FFFF000000000000000000F5
:1010000000000000000000000000000000000000E0
:1010100000000000000000000000000000000000D0
:1010200000000000000000000000000000000000C0
:1010300000000000000000000000000000000000B0
:1010400000000000000000000000000000000000A0
:101050000000000000000000000000000000000090
:101060000000000000000000000000000000000080
:101070000000000000FFFF0000FFFF0000FFFF0076
:1010800000FFFF0000FFFF00000000000000000064
:101090000000000000000000000000000000000050
:1010A0000000000000000000000000000000000040
:1010B0000000000000000000000000000000000030
:1010C0000000000000000000000000000000000020
:1010D0000000000000000000000000000000000010
:1010E0000000000000000000000000000000000000
:1010F00000000000000000000000000000000000F0
:101100000000000000FFFF0000FFFF0000FFFF00E5
:1011100000FFFF0000FFFF000000000000000000D3
:1011200000000000000000000000000000000000BF
:1011300000000000000000000000000000000000AF
:10114000000000000000000000000000000000009F
:10115000000000000000000000000000000000008F
:10116000000000000000000000000000000000007F
:10117000000000000000000000000000000000006F
:10118000000000000000000000000000000000005F
:101190000000000000FFFF0000FFFF0000FFFF0055
:1011A00000FFFF0000FFFF00000000000000000043
:1011B000000000000000000000000000000000002F
:1011C000000000000000000000000000000000001F
:1011D000000000000000000000000000000000000F
:1011E00000000000000000000000000000000000FF
:1011F00000000000000000000000000000000000EF
:1012000000000000000000000000000000000000DE
:1012100000000000000000000000000000000000CE
:101220000000000000FFFF0000FFFF0000FFFF00C4
:1012300000FFFF0000FFFF000000000000000000B2
:10124000000000000000000000000000000000009E
:10125000000000000000000000000000000000008E
:10126000000000000000000000000000000000007E
:10127000000000000000000000000000000000006E
:10128000000000000000000000000000000000005E
:10129000000000000000000000000000000000004E
:1012A000000000000000000000000000000000003E
:1012B0000000000000FFFF0000FFFF0000FFFF0034
:1012C00000FFFF0000FFFF00000000000000000022
:1012D000000000000000000000000000000000000E
:1012E00000000000000000000000000000000000FE
:1012F00000000000000000000000000000000000EE
:1013000000000000000000000000000000000000DD
:1013100000000000000000000000000000000000CD
:1013200000000000000000000000000000000000BD
:1013300000000000000000000000000000000000AD
:101340000000000000FFFF0000FFFF0000FFFF00A3
:1013500000FFFF0000FFFF00000000000000000091
:10136000000000000000000000000000000000007D
:10137000000000000000000000000000000000006D
:10138000000000000000000000000000000000005D
:10139000000000000000000000000000000000004D
:1013A000000000000000000000000000000000003D
:1013B000000000000000000000000000000000002D
:1013C000000000000000000000000000000000001D
:1013D0000000000000FFFF0000FFFF0000FFFF0013
:1013E00000FFFF0000FFFF00000000000000000001
:1013F00000000000000000000000000000000000ED
:1014000000000000000000000000000000000000DC
:1014100000000000000000000000000000000000CC
:1014200000000000000000000000000000000000BC
:1014300000000000000000000000000000000000AC
:10144000000000000000000000000000000000009C
:10145000000000000000000000000000000000008C
:101460000000000000FFFF0000FFFF0000FFFF0082
:1014700000FFFF0000FFFF00000000000000000070
:10148000000000000000000000000000000000005C
:10149000000000000000000000000000000000004C
:1014A000000000000000000000000000000000003C
:1014B000000000000000000000000000000000002C
:1014C000000000000000000000000000000000001C
:1014D000000000000000000000000000000000000C
:1014E00000000000000000000000000000000000FC
:1014F0000000000000FFFF0000FFFF0000FFFF00F2
:1015000000FFFF0000FFFF000000000000000000DF
:1015100000000000000000000000000000000000CB
:1015200000000000000000000000000000000000BB
:1015300000000000000000000000000000000000AB
:10154000000000000000000000000000000000009B
:10155000000000000000000000000000000000008B
:10156000000000000000000000000000000000007B
:10157000000000000000000000000000000000006B
:101580000000000000FFFF0000FFFF0000FFFF0061
:1015900000FFFF0000FFFF0000000000000000004F
:1015A000000000000000000000000000000000003B
:1015B000000000000000000000000000000000002B
:1015C000000000000000000000000000000000001B
:1015D000000000000000000000000000000000000B
:1015E00000000000000000000000000000000000FB
:1015F00000000000000000000000000000000000EB
:1016000000000000000000000000000000000000DA
:101610000000000000FFFF0000FFFF0000FFFF00D0
:1016200000FFFF0000FFFF000000000000000000BE
:1016300000000000000000000000000000000000AA
:10164000000000000000000000000000000000009A
:10165000000000000000000000000000000000008A
:10166000000000000000000000000000000000007A
:10167000000000000000000000000000000000006A
:10168000000000000000000000000000000000005A
:10169000000000000000000000000000000000004A
:1016A0000000000000FFFF0000FFFF0000FFFF0040
:1016B00000FFFF0000FFFF0000000000000000002E
:1016C000000000000000000000000000000000001A
:1016D000000000000000000000000000000000000A
:1016E00000000000000000000000000000000000FA
:1016F00000000000000000000000000000000000EA
:1017000000000000000000000000000000000000D9
:1017100000000000000000000000000000000000C9
:1017200000000000000000000000000000000000B9
:101730000000000000FFFF0000FFFF0000FFFF00AF
:1017400000FFFF0000FFFF0000000000000000009D
:101750000000000000000000000000000000000089
:101760000000000000000000000000000000000079
:101770000000000000000000000000000000000069
:101780000000000000000000000000000000000059
:101790000000000000000000000000000000000049
:1017A0000000000000000000000000000000000039
:1017B0000000000000000000000000000000000029
:1017C0000000000000FFFF0000FFFF0000FFFF001F
:1017D00000FFFF0000FFFF0000000000000000000D
:1017E00000000000000000000000000000000000F9
:1017F00000000000000000000000000000000000E9
:1018000000000000000000000000000000000000D8
:1018100000000000000000000000000000000000C8
:1018200000000000000000000000000000000000B8
:1018300000000000000000000000000000000000A8
:101840000000000000000000000000000000000098
:101850000000000000FFFF0000FFFF0000FFFF008E
:1018600000FFFF0000FFFF0000000000000000007C
:101870000000000000000000000000000000000068
:101880000000000000000000000000000000000058
:101890000000000000000000000000000000000048
:1018A0000000000000000000000000000000000038
:1018B0000000000000000000000000000000000028
:1018C0000000000000000000000000000000000018
:1018D0000000000000000000000000000000000008
:1018E0000000000000FFFF0000FFFF0000FFFF00FE
:1018F00000FFFF0000FFFF000000000000000000EC
:1019000000000000000000000000000000000000D7
:1019100000000000000000000000000000000000C7
:1019200000000000000000000000000000000000B7
:1019300000000000000000000000000000000000A7
:101940000000000000000000000000000000000097
:101950000000000000000000000000000000000087
:101960000000000000000000000000000000000077
:101970000000000000FFFF0000FFFF0000FFFF006D
:1019800000FFFF0000FFFF0000000000000000005B
:101990000000000000000000000000000000000047
:1019A0000000000000000000000000000000000037
:1019B0000000000000000000000000000000000027
:1019C0000000000000000000000000000000000017
:1019D0000000000000000000000000000000000007
:1019E00000000000000000000000000000000000F7
:1019F00000000000000000000000000000000000E7
:101A00000000000000FFFF0000FFFF0000FFFF00DC
:101A100000FFFF0000FFFF000000000000000000CA
:101A200000000000000000000000000000000000B6
:101A300000000000000000000000000000000000A6
:101A40000000000000000000000000000000000096
:101A50000000000000000000000000000000000086
:101A60000000000000000000000000000000000076
:101A70000000000000000000000000000000000066
:101A80000000000000000000000000000000000056
:101A90000000000000FFFF0000FFFF0000FFFF004C
:101AA00000FFFF0000FFFF0000000000000000003A
:101AB0000000000000000000000000000000000026
:101AC0000000000000000000000000000000000016
:101AD0000000000000000000000000000000000006
:101AE00000000000000000000000000000000000F6
:101AF00000000000000000000000000000000000E6
:101B000000000000000000000000000000000000D5
:101B100000000000000000000000000000000000C5
:101B20000000000000FFFF0000FFFF0000FFFF00BB
:101B300000FFFF0000FFFF000000000000000000A9
:101B40000000000000000000000000000000000095
:101B50000000000000000000000000000000000085
:101B60000000000000000000000000000000000075
:101B70000000000000000000000000000000000065
:101B80000000000000000000000000000000000055
:101B90000000000000000000000000000000000045
:101BA0000000000000000000000000000000000035
:101BB0000000000000FFFF0000FFFF0000FFFF002B
:101BC00000FFFF0000FFFF00000000000000000019
:101BD0000000000000000000000000000000000005
:101BE00000000000000000000000000000000000F5
:101BF00000000000000000000000000000000000E5
:101C000000000000000000000000000000000000D4
:101C100000000000000000000000000000000000C4
:101C200000000000000000000000000000000000B4
:101C300000000000000000000000000000000000A4
:101C40000000000000FFFF0000FFFF0000FFFF009A
:101C500000FFFF0000FFFF00000000000000000088
:101C60000000000000000000000000000000000074
:101C70000000000000000000000000000000000064
:101C80000000000000000000000000000000000054
:101C90000000000000000000000000000000000044
:101CA0000000000000000000000000000000000034
:101CB0000000000000000000000000000000000024
:101CC0000000000000000000000000000000000014
:101CD0000000000000FFFF0000FFFF0000FFFF000A
:101CE00000FFFF0000FFFF000000000000000000F8
:101CF00000000000000000000000000000000000E4
:101D000000000000000000000000000000000000D3
:101D100000000000000000000000000000000000C3
:101D200000000000000000000000000000000000B3
:101D300000000000000000000000000000000000A3
:101D40000000000000000000000000000000000093
:101D50000000000000000000000000000000000083
:101D60000000000000FFFF0000FFFF0000FFFF0079
:101D700000FFFF0000000000000000000000000065
:101D80000000000000000000000000000000000053
:101D90000000000000000000000000000000000043
:101DA0000000000000000000000000000000000033
:101DB0000000000000000000000000000000000023
:101DC0000000000000000000000000000000000013
:101DD0000000000000000000000000000000000003
:101DE00000000000000000000000000000000000F3
:101DF0000000000000FFFF0000FFFF0000FFFF00E9
:101E000000000000000000000000000000000000D2
:101E100000000000000000000000000000000000C2
:101E200000000000000000000000000000000000B2
:101E300000000000000000000000000000000000A2
:101E40000000000000000000000000000000000092
:101E50000000000000000000000000000000000082
:101E60000000000000000000000000000000000072
:101E70000000000000000000000000000000000062
:101E80000000000000FFFF0000FFFF000000000056
:101E90000000000000000000000000000000000042
:101EA0000000000000000000000000000000000032
:101EB0000000000000000000000000000000000022
:101EC0000000000000000000000000000000000012
:101ED0000000000000000000000000000000000002
:101EE00000000000000000000000000000000000F2
:101EF00000000000000000000000000000000000E2
:101F000000000000000000000000000000000000D1
:101F10000000000000FFFF000000000000000000C3
:101F200000000000000000000000000000000000B1
:101F300000000000000000000000000000000000A1
:101F40000000000000000000000000000000000091
:101F50000000000000000000000000000000000081
:101F60000000000000000000000000000000000071
:101F70000000000000000000000000000000000061
:101F8000000000000000000000FFFF0000FFFF0055
:101F900000FFFF0000FFFF0000FFFF0000FFFF0049
:101FA0000000000000000000000000000000000031
:101FB0000000000000000000000000000000000021
:101FC0000000000000000000000000000000000011
:101FD0000000000000000000000000000000000001
:101FE000000000000000000000FFFF0000000000F3
:101FF00000FFFF000000000000FFFF0000000000E5
:1020000000FFFF000000000000FFFF0000000000D4
:1020100000FFFF00000000000000000000000000C2
:1020200000000000000000000000000000000000B0
:102030000000000000FFFF000000000000FFFF00A4
:10204000000000000000000000FFFF000000000092
:10205000000000000000000000FFFF000000000082
:102060000000000000FFFF000000000000FFFF0074
:102070000000000000000000000000000000000060
:102080000000000000000000000000000000000050
:102090000000000000000000000000000000000040
:1020A0000000000000000000000000000000000030
:1020B00000000000000000000000000001230223D7
:1020C0000423082380230129022904290829402602
:1020D000802640298029102320234023802F402F51
:1020E000202F102F022F012F10292029402C7DFD99
:1020F0007DFB7DF77DEF7DDF7E7F7EBF7EDF7EEF28
:102100007EFD7EFE7DFE0001040506070D0C0B0A18
:1021100009080A0B0C0D0706050401000800010060
:1021200000CE2112000200008B2143000300008733
:102130002104010309046D21180203090455211625
:102140000303090447210C0C03310032003300342F
:1021500000350000001603550053004200200053D4
:102160000065007200690061006C000000180354F3
:1021700000650065006E00730079006400750069F9
:10218000006E006F0000000403090409024300020E
:102190000100C03209040000010202010005240010
:1021A0001001052401000104240206052406000193
:1021B0000705820308004009040100020A0000002C
:1021C00007050302400000070584024000001201D9
:1021D000000202000020C016830400010102030176
:1021E0000001C1020180360181364B1AFE2C641AAF
:1021F00011241FBECFEFDAE0DEBFCDBF11E0A0E0BB
:10220000B1E0E0E3F1E602C005900D92AC39B10710
:10221000D9F727E0ACE9B1E001C01D92AF31B207B8
:10222000E1F710E1C7EFD0E104C02197FE010E9461
:10223000642DC53FD107C9F70E942E2B0C948C301A
:102240000C9400000E946C1F0E946F1F81E0089593
:102250000FB6F894A8958091600088618093600023
:10226000109260000FBE80910001909101010E94C8
:10227000131D80E79FED0E94E71B0E94301F0E9404
:10228000A01A0E94BA2081E090E00E94641E0E9481
:10229000581F82E291E10E94B91F8AE399E10E94EE
:1022A000B91FA9C79DE088E10FB6F894A89580935F
:1022B00060000FBE909360000E940C1C0E941720CB
:1022C0005DC6CF92DF92EF92FF920F931F93CF9351
:1022D000DF938C016A017B01C0E0D0E0C8010E945D
:1022E0002124C817D90740F4A7019601BE01C801EF
:1022F0000E9480222196F2CFDF91CF911F910F9102
:10230000FF90EF90DF90CF900895FC018789908D2A
:10231000892B51F481E090E0908F878B86A597A55B
:10232000019791AB80AB0895108E178A11AA10AA5D
:102330000895FC012789308D80A991A9232B81F470
:10234000019691AB80AB26A537A582179307E8F0DD
:10235000818D882311F0CF01D8CF11AA10AA0DC00A
:10236000019791AB80AB892B81F4818D8111F3CFE3
:1023700086A597A5019791AB80ABE154FF4F0190E3
:10238000F081E02D309709F009940895FC01168A38
:10239000158A84E690E0A0E0B0E0828F938FA48F4E
:1023A000B58F8AE090E097A786A711AA10AA108E91
:1023B000178A118E08950F931F93CF93DF93EC012B
:1023C00000E010E0CE010E9421240817190750F404
:1023D00020E030E0A901B801CE010E9480220F5F09
:1023E0001F4FF0CFCE010E945221CE01DF91CF913D
:1023F0001F910F919ECFFC018BE090E0968B858B17
:1024000084E690E0A0E0B0E0828F938FA48FB58F38
:102410008AE090E097A786A742A353A364A375A37D
:1024200011AA10AA108E178A118E0895CF93DF93E8
:10243000EC0140E050E0BA0144DF2AA13BA14CA1ED
:102440005DA160E070E0CE010E948022CE010E947A
:102450005221CE01DF91CF916CCFEF92FF920F937B
:102460001F93CF93DF93EC01E12CF12C00E010E0FF
:10247000CE010E9421240817190780F5CE010E9481
:102480002124BC01C7010E94122D98A9960F909596
:10249000953538F4892F880F890F482F60E0809593
:1024A00011C09A3A40F49555692F660F690F462F6F
:1024B000409580E007C09A5A892F880F890F682FAE
:1024C000609540E00E94EC229B01AC01B801CE0176
:1024D0000E9480220F5F1F4FF394CACFCE010E944B
:1024E0005221CE01DF91CF911F910F91FF90EF907C
:1024F00020CF6F927F928F929F92AF92BF92CF9296
:10250000DF92EF920F931F93CF93DF9300D000D011
:10251000CDB7DEB73C014801590182E090E0F301FC
:10252000968B858B8E2D90E0A0E0B0E0828F938F0C
:10253000A48FB58FC30149835A836B837C830E9428
:102540002124F30197A786A749815A816B817C8159
:1025500042A353A364A375A386A297A2A0A6B1A683
:1025600011AA10AAD08EC78A118E0F900F900F90CB
:102570000F90DF91CF911F910F91EF90DF90CF904F
:10258000BF90AF909F908F907F906F9008950F9322
:102590001F93CF93DF93EC0100E010E0CE010E9487
:1025A000212408171907B0F488A999A9800F911F51
:1025B00080FD05C02AA13BA14CA15DA104C02EA1B4
:1025C0003FA148A559A5B801CE010E9480220F5F06
:1025D0001F4FE4CFCE010E945221CE01DF91CF9157
:1025E0001F910F91A6CECF93DF93EC012AA13BA1BF
:1025F0004CA15DA168A979A90E948022CE010E9408
:102600005221CE01DF91CF9194CE0F931F93CF93A0
:10261000DF93EC0100E010E0CE010E9421240817B6
:10262000190748F528A939A90217130739F08EA50B
:102630009FA5821B930B0817190729F42AA13BA118
:102640004CA15DA111C0B801CE010E94FB22462F12
:1026500050E055954795672F70E07595679586957D
:102660000E94EC229B01AC01B801CE010E948022A5
:102670000F5F1F4FD1CFCE010E945221CE01DF91BB
:10268000CF911F910F9155CECF92DF92EF92FF9293
:102690000F931F93CF93DF93EC016AA1FBA0ECA0F3
:1026A0002EA53FA5E8A9F9A989010E1B1F0B8EA134
:1026B000CFA0D8A48E9FA0018F9F500D1124609FA2
:1026C000C001619F900D1124840F951FB9010E94D4
:1026D000122D462FCE9EB001CF9E700D1124F09E7C
:1026E000C001F19E900D1124860F971FB9010E9421
:1026F000122DF62EDE9EB001DF9E700D1124E09E9D
:10270000C001E19E900D1124860F971FB9010E9410
:10271000122D862F6F2D0E94EC22AB01BC01CE0141
:10272000D0DDCE010E945221CE01DF91CF911F91C9
:102730000F91FF90EF90DF90CF90FBCDCF92DF9283
:10274000EF920F931F93FC0186E090E0968B858BB0
:102750008E2D90E0A0E0B0E0828F938FA48FB58F94
:1027600042A353A364A375A306A317A320A731A76D
:1027700011AA10AAD08EC78A80E190E097A786A7F9
:10278000118E1F910F91EF90DF90CF9008950F93CE
:102790001F93CF93DF93EC014EA15FA168A579A5AC
:1027A00090DD00E010E088A999A99C012F703327E3
:1027B0000217130771F09C012F5F3F4F2F703327D3
:1027C0000217130731F002968F709927081719071F
:1027D00029F42AA13BA14CA15DA104C02EA13FA1D7
:1027E00048A559A5B801CE010E9480220F5F1F4F56
:1027F00000311105C1F6CE010E945221CE01DF91B8
:10280000CF911F910F9195CDEF92FF920F93FC0105
:1028100087E090E0968B858B822F90E0A0E0B0E07F
:10282000828F938FA48FB58F42A353A364A375A304
:1028300011AA10AAF08EE78A85E090E097A786A7F4
:10284000018F0F91FF90EF900895CF93DF93EC01EC
:102850004AA15BA16CA17DA134DD88A964E1689FD8
:10286000600D1124CE010E942524CE010E94522128
:10287000CE01DF91CF915DCDFC0188E090E0968B99
:10288000858B84E690E0A0E0B0E0828F938FA48FE8
:10289000B58F8AE090E097A786A742A353A364A3CD
:1028A00075A311AA10AA108E178A118E0895CF93BE
:1028B000DF93EC014AA15BA16CA17DA102DDCE01F9
:1028C0000E945221CE01DF91CF9133CDCF92EF9272
:1028D0000F931F93FC0189E090E0968B858B8E2DE2
:1028E00090E0A0E0B0E0828F938FA48FB58F8AE054
:1028F00090E097A786A742A353A364A375A306A35A
:1029000017A320A731A711AA10AA108E178AC18E6B
:102910001F910F91EF90CF900895CF93DF93EC012B
:102920004EA15FA168A579A5CCDC88A999A90797D4
:1029300090F02AA13BA14CA15DA162E070E0CE0124
:102940000E9480222AA13BA14CA15DA16EE070E013
:10295000CE010E94802288A999A9059790F02AA10A
:102960003BA14CA15DA161E070E0CE010E948022FC
:102970002AA13BA14CA15DA16FE070E0CE010E94B5
:10298000802288A999A9039748F02AA13BA14CA1CC
:102990005DA160E070E0CE010E948022CE010E9425
:1029A0005221CE01DF91CF91C4CCAF92CF92DF9272
:1029B000EF92FF920F931F93CF93DF93FC01CAE036
:1029C000D0E0D68BC58B8A2D90E0A0E0B0E0828F5E
:1029D000938FA48FB58FD7A7C6A742A353A364A391
:1029E00075A306A317A320A731A7C2A6D3A6E4A662
:1029F000F5A611AA10AA108E178A118EDF91CF9119
:102A00001F910F91FF90EF90DF90CF90AF900895BE
:102A1000CF93DF93EC014AA55BA56CA57DA551DCA6
:102A20002AA13BA14CA15DA162E170E0CE010E9410
:102A300080222AA13BA14CA15DA16AE170E0CE01F8
:102A40000E9480222EA13FA148A559A564E170E013
:102A5000CE010E9480222EA13FA148A559A565E183
:102A600070E0CE010E9480222EA13FA148A559A569
:102A700066E170E0CE010E9480222EA13FA148A510
:102A800059A567E170E0CE010E9480222EA13FA1EE
:102A900048A559A568E170E0CE010E948022CE01D0
:102AA0000E945221CE01DF91CF9143CC0F931F930F
:102AB000FC018CE090E0968B858B84E690E0A0E0B2
:102AC000B0E0828F938FA48FB58F8AE090E097A7B4
:102AD00086A742A353A364A375A306A317A320A7A5
:102AE00031A711AA10AA108E178A118E1F910F916B
:102AF0000895CF93DF93EC014EA15FA168A579A55E
:102B0000E0DB2AA13BA14CA15DA163E070E0CE0116
:102B10000E9480222AA13BA14CA15DA164E070E04B
:102B2000CE010E9480222AA13BA14CA15DA165E0BB
:102B300070E0CE010E948022CE010E945221CE017F
:102B4000DF91CF91F6CB0F931F93FC018DE090E0C6
:102B5000968B858B84E690E0A0E0B0E0828F938F27
:102B6000A48FB58F8AE090E097A786A742A353A3CE
:102B700064A375A306A317A320A731A711AA10AABF
:102B8000108E178A118E1F910F910895CF93DF93A6
:102B9000EC014EA15FA168A579A593DB2AA13BA119
:102BA0004CA15DA16DE070E0CE010E9480222AA1BF
:102BB0003BA14CA15DA16CE070E0CE010E9480229F
:102BC0002AA13BA14CA15DA16BE070E0CE010E9467
:102BD0008022CE010E945221CE01DF91CF91A9CB5C
:102BE0000F931F93FC018EE090E0968B858B84E61B
:102BF00090E0A0E0B0E0828F938FA48FB58F8AE041
:102C000090E097A786A742A353A364A375A306A346
:102C100017A320A731A711AA10AA108E178A118E08
:102C20001F910F910895CF93DF93EC014EA15FA107
:102C300068A579A546DB2AA13BA14CA15DA161E075
:102C400070E0CE010E9480222AA13BA14CA15DA18F
:102C500060E070E0CE010E9480222AA13BA14CA13D
:102C60005DA16FE070E0CE010E948022CE010E9443
:102C70005221CE01DF91CF915CCB0F931F93FC01CA
:102C80008FE090E0968B858B84E690E0A0E0B0E04A
:102C9000828F938FA48FB58F8AE090E097A786A745
:102CA00042A353A364A375A306A317A320A731A728
:102CB00011AA10AA108E178A118E1F910F910895D4
:102CC000CF93DF93EC014EA15FA168A579A5F9DA56
:102CD0002AA13BA14CA15DA167E070E0CE010E945A
:102CE00080222AA13BA14CA15DA168E070E0CE0149
:102CF0000E9480222AA13BA14CA15DA169E070E065
:102D0000CE010E948022CE010E945221CE01DF918D
:102D1000CF910FCBFC0180E190E0968B858B84E610
:102D200090E0A0E0B0E0828F938FA48FB58F8AE00F
:102D300090E097A786A711AA10AA108E178A118E65
:102D40000895EF92FF920F931F93CF93DF93EC01BF
:102D50007C0182E3E80EF11C00E010E0CE010E944D
:102D600021240817190768F4F70121913191419145
:102D700051917F01B801CE010E9480220F5F1F4F49
:102D8000EDCFCE01DF91CF911F910F91FF90EF908A
:102D90000C945221FC0181E190E0968B858BDF0140
:102DA000A254BF4FAC9185E0A89FD0011124A55C2F
:102DB000BE4F13964D915C911497052E000C660B37
:102DC000770B428F538F648F758F8C9190E097A70C
:102DD00086A711AA10AA108E178A118E0895EF9255
:102DE000FF920F931F93CF93DF93EC01FC01E2540A
:102DF000FF4FE08185E0E89FF0011124E55CFE4F84
:102E000028A939A94CE8429FC001439F900D112485
:102E100061817281680F791F8E010E5C1F4F4CE833
:102E200050E0C8010E94832DE12CF12CCE010E94BC
:102E30002124E816F90670F4F801219131914191AD
:102E400051918F01B701CE010E948022FFEFEF1A4E
:102E5000FF0AECCFCE010E945221CE01DF91CF912B
:102E60001F910F91FF90EF9064CA0F931F930FB6BD
:102E7000F894409108075091090760910A077091F2
:102E80000B070FBEDC015E960D911D912D913C91BB
:102E90009197401B510B620B730B5A960D911D912C
:102EA0002D913C915D97041715072607370708F009
:102EB00051C00FB6F89440910807509109076091EE
:102EC0000A0770910B070FBEFC01468F578F60A356
:102ED00071A30588F689E02DE231F10508F03AC0CA
:102EE000EA5AFF4F0C94642D1F910F9164CA1F91F1
:102EF0000F91B3CA1F910F914ACB1F910F9173CBC2
:102F00001F910F9182CB1F910F91BECB1F910F91FB
:102F10003ECC1F910F9199CC1F910F91C8CC1F915E
:102F20000F91FBCC1F910F9173CD1F910F917ECA12
:102F30001F910F91DECD1F910F9128CE1F910F9100
:102F400072CE1F910F91BCCE1F910F91FACE1F919F
:102F50000F9145CF1F910F910895CF93DF931F924B
:102F6000CDB7DEB780915D028983BE016F5F7F4F71
:102F700081E0D1D50F90DF91CF9108958CE991E058
:102F800074CF4F925F926F927F92AF92CF92DF9207
:102F9000EF92FF920F931F9380935D0290E08E302B
:102FA000910508F01CC1FC01E859FF4F0C94642DF9
:102FB0008CE991E01F910F91FF90EF90DF90CF90FF
:102FC000AF907F906F905F904F90E0C940E060E0DD
:102FD00080E00E94EC222B013C0142E360E080E0B3
:102FE0000E94EC22AB01BC01C12CD12C34E6E32EB3
:102FF000930182018CE991E0A1DBF1C040E860E03F
:1030000080E80E94EC22AB01BC01E12CF12C01E034
:103010002BE48CE991E0F8DBE2C040E060E080E086
:103020000E94EC222B013C0140E060E080E80E941D
:10303000EC22AB01BC01C12CD12C24E6E22E930181
:1030400082018CE991E055DACAC040E069E98FEF6E
:103050000E94EC22AB01BC018CE991E01F910F9121
:10306000FF90EF90DF90CF90AF907F906F905F9048
:103070004F9002CC40E060E080E00E94EC222B0107
:103080003C0140E06BE480E00E94EC22AB01BC011B
:10309000C12C94E6E92E930182018CE991E016DCC3
:1030A0009EC040E060E080E00E94EC226B017C0169
:1030B0004FEF6FEF8FEF0E94EC222B013C0144E6B3
:1030C00060E080E00E94EC22AB01BC0184E6A82E07
:1030D000930182018CE991E068DC81C042E360E009
:1030E00080E00E94EC22AB01BC018CE991E01F91D1
:1030F0000F91FF90EF90DF90CF90AF907F906F9007
:103100005F904F9078C940E060E080E00E94EC2240
:103110006B017C0142E360E080E00E94EC22AB01A5
:10312000BC01970186018CE991E0C0DC58C040E009
:1031300060E080E00E94EC226B017C0142E360E0F1
:1031400080E00E94EC22AB01BC01970186018CE972
:1031500091E0F9DC44C040E060E080E00E94EC22B5
:103160006B017C0142E360E080E00E94EC22AB0155
:10317000BC01970186018CE991E032DD30C040E06E
:1031800060E080E00E94EC226B017C0142E360E0A1
:1031900080E00E94EC22AB01BC01970186018CE922
:1031A00091E06BDD1CC08CE991E01F910F91FF90C5
:1031B000EF90DF90CF90AF907F906F905F904F90A7
:1031C000A9CD8CE991E01F910F91FF90EF90DF90D6
:1031D000CF90AF907F906F905F904F90DBCD1F911D
:1031E0000F91FF90EF90DF90CF90AF907F906F9016
:1031F0005F904F90089564E579E18AE491E047D4C7
:103200006DEA77E18AE491E042D467E679E18AE405
:1032100091E03DD46EE979E18AE491E038D461E34C
:103220007AE18AE491E033D46EEC79E18AE491E0CA
:103230002ED463E07AE18AE491E029D4289A209A96
:10324000289A2F98E0E8F0E08081877F8083279A92
:103250002F988081877F8083289864E670E080E0E3
:1032600090E00E945E288CE991E09FD780E089DEA3
:10327000509A089531D6882329F0589A84B58F7DC5
:1032800084BD10C0589884B58F7D84BD87E079DEF9
:1032900040E060E089E10E94EC22AB01BC018CE9D6
:1032A00091E0A9D881E00895CF93DF931F92CDB725
:1032B000DEB721D566DE80915D028983BE016F5F36
:1032C0007F4F81E028D40F90DF91CF910895EF9246
:1032D000FF920F931F93CF93DF931F92CDB7DEB76B
:1032E0000EEC11E008D507D5F82E05D5E82E03D54C
:1032F0004E2D50E060E070E0762F652F542F44276C
:103300006F29482BF80141935193619371938F0179
:10331000F2E00A351F0731F78CE033DE80915D0261
:103320008983BE016F5F7F4F81E0F5D30F90DF91FE
:10333000CF911F910F91FF90EF900895FF920F93FF
:103340001F93CF93DF9300D0CDB7DEB70EEC11E023
:10335000D2D4F82ED0D48A83CED4482F6A818F2D30
:103360000E94EC22F80161937193819391938F01F4
:10337000F2E00A351F0761F78CE003DE80915D0201
:103380008983BE016F5F7F4F81E0C5D30F900F909F
:10339000DF91CF911F910F91FF900895FF920F93AE
:1033A0001F93CF93DF931F92CDB7DEB7A4D4182F0E
:1033B000A2D4A1D4082F9FD4F82E9DD494E0199FB5
:1033C000F0011124E456FE4F4F2D50E060E070E014
:1033D000762F652F542F4427602B482B42AB53ABDD
:1033E00064AB75AB8CE0CDDD80915D028983BE015D
:1033F0006F5F7F4F81E08FD30F90DF91CF911F914F
:103400000F91FF9008950F931F93CF93DF9300D0F8
:10341000CDB7DEB770D4182F6ED4082F6CD48A8342
:103420006AD4482F6A81802F0E94EC2224E0129FE8
:10343000F0011124E456FE4F62AB73AB84AB95AB45
:103440008CE09FDD80915D028983BE016F5F7F4FBD
:1034500081E061D30F900F90DF91CF911F910F9179
:103460000895CF93DF931F92CDB7DEB744D48093F6
:103470005A02833010F48DE001C087E082DD809134
:103480005D028983BE016F5F7F4F81E044D30F905F
:10349000DF91CF91089522E530E044E063E270E0EF
:1034A0008CE991E00E945B228CE8EEECF1E0DF0118
:1034B0001D928A95E9F710925A021092B501109266
:1034C0005C0210925B0208958CE991E05DC6CF9397
:1034D00012D4C82F10D4EC2FF0E0082E0E94EA2658
:1034E000CF910895CF9307D4C82F05D4682F8C2F80
:1034F000CF910C94E326FFD3E82FF0E00E948627BB
:103500008E2F78C3F8D30E94E325DEC3CF93F3D385
:10351000C82FF1D3682F880F770B8C2FCF910C9485
:103520003326CF93E8D3C82FE6D320E432E44FE02C
:1035300050E0682F8C2F0E949D2A862FCF915AC36E
:1035400062E77AE180E591E0A2D26BE77AE180E57B
:1035500091E09DD267E67AE180E591E098D262E859
:103560007AE180E591E093D266E87AE180E591E046
:103570008ED261E97AE180E591E089C2209167020B
:1035800030916802FC013183208380EA0895CF9353
:10359000DF931F92CDB7DEB76983DC01ED91FC911B
:1035A0000280F381E02D41E050E0BE016F5F7F4F6C
:1035B00009950F90DF91CF91089590936A028093BF
:1035C00069020895CF93C82F803C41F08B3D61F490
:1035D0006BED83E197E0DBDF6DED07C06BED83E121
:1035E00097E0D5DF6CED01C0682F83E197E0CFDF76
:1035F00080917202C827C0937202CF910895CF9232
:10360000DF92FF920F931F93CF93DF931F92CDB75B
:10361000DEB7182F062F10927202809170029983E4
:10362000D1DFF12EC12E9981D92E8C2D8F198017C3
:1036300028F4F60181916F01C5DFF7CF8091720206
:10364000C1DF60EC83E197E0A2DF83E197E00E94B5
:10365000E82C8091700291E0980F909370020F9087
:10366000DF91CF911F910F91FF90DF90CF90089540
:10367000CF93DF9300D0CDB7DEB789836A8362E052
:10368000CE010196BCDF0F900F90DF91CF9108958E
:103690000F931F93CF93DF93CDB7DEB7CF5FD109E1
:1036A0000FB6F894DEBF0FBECDBFFC010190002025
:1036B000E9F731978F01081B190BA80155274E3FD9
:1036C000510528F064E08FE790E0D2DF0DC02DE7D0
:1036D00029830A83BC01CE0103960E948C2D62E0EF
:1036E000600FCE0101968BDFC150DF4F0FB6F8940B
:1036F000DEBF0FBECDBFDF91CF911F910F91089517
:10370000CF93DF93EC0183E197E00E946D2B982F1C
:10371000888380916F028823E1F09C3D21F09D3DDC
:1037200029F48BED01C080EC88830AC061E08EE74C
:1037300090E09EDF83E090E090936E0280936D02B4
:1037400010926F029091730288818927809373028F
:1037500031C09B3D31F481E080936F0280E090E0C6
:103760002BC0903C11F580916D0290916E028130DA
:10377000910549F0039771F41092730210926E0252
:1037800010926D0217C022E030E030936E02209359
:103790006D0212C063E08EE790E06ADF83E090E0A4
:1037A00090936E0280936D0205C0809173029827FA
:1037B0009093730281E090E0DF91CF910895109291
:1037C00071021092700283E197E00C94FD2CCF936C
:1037D000DF93EC0180916B0290916C02892B71F464
:1037E00080EA90E00E9466249093680280936702CA
:1037F0008EEB9AE190936C0280936B02AE01DD0F29
:10380000660B770B83E197E00E94972C83E197E0AA
:10381000DF91CF910C94FD2C4F925F926F927F922B
:103820009F92AF92BF92CF92DF92EF92FF920F934F
:103830001F93CF93DF93CDB7DEB76F970FB6F89492
:10384000DEBF0FBECDBF83E0C82ED12CAA24A39427
:10385000B12C06E511E02EE1922ECE0101967C01FD
:1038600083E197E00E94342B892B09F4BFC0CE017D
:103870004F9646DF892BA1F380916D0290916E02E5
:103880008130910509F461C08230910509F47BC053
:10389000892B31F78F8D809362029091710221E024
:1038A000290F20937102981709F43BC00FB6F894C2
:1038B000409008075090090760900A0770900B0726
:1038C0000FBE40915E0250915F0260916002709164
:1038D000610244195509660977094031574261056B
:1038E0007105D0F41F928F9330E0215031093F933E
:1038F0002F931F930F931F929F92FF92EF920E941C
:10390000B92DC701C5DE60E08EE790E0B1DE0FB6ED
:10391000F894DEBF0FBECDBF809162028F5F8093AF
:103920007102E0916B02F0916C0285E692E00995DC
:10393000809364021092630280916202809373020A
:10394000B0926E02A0926D028BCF80916302909133
:10395000640289130BC064E08FE790E089DED092A7
:103960006E02C0926D02109273027ACFE0916502EE
:10397000F091660291E0980F909363029F8DE80F9B
:10398000F11D90836DCF0FB6F89480910807909148
:103990000907A0910A07B0910B070FBE80935E0242
:1039A00090935F02A0936002B093610280917302D2
:1039B000811111C0E0916902F0916A02309789F09B
:1039C000409165025091660260916302615080915E
:1039D0006202099506C062E08EE790E049DE10922F
:1039E000730210926E0210926D023ACF6F960FB66C
:1039F000F894DEBF0FBECDBFDF91CF911F910F9125
:103A0000FF90EF90DF90CF90BF90AF909F907F900E
:103A10006F905F904F9008958FEF9FEF9093030109
:103A200080930201CCCE9093060180930501089506
:103A3000CF92DF92EF92FF920F931F93CF93DF937A
:103A40006C01C091C903D0E083E3E82E83E0F82E37
:103A500000E010E00C171D0774F446E050E0B601DA
:103A6000C7010E949C2D26E0E20EF11C892B29F053
:103A70000F5F1F4FEFCF80E001C081E0DF91CF915A
:103A80001F910F91FF90EF90DF90CF900895CF920C
:103A9000DF92EF92FF920F931F93CF936C018B01F4
:103AA000C7DF811118C0C091C903EC2EF12C26E0AC
:103AB000C29FC001112446E050E0B6018D5C9C4FCE
:103AC0000E94AA2DCF5FC093C903F701E65EFC4FA9
:103AD000809104018083E0910401F0E0EE0FFF1F6C
:103AE000E653FC4F80819181892B19F41183008367
:103AF00004C066E08FE790E0BBDD8091040191E0B7
:103B0000980F90930401CF911F910F91FF90EF9028
:103B1000DF90CF9008951F93CF93DF93CDB7DEB79B
:103B2000CF5FD1090FB6F894DEBF0FBECDBF182FFF
:103B3000482F50E04D3F51052CF064E08FE790E0B6
:103B400097DD0FC08CE78983809119038A831B83DB
:103B5000CE0104960E948C2D63E0610FCE01019688
:103B60004EDDC150DF4F0FB6F894DEBF0FBECDBFA4
:103B7000DF91CF911F910895E0910501F091060129
:103B8000DF010D900020E9F7CD010197BF018E1BE9
:103B9000C2CFE82FF0E0EE0FFF1FE653FC4F01907D
:103BA000F081E02D309709F0099467E08FE790E00D
:103BB0005FCD509377024093760280931903460FAE
:103BC000511D5093750240937402E0917602F0917A
:103BD00077028091740290917502E817F90749F015
:103BE000CF01019690937702809376028081D1DF96
:103BF000ECCF08952091020130910301203A310564
:103C000021F469E08FE790E033CD2F5F3F4F309391
:103C1000030120930201F901E858FD4F80830895C4
:103C20000F931F93CF93DF93209176023091770209
:103C300080917402909175022817390721F465E08C
:103C40008FE790E015DDE0917602F0917702CF01E9
:103C500001969093770280937602C081D0E08E0126
:103C60000150110920917602309177020F3F8FEFBA
:103C7000180731F0F901E00FF11F8081BBDFF0CFB1
:103C80006091740270917502C901AC01421B530B23
:103C90004C175D0784F4019668177907B0F7909385
:103CA00077028093760265E08FE790E0DF91CF9115
:103CB0001F910F91DDCC9093770280937602DF9174
:103CC000CF911F910F91089520910201309103012E
:103CD0002F39310524F069E08FE790E0C9CC2E5FE1
:103CE0003F4F3093030120930201F901E958FD4F42
:103CF00091838083089580910201909103018F3F09
:103D00002FEF920731F46AE08FE790E0B1DC8FEF9C
:103D100008959C0121503109309303012093020141
:103D2000FC01E858FD4F80810895CF92DF92EF9219
:103D3000FF920F931F93CF93DF93CDB7DEB7DA9542
:103D40000FB6F894DEBF0FBECDBFD5DF63E0680FBE
:103D5000C82E082E000CDD089CE79983909119036A
:103D60009A838B837E0184E0E80EF11C00E010E072
:103D70000C151D058CF4C050DF4F6883C050D14036
:103D8000BADFF70181937F010F5F1F4FC050DF4FF4
:103D90006881C050D140ECCFCE01019630DCD39584
:103DA0000FB6F894DEBF0FBECDBFDF91CF911F914C
:103DB0000F91FF90EF90DF90CF90089581E01ADF90
:103DC000B4CFEF92FF920F931F93CF93DF9383E3D0
:103DD000E82E83E0F82E0AE113E08091C903482F12
:103DE00050E098012A513340241735078CF4C4E081
:103DF000D0E0F701EC0FFD1F8081FCDE2197C8F7B2
:103E0000F80181918F01F6DEF6E0EF0EF11CE5CFAF
:103E1000982F990F890F880FEDDEDF91CF911F91B9
:103E20000F91FF90EF9081CF80910201909103015B
:103E30009C012F5F3F4F2230310538F46AE08FE755
:103E400090E016DC8FEF9FEF0895029790930301A7
:103E500080930201FC01E758FD4F80819181089514
:103E6000EAECF3E08FEFDF011D928A95E9F780E13C
:103E70009EE19183808381EE9EE1938382838EED28
:103E80009EE19583848385E99EE1978386838CEB0D
:103E90009DE1918780878CE09DE19093BF048093A2
:103EA000BE0489ED9DE189CB81E0809304060895ED
:103EB000BBDF9C01990F440B550B60E472E48FE06B
:103EC00090E00E94482D2093070130930801409311
:103ED000090150930A0108958091040608952091E4
:103EE0000B0130910C012F3F310521F469E08FE780
:103EF00090E0BECB2F5F3F4F30930C0120930B011E
:103F0000F901EB5FF94F8083089520910B01309107
:103F10000C012E3F310524F069E08FE790E0A8CB3B
:103F2000F901EB5FF94F91832E5F3F4F30930C0106
:103F300020930B01F901EB5FF94F80830895809185
:103F40000B0190910C018F3F2FEF920731F46AE043
:103F50008FE790E08DDB8FEF08959C0121503109B0
:103F600030930C0120930B01FC01EB5FF94F808132
:103F700008952091D2053091D305A9014F5F5F4F7D
:103F80005093D3054093D205220F331FF901EC5112
:103F9000FA4F918380830895CF92DF92EF92FF9240
:103FA0000F931F93CF93DF93CDB7DEB7DA950FB69C
:103FB000F894DEBF0FBECDBF8091CE059091CF05A6
:103FC000A4DF8091D0059091D1059FDF8BE787DF3B
:103FD00060910B016F5F8E010F5F1F4F7801C62E3E
:103FE000D12CC701801B910B8C159D057CF4C05012
:103FF000DF4F6883C050D140A2DFF70181937F017A
:10400000C050DF4F6881C050D140EBCFC801F7DA14
:10401000D3950FB6F894DEBF0FBECDBFDF91CF9121
:104020001F910F91FF90EF90DF90CF900895EF9246
:10403000FF920F931F93CF93DF9300D000D0CDB7A3
:10404000DEB78091CD05882329F08091CD058111BF
:1040500032C085C08091D0059091D1050196909392
:10406000D1058093D00581E08093CD0504EE15E065
:1040700084EDE82E85E0F82E2091D2053091D3050D
:10408000C701845D954082179307FCF6D7018C9198
:1040900081110BC0A895D801ED91FC910995F7010C
:1040A0008083811102C01092CD050E5F1F4FFFEF7C
:1040B000EF1AFF0AE1CF8091CC05811105C0109263
:1040C000040681E08093CC050E947E280091C805FB
:1040D0001091C9052091CA053091CB056017710771
:1040E0008207930798F169837A838B839C8354DFDB
:1040F00000910701109108012091090130910A01F6
:1041000069817A818B819C81DC01CB01800F911FB9
:10411000A21FB31F8093C8059093C905A093CA0539
:10412000B093CB051092D1051092D0051092CF0517
:104130001092CE051092CC05E4EDF5E0119285E0E9
:10414000E43EF807D9F71092CD0509C08091CE055D
:104150009091CF0501969093CF058093CE050F9057
:104160000F900F900F90DF91CF911F910F91FF90C3
:10417000EF90089568E57FE185E891E088DC64E5EB
:104180007FE185E891E083CCCF93DF93EC018885D4
:104190009985009709F02FD48E8187FD03C0DF91A8
:1041A000CF91BEC5DF91CF910895CF93DF93EC01FE
:1041B0008E8187FD04C046D5EE81F0E014D681E003
:1041C0008983DF91CF910895EF92FF920F931F9310
:1041D000CF93DF93EC017B0188859985009709F0E7
:1041E0000AD49D858A85981719F084E090E002C072
:1041F00083E090E08E9D80018F9D100D9E9D100D9F
:1042000011241D830C83C80161D399878887009787
:1042100041F0A80160E070E00E94952DFB82EA82E7
:1042200004C01D821C821B821A82DF91CF911F91D4
:104230000F91FF90EF900895FC0131E09585828504
:10424000981330E0CB0126E0969587952A95E1F703
:10425000282F23702587CB0144E0969587954A95B2
:10426000E1F783708287AB01569547955695479540
:1042700043704387962F9370948791E06F3F710549
:1042800011F008F090E0908340855185452B49F06E
:1042900091E0281390E0931721F062817381CF01A0
:1042A00093CF0895AF92BF92CF92DF92FF920F9378
:1042B0001F93CF93DF93CDB7DEB729970FB6F8944E
:1042C000DEBF0FBECDBF6C01DC0118968D919C91B5
:1042D0001997892B09F4A1C011D7F6010685178516
:1042E00020893189AB01BC01401B510B620B730B60
:1042F000423351056105710578F3F8948481958105
:104300009A8389830084F185E02D5F01BFEFAB1AAA
:10431000BB0A20812987F60130810288F389E02DCC
:10432000D60154962C91332309F432C03081322BBC
:1043300038873081209523232F832F812E8328E0F7
:104340002D837885FF8069855D814E8129813A8141
:10435000C901D501708367FD472F5A9540834F2DC2
:1043600039F0661F00C00000F082000000C0F2CFEC
:1043700058E06D91F0820000019761F79C01D60131
:104380005396FC93EE93529769875D834E833CC0AE
:104390003081322B38873081209523232F832F8142
:1043A0002C8328E02B837885FF8069855B814C8195
:1043B00029813A81C901D501708367FD472F00C06B
:1043C00000C0408300C000C000C000C000C0F08238
:1043D00000004F2D5A9541F0661F000000C000C03C
:1043E00000C000C000C0E8CF58E06D9100C0F0826E
:1043F00000C0019709F79C01D6015396FC93EE93F8
:10440000529769875B834C833A832983789476D665
:10441000F60166877787808B918B29960FB6F89483
:10442000DEBF0FBECDBFDF91CF911F910F91FF90E7
:10443000DF90CF90BF90AF900895EF92FF920F93CF
:104440001F93CF93DF931F92CDB7DEB78C01DC01B2
:1044500011968C911197882339F016968C9187FDCF
:1044600003C069835DD46981F80166838181E62E8A
:10447000F12C882321F0862FE5D3F701B4D4C701AE
:10448000880F991FFC01E354FF4DE491F0E0329650
:10449000D8015396FC93EE935297FC01E454FF4DE0
:1044A0008491F801848B0F90DF91CF911F910F9130
:1044B000FF90EF900895EF92FF920F931F93CF9389
:1044C000DF931F92CDB7DEB77C018B01FC01118217
:1044D00017821186108616861786108A118AB901EE
:1044E0004983AADEB801C7016FDE4981642FC70185
:1044F0000F90DF91CF911F910F91FF90EF909DCF83
:104500008F929F92AF92BF92CF92DF92EF92FF92E3
:104510000F931F93CF93DF93FC01828193816817E0
:10452000790708F04CC04A01AA24BB24B82DC32E39
:10453000D42EE52EFF24AC2D922F8781882361F0A5
:10454000889E40011124B92DC89E60011124AD2D13
:10455000289FE00111249D2FD584C285E084F18439
:10456000DC1208C09B01220F331F620F731F6E0DF8
:104570007F1D16C0660F771F660F771F6E0D7F1D9C
:10458000052F112722273327EB01CD0DD11D8823BD
:1045900029F0089F90011124232F01C0202F288388
:1045A0008285EB01C80FD11DB8838385EB01C80F4D
:1045B000D11DA8838485FB01E80FF11D9083DF9155
:1045C000CF911F910F91FF90EF90DF90CF90BF9010
:1045D000AF909F908F9008950F931F93962F50E068
:1045E00060E070E0592B8A019B01282BC901B801BA
:1045F0001F910F9108954F925F926F927F928F92C9
:104600009F92AF92BF92CF92DF92EF92FF920F9361
:104610001F93CF93DF93DC0112968D919C9113979A
:104620006817790708F0F9C01D968C911D971A96A6
:10463000EC901A971896ED91FC91199717968C901B
:104640001797482F50E01B961C911B971C960C91B6
:10465000EB018E1164C0CC0FDD1FC60FD71FCE0F2C
:10466000DF1F882009F443C0912CA12CB12CFE013E
:10467000E40FF51F608170E0762F6627072E000C8F
:10468000880B990BA50194010E94262D3901552410
:104690004424FE01E10FF11D608170E0762F662752
:1046A000072E000C880B990BA50194010E94262D62
:1046B000B42FA32F922F882773016201C82AD92A09
:1046C000EA2AFB2AC00FD11D688170E0762F662789
:1046D000072E000C880B990BA50194010E94262D32
:1046E000C701B601622B732B842B952B99C0FE0159
:1046F000E40FF51F2081FE01E10FF11D6081862F7F
:1047000090E0A0E0B0E0BA2FA92F982F8827A22B25
:10471000C00FD11D2881BC01CD01622B81C0CC0FFF
:10472000DD1FCC0FDD1FCE0FDF1FF12C882009F419
:1047300058C0912CA12CB12CFE01E40FF51F608113
:1047400070E0762F6627072E000C880B990BA501C9
:1047500094010E94262D722E662455244424FE01C5
:10476000EE0DFF1D608170E0762F6627072E000C8E
:10477000880B990BA50194010E94262D7901DD2457
:10478000CC24C428D528E628F728FE01E00FF11D27
:10479000608170E0762F6627072E000C880B990B3E
:1047A000A50194010E94262DC22AD32AE42AF52AC3
:1047B000C10FD11D688170E0762F6627072E000C8F
:1047C000880B990BA50194010E94262DB42FA32FCD
:1047D000922F8827BC01CD016C297D298E299F2924
:1047E0001FC0FE01E40FF51F2081FE01EE0DFF1D2D
:1047F0006081862F90E0A0E0B0E0DC019927882757
:10480000B22BFE01E00FF11D2081822BC10FD11DC3
:104810002881BC01CD01722B03C060E070E0CB01A8
:10482000DF91CF911F910F91FF90EF90DF90CF908C
:10483000BF90AF909F908F907F906F905F904F90C0
:104840000895FC01828193810895FF920F931F9335
:10485000CF93DF93EC01FF24F394F60E2F81F21631
:1048600079F1088519852150B9F06F3F59F430E08E
:1048700040E050E06FEF7FEF80E090E00E94482D35
:10488000B9010CC08F2D90E0982F88270197622FD7
:1048900070E00E94122D02C060E070E0F8014C81CF
:1048A0005D81CF01801B910B8417950740F44081F7
:1048B000469FC001479F900D11249193F0CFFF8236
:1048C000DF91CF911F910F91FF900895CF93DF93C8
:1048D0008230910510F482E090E0E0911D07F091A4
:1048E0001E0720E030E0C0E0D0E0309711F14081B9
:1048F000518148175907C0F04817590761F4828160
:104900009381209719F09B838A832BC090931E0775
:1049100080931D0726C02115310519F04217530752
:1049200018F49A01BE01DF01EF010280F381E02D4E
:10493000DCCF2115310509F1281B390B2430310555
:1049400090F412968D919C9113976115710521F049
:10495000FB019383828304C090931E0780931D07FD
:10496000FD01329644C0FD01E20FF31F8193919344
:10497000225031092D933C933AC020910507309184
:104980000607232B41F420910F0130911001309341
:1049900006072093050720910D0130910E01211586
:1049A000310541F42DB73EB74091110150911201EC
:1049B000241B350BE0910507F0910607E217F3077A
:1049C000A0F42E1B3F0B2817390778F0AC014E5F7F
:1049D0005F4F2417350748F04E0F5F1F50930607AF
:1049E000409305078193919302C0E0E0F0E0CF018E
:1049F000DF91CF9108950F931F93CF93DF9300978B
:104A000009F48CC0FC0132971382128200911D07B9
:104A100010911E070115110581F420813181820F4B
:104A2000931F20910507309106072817390779F55C
:104A3000F0930607E093050771C0D80140E050E00D
:104A4000AE17BF0750F412962D913C911397AD010C
:104A50002115310509F1D901F3CF9D01DA01338325
:104A6000228360817181860F971F8217930769F4F3
:104A7000EC0128813981260F371F2E5F3F4F31838C
:104A800020838A819B8193838283452B29F4F09331
:104A90001E07E0931D0742C01396FC93EE931297F6
:104AA000ED01499159919E01240F351FE217F3073B
:104AB00071F480819181840F951F029611969C93C9
:104AC0008E938281938113969C938E931297E0E04C
:104AD000F0E0D80112968D919C911397009719F0F0
:104AE000F8018C01F6CF8D919C9198012E5F3F4F7C
:104AF000820F931F20910507309106072817390769
:104B000069F4309729F410921E0710921D0702C015
:104B1000138212821093060700930507DF91CF914D
:104B20001F910F9108951DBA109268001CBC10BE11
:104B30001FBA10927A0010926E0010926F001092BD
:104B40007100109272001092C900ECEBF0E010823C
:104B500014B817B81AB81DB810BA108215B818B81A
:104B60001BB81EB811BA0895F894E1E6F0E020E809
:104B70002083108283E084BD85BDEEE6F0E0808175
:104B80008160808381E08093800092E09093810037
:104B900080939000909391009093C00094E0909344
:104BA000C1008093C2008093C3001092C40086E8C5
:104BB00080937A0020937B0010927E0010927D00FB
:104BC000BCD2789408958731D0F5E82FF0E0EA5F01
:104BD000FE4DE491E83070F420917E0081E090E099
:104BE0000E2E01C0880F0A94EAF7822B80937E0074
:104BF00080E80EC0E85020917D0081E090E00E2E0C
:104C000001C0880F0A94EAF7822B80937D0080EA26
:104C100080937B0080911301E82BE0937C008091CE
:104C20007A00806480937A0080917A0086FDFCCFC0
:104C3000809178002091790090E0922B089580E097
:104C400090E00895893170F4ECEBF0E2880FE80F02
:104C5000F11D9591E491F0E08FB7F8942181922BAA
:104C600091838FBF08950F931F93CF93C82F8B010C
:104C7000E9DF8C2F90E0FC013497EC30F10508F06F
:104C800043C0EA58FF4F20C70115110521F4589879
:104C900084B58F7D03C008BD84B5806284BD3CC0EF
:104CA000109389000093880080918000806807C07D
:104CB00010938B0000938A00809180008062809323
:104CC00080002AC010938D0000938C00809180009A
:104CD0008860F5CF10939900009398008091900020
:104CE00080688093900018C00093CF008091C0002E
:104CF00080688093C00010C00093D2008091C200F1
:104D000088608093C20008C0EC2FF0E000381105E5
:104D100014F469D001C061D0CF911F910F91089513
:104D2000893138F5A5EFA80FAC3048F4EEEEF0E28B
:104D3000AA0FEA0FF11DA591B0E0959103C09FEF76
:104D4000A0E0B0E0ECEBF0E2880FE80FF11D259158
:104D5000E491F0E04FB7F8943181822F8095282FAD
:104D600023232183228182238283EC91E923EC9304
:104D70004FBF0895893130F5A5EFA80FAC3048F446
:104D8000EEEEF0E2AA0FEA0FF11DA591B0E09591C9
:104D900003C09FEFA0E0B0E0ECEBF0E2880FE80F7B
:104DA000F11D2591E491F0E03FB7F8948181422F05
:104DB0004095842381838281282B2283EC91E923EF
:104DC000EC933FBF0895613009F43CCF623009F4A1
:104DD000D1CFA6CF002039F000C0E93150F4EE0F5A
:104DE000E650F94D0994E93120F4EE0FE45DF84DF9
:104DF00009940895289A0895299A08952A9A089559
:104E00002B9A08952F9A6AC0589A58C0599A0895B3
:104E10005A9A08955B9A0895469A66C0479A6AC05E
:104E20005E9A08955F9A6CC02C9A08952D9A4AC094
:104E30002E9A4EC08F9A08958E9A08958D9A08954D
:104E40008C9A0895899A0895889A08955C9A08958D
:104E50005D9A0895769A0895289808952998089556
:104E60002A9808952B9808952F9838C0589826C0EE
:104E7000599808955A9808955B980895469834C0B3
:104E8000479838C05E9808955F983AC02C98089566
:104E90002D9818C02E981CC08F9808958E9808954C
:104EA0008D9808958C980895899808958898089504
:104EB0005C9808955D98089576980895E4B5EF7D1F
:104EC000E4BD0895E0918000EF77E09380000895BD
:104ED000E0918000EF7DE09380000895E0918000F4
:104EE000E77FE09380000895E0919000EF77E093F2
:104EF00090000895E091C000EF77E093C00008951E
:104F0000E091C200E77FE093C2000895E93130F4F8
:104F1000EE0FEE0FFF27EE56F84D0994EE27089599
:104F2000E1E00895E3B1E170D9F70895E3B1E270EB
:104F3000B9F70895E3B1E47099F70895E3B1E87023
:104F400079F70895E3B1E07859F70895E9B1E17090
:104F500039F70895E9B1E27019F70895E9B1E470FD
:104F6000F9F60895E9B1E870D9F60895E6B1E0746C
:104F7000B9F60895E6B1E07899F60895E9B1E074DC
:104F800079F60895E9B1E07859F60895E3B1E07152
:104F900039F60895E3B1E07219F60895E3B1E074CB
:104FA00029F50895EFB1E07809F50895EFB1E074BF
:104FB000E9F40895EFB1E072C9F40895EFB1E0713A
:104FC000A9F40895EFB1E27089F40895EFB1E170AA
:104FD00069F40895E9B1E07149F40895E9B1E07226
:104FE00029F40895ECB1E07409F40895E1E008951E
:104FF000F89484B7877F84BF80916000806180933C
:1050000060001092600080E29EE40197F1F781E079
:105010008093E00080E28093D80080E69AEE0197CA
:10502000F1F781DD0C94003FFFCFF8947CDD80E642
:105030009AEE0197F1F70C940000FFCF8F938FB792
:105040008F93809107078D5F8D37D0F4809307078A
:10505000809108078F5F80930807D8F08091090737
:105060008F4F80930907A8F080910A078F4F809394
:105070000A0778F080910B078F4F80930B0709C0C8
:105080008D5780930707809108078E5F80930807EC
:1050900028F780910C078C5F80930C0758F0809163
:1050A0000D078F4F80930D0728F080910E078F4FCB
:1050B00080930E078F918FBF8F911895CF92DF92BB
:1050C000EF92FF926B017C0119D09B01C114D104B6
:1050D000E104F10471F012D0621B730B683E73405F
:1050E000A8F381E0C81AD108E108F10828513C4F23
:1050F000EDCFFF90EF90DF90CF9008950FB6F8942A
:1051000066B515B270910C0780910D0790910E074E
:105110000FBE10FE05C06F3F19F07C5F8F4F9F4F91
:1051200011240024660F001C660F001C70290895CE
:105130008091E80080FFFCCF08958091D80087FF20
:1051400002C085FF1BC081E08093D70080EA809376
:10515000D80082E189BD09B400FEFDCF80E98093CB
:10516000D8001092E00010922107109220071092B0
:105170001F071092E1008DE08093E20008951F92D6
:105180000F920FB60F9211242F933F934F935F937B
:105190006F937F938F939F93AF93BF93EF93FF93FF
:1051A0009091E1001092E10093FF11C01092E9008C
:1051B00081E08093EB001092EC0082E28093ED009E
:1051C00088E08093F0001092210710921F0792FF51
:1051D0001DC0809121078823C9F080911207882380
:1051E00059F0815080931207811106C084E08093AA
:1051F000E9008AE38093E80080911107882331F069
:10520000815080931107811101C0F2DE90FF0CC024
:1052100080E18093E2001092210781E080932007D3
:1052200080EA8093D80019BC80912007882379F008
:1052300094FF0DC082E189BD09B400FEFDCF80E975
:105240008093D8008DE08093E20010922007FF91B8
:10525000EF91BF91AF919F918F917F916F915F91EE
:105260004F913F912F910F900FBE0F901F90189567
:105270001F920F920FB60F921124EF92FF920F938D
:105280001F932F933F934F935F936F937F938F93CE
:105290009F93AF93BF93CF93EF93FF931092E90047
:1052A0008091E80083FF30C1C091F1008091F1004E
:1052B000E090F100F090F1000091F1001091F10008
:1052C0002091F1003091F10092EF9093E800863048
:1052D00009F03FC086E0EDE1F1E2459155914E15B0
:1052E0005F0511F0359615C045915591401751074E
:1052F00011F033960EC04591559184912F3F3105A1
:1053000019F010F02FEF30E0281708F4822F3EEF4D
:1053100008C0815011F7F8C0891B3093E80088233A
:10532000A9F09091E800292F2570D9F392FDEFC0E4
:10533000982F813208F090E2292F222369F3FA0195
:1053400045914093F100AF012150F7CF903249F3DE
:10535000DEC0853049F48EEF8093E800E9DE8E2DC3
:1053600080688093E300D3C0893001F5C111CCC0BF
:10537000E092210710921F07109212078EEF809380
:10538000E80081E0E0EEF1E28093E90095919093EE
:10539000EB00992331F095919093EC0095919093C7
:1053A000ED008F5F853081F78EE1A9C0883049F428
:1053B000C03809F0A9C0BCDE809121078093F100BC
:1053C0007DC0813279F4C13A09F09EC0B1DEE4E1DA
:1053D000F1E087E08E0F90819093F10031968E136B
:1053E000FACF6CC0803209F047C0C13209F08CC0DE
:1053F0008091E80082FFFCCFE4E1F1E087E08E0FCE
:105400009091F100908331968E13FACF8BEF8093B9
:10541000E8008EEF8093E80030911401409115016F
:10542000809116012091170190E0A0E0B0E0DC012E
:1054300099278827942B832BB22B86389105A105B9
:10544000B10521F48FE08093110761C08639910581
:10545000A105B10509F05BC084E08093E9009FEFEE
:105460008091EE00837039F09093E8008091E8001D
:1054700082FDFCCFF5CFD9DD823231F4C13209F0A3
:1054800043C0E0921F0704C0833221F4C132E1F52A
:105490004FDE14C0811116C04BDEC23851F40093A8
:1054A000E9008091EB0085FB882780F91092E900E4
:1054B00001C080E08093F1001092F1008EEF8093A4
:1054C000E80025C0982F9D7F9130F1F4C230E1F4BF
:1054D000EF28D1F40F779FEF900F9630A8F49EEF4E
:1054E0009093E8000093E900833071F089E18093A4
:1054F000EB0081E090E001C0880F0A95EAF7809305
:10550000EA001092EA0003C081E28093EB00FF9171
:10551000EF91CF91BF91AF919F918F917F916F91BB
:105520005F914F913F912F911F910F91FF90EF90BD
:105530000F900FBE0F901F9018958F929F92AF9271
:10554000BF92CF92DF92EF92FF920F931F93CF9370
:10555000DF9390E0880F991FFC01E454FF4D1491F4
:10556000FC01E354FF4D8491C82FD0E0662311F075
:10557000012F01C000E0CA01B90134E0660F771FB6
:10558000881F991F3A95D1F725E130E040E050E0BF
:105590005DD269017A01BA01A9014F5F5F4F6F4F78
:1055A0007F4F80E090E0DC0128812123201316C08A
:1055B0000196A11DB11D84179507A607B707A1F78E
:1055C0003DC0AC01BD014F5F5F4F6F4F7F4F8C15EA
:1055D0009D05AE05BF0591F1DB01CA01288121239C
:1055E0002013EFCF20E030E0A9010197A109B10914
:1055F00068816123601310C02F5F3F4F4F4F5F4F93
:105600004C015D01820E931EA41EB51E8C149D04D8
:10561000AE04BF0469F712C0A5E1B0E05BD2DC01C3
:10562000CB014396A11DB11DBC01CD0124E096958F
:105630008795779567952A95D1F703C060E070E06C
:10564000CB01DF91CF911F910F91FF90EF90DF90F1
:10565000CF90BF90AF909F908F90089585DA0E9471
:1056600028110E945211FDCFFC018FB7F894909140
:105670002107911102C090E010C093E09093E900DF
:105680009091F200911109C02091E80022FFF3CF20
:1056900025FDF1CF2BE62093E8008FBF20853185D3
:1056A00037FD03C09F3F09F09F5F892F90E0089569
:1056B000CF93DF93EC018885998597FF09C0E88136
:1056C000F9810680F781E02DCE01099599878887B9
:1056D00088859985DF91CF910895FC0120853185DA
:1056E00037FD07C04FEF5FEF51874087C90199270A
:1056F00008959FB7F89480912107882369F083E08B
:105700008093E9002BE68091E80085FD09C082FFC7
:1057100003C02093E800F7CF9FBF8FEF9FEF08955E
:105720008091F1002091E80025FD03C02BE6209335
:10573000E8009FBF90E00895DF92EF92FF920F93F1
:105740001F93CF93DF938C01EB0180912107882376
:1057500071F07FB7F89484E08093E900809110079E
:10576000882369F08091E80085FD07C07FBF81E054
:10577000F801828320E030E0D1C01092100720E0D1
:1057800030E064E080E4F82EA1EFB0E09AE3E92E87
:10579000E3E0DE2E4115510509F4BFC08091E4001D
:1057A000815F9091E80095FD16C07FBF9091E40065
:1057B000981304C081E08093100705C090912107E1
:1057C000911104C081E0F8018283A8C07FB7F894EA
:1057D0006093E900E6CF8091F2009F2D981BE92F9E
:1057E000F0E04E175F0708F4942FE92FF0E04E1B0E
:1057F0005F0B2E0F3F1FE0E4E91BE03428F4EE0FAF
:10580000FF27EB5FF34D099480C099919C93999188
:105810009C9399919C9399919C9399919C93999124
:105820009C9399919C9399919C9399919C93999114
:105830009C9399919C9399919C9399919C93999104
:105840009C9399919C9399919C9399919C939991F4
:105850009C9399919C9399919C9399919C939991E4
:105860009C9399919C9399919C9399919C939991D4
:105870009C9399919C9399919C9399919C939991C4
:105880009C9399919C9399919C9399919C939991B4
:105890009C9399919C9399919C9399919C939991A4
:1058A0009C9399919C9399919C9399919C93999194
:1058B0009C9399919C9399919C9399919C93999184
:1058C0009C9399919C9399919C9399919C93999174
:1058D0009C9399919C9399919C9399919C93999164
:1058E0009C9399919C9399919C9399919C93999154
:1058F0009C9399919C9399919C9399919C93999144
:105900009C9399919C9399919C938091E80085FF39
:10591000E092E800D09212073DCF7FBFC901DF912E
:10592000CF911F910F91FF90EF90DF9008952FEF8F
:105930003FEFFC013187208700DC0FB6F89480919F
:10594000080790910907A0910A07B0910B070FBEB5
:105950009C0180912107882329F068EC70E080E0A9
:1059600090E0ACCB80912007882301F10FB6F8942A
:105970008091080790910907A0910A07B0910B0741
:105980000FBE40912007442389F00FB6F894409150
:1059900008075091090760910A0770910B070FBE25
:1059A000481B590B4B3F510560F311C00FB6F894DB
:1059B0008091080790910907A0910A07B0910B0701
:1059C0000FBE821B930B853C994008F4C2CF08950B
:1059D0009FB7F89480912107882321F080911207C6
:1059E000811102C09FBF089584E08093E9008AE39B
:1059F0008093E80010921207F5CFEACFE3E1F7E0D9
:105A00008AE0DF011D928A95E9F788EE93E0A0E035
:105A1000B0E083839483A583B6838FE891E091837C
:105A200080830895AA1BBB1B51E107C0AA1FBB1F9F
:105A3000A617B70710F0A61BB70B881F991F5A951A
:105A4000A9F780959095BC01CD010895A1E21A2E89
:105A5000AA1BBB1BFD010DC0AA1FBB1FEE1FFF1F12
:105A6000A217B307E407F50720F0A21BB30BE40B62
:105A7000F50B661F771F881F991F1A9469F76095A9
:105A80007095809590959B01AC01BD01CF01089563
:105A9000052E97FB16F400940FD057FD05D0D6DFE6
:105AA00007FC02D046F408C05095409530952195EA
:105AB0003F4F4F4F5F4F089590958095709561953A
:105AC0007F4F8F4F9F4F0895EE0FFF1F0590F4916A
:105AD000E02D099409D0A59F900DB49F900DA49F2F
