:100000000C941E010C9446010C9446010C9446017C
:100010000C9446010C9446010C9446010C94460144
:100020000C9446010C9446010C94160B0C94960B00
:100030000C9446010C9446010C9446010C94460124
:100040000C9446010C9446010C9446010C94460114
:100050000C9446010C9446010C9446010C94CD017D
:100060000C9446010C9446010C9446010C944601F4
:100070000C9446010C9446010C9446010C944601E4
:100080000C9446010C9446010C9446010C944601D4
:100090000C9446010C9446010C9446010C944601C4
:1000A0000C9446010C9446010C9446018C12A1124A
:1000B000E91214132113C8142F155815A415BE15D1
:1000C0003516CB16EE162E176E17AE17B204B70400
:1000D000BC04C904D6042C052C052C05E304F0044B
:1000E000FD040A0517052C051F05F6060D07440734
:1000F00073079207AF07CC07FF07240827082A08D1
:100100002D08EB0DEE0DDD0DE10DE70D0F0E0F0EC1
:100110000F0EF20DF60DFA0D000E040E0F0E0A0E64
:10012000070605040100080A0B0C0D090000000079
:100130002300260029002C002F00000000002400CE
:1001400027002A002D0030000000000200090F00E7
:1001500000030401000C000000000000000000008B
:1001600000000000000000080B000202020100096C
:100170000400000102020000052400100105240112
:10018000010104240206052406000107058103106D
:10019000004009040100020A0000000705020240B5
:1001A0000000070583024000000403090441726453
:1001B00075696E6F204C4C430041726475696E6FB7
:1001C000204D6963726F001201000200000040417F
:1001D00023378000010102030112010002EF020136
:1001E000404123378000010102030104080201108D
:1001F0004080401020408040800802040180402060
:100200001002011080102040402000000000250056
:1002100028002B002E00310004040404040304050C
:100220000202020204030202020206060606060693
:100230000404020202040400DA18CA1811241FBEC2
:10024000CFEFDAE0DEBFCDBF11E0A0E0B1E0ECEF30
:10025000FBE302C005900D92A039B107D9F726E063
:10026000A0E9B1E001C01D92A03EB207E1F711E0A4
:10027000CDE1D1E004C02197FE010E94AE19CC313E
:10028000D107C9F70E949A0F0C94F11D0C9400003D
:1002900081E0809395040895209193013091940119
:1002A000FC013183208380EA08958FEF9FEF9093C4
:1002B0000A018093090110929403109299050C94FD
:1002C000A10ECF93C82F803C49F08B3D71F46BEDAC
:1002D0008CE496E00E94E7096DED08C06BED8CE4BC
:1002E00096E00E94E7096CED01C0682F8CE496E06F
:1002F0000E94E7098091E304C827C093E304CF91EB
:10030000089580919504882329F061E08DE00E9492
:10031000100E35C060E08DE00E94100E87E08093E3
:1003200093038BE090E09093B2068093B10684E64D
:1003300090E0A0E0B0E08093B6069093B706A0935B
:10034000B806B093B9068AE090E09093CB0680930C
:10035000CA061092CD061092CC061092B4061092E6
:10036000B3061092B50680E090E0A9E1B0E080937A
:10037000BE069093BF06A093C006B093C10681E06D
:1003800008952FB7F89460913C0670913D068091D6
:100390003E0690913F062FBF08951F920F920FB611
:1003A0000F9211242F933F938F939F93AF93BF93FB
:1003B00080913C0690913D06A0913E06B0913F068B
:1003C00030913B0623E0230F2D3720F40196A11D29
:1003D000B11D05C026E8230F0296A11DB11D209373
:1003E0003B0680933C0690933D06A0933E06B09357
:1003F0003F068091400690914106A0914206B0913F
:1004000043060196A11DB11D8093400690934106BD
:10041000A0934206B0934306BF91AF919F918F91F5
:100420003F912F910F900FBE0F901F9018958F92B4
:100430009F92AF92BF92CF92DF92EF92FF920F9373
:100440001F93CF93DF93FC01828193816817790713
:1004500008F04CC04A01AA24BB24B82DC32ED42EC8
:10046000E52EFF24AC2D922F8781882361F0889E92
:1004700040011124B92DC89E60011124AD2D289F83
:10048000E00111249D2FD584C285E084F184DC1223
:1004900008C09B01220F331F620F731F6E0D7F1D5B
:1004A00016C0660F771F660F771F6E0D7F1D052F15
:1004B000112722273327EB01CD0DD11D882329F0E9
:1004C000089F90011124232F01C0202F28838285AB
:1004D000EB01C80FD11DB8838385EB01C80FD11D77
:1004E000A8838485FB01E80FF11D9083DF91CF91F4
:1004F0001F910F91FF90EF90DF90CF90BF90AF9042
:100500009F908F900895CF92DF92EF92FF920F937A
:100510001F93CF93DF93CDB7DEB729970FB6F8942B
:10052000DEBF0FBECDBF8C01DC0118968D919C9172
:100530001997892B09F49EC00E947C0EF801C6848D
:10054000D784E088F188DC01CB018C199D09AE09C4
:10055000BF09C297A105B10578F3F894848195810C
:100560009A8389830084F185E02D7F01BFEFEB1A28
:10057000FB0A80818987F80190810288F389E02D48
:10058000D80154968C91992309F430C09081982B0E
:1005900098879081809589238F838F818C8388E0D1
:1005A0008B8358856F8149853B812C8189819A8114
:1005B000D701508347FD252F3A952083262F39F008
:1005C000441F00C000006083000000C0F2CF38E08C
:1005D0004D9160830000019761F7D8015396FC9319
:1005E000EE93529749873B832C833AC09081982B96
:1005F00098879081809589238F838F818E8388E06F
:100600008D8358856F8149853D812E8189819A81AD
:10061000D701508347FD252F00C000C0208300C0B4
:1006200000C000C000C000C060830000262F3A95C3
:1006300041F0441F000000C000C000C000C000C066
:10064000E8CF38E04D9100C0608300C0019709F702
:10065000D8015396FC93EE93529749873D832E839E
:100660009A83898378940E947C0EF8016687778745
:10067000808B918B29960FB6F894DEBF0FBECDBF4D
:10068000DF91CF911F910F91FF90EF90DF90CF906E
:100690000895CF92DF92FF920F931F93CF93DF9332
:1006A0001F92CDB7DEB7182F062F1092E30480916A
:1006B000990599830E946101F12EC12E9981D92E4D
:1006C0008C2D8F19801730F4F60181916F010E94F3
:1006D0006101F6CF8091E3040E94610160EC8CE43B
:1006E00096E00E94E7098091990591E0980F909318
:1006F00099050F90DF91CF911F910F91FF90DF909F
:10070000CF900895CF93DF9300D0CDB7DEB7898324
:100710006A8362E0CE0101960E9449030F900F9018
:10072000DF91CF9108958091090190910A019C0178
:100730002F5F3F4F2230310540F46AE08FE790E0B1
:100740000E9482032FEF3FEF0AC0029790930A01A5
:1007500080930901FC01E556FA4F20813181032E77
:10076000000C440B550B60E472E48FE090E00E94B3
:100770008F19209304013093050140930601509393
:100780000701089520910201309103012E3F3105A8
:100790002CF069E08FE790E00C948203F901EB56AE
:1007A000FC4F91832E5F3F4F309303012093020152
:1007B000F901EB56FC4F808308952091020130919E
:1007C00003012F3F310529F469E08FE790E00C9495
:1007D00082032F5F3F4F3093030120930201F90101
:1007E000EB56FC4F80830895809195040E94DD03B1
:1007F00081E008955093E8044093E7048093E60471
:10080000460F511D5093E5044093E404E091E70442
:10081000F091E8048091E4049091E504E817F90769
:10082000C9F0CF0101969093E8048093E704E0813A
:10083000F0E0EE0FFF1FEB56FE4F0190F081E02D30
:10084000309711F00995E2CF67E08FE790E00E94C2
:100850008203DCCF08958091090190910A018F3FB6
:100860002FEF920739F46AE08FE790E00E9482034D
:100870008FEF08959C012150310930930A01209394
:100880000901FC01E656FA4F80810895CF92DF926C
:10089000EF92FF920F931F93CF93DF93CDB7DEB705
:1008A000DA950FB6F894DEBF0FBECDBF0E942B04C1
:1008B00063E0680FC82E082E000CDD089CE79983C2
:1008C0009091E6049A838B837E0184E0E80EF11C0C
:1008D00000E010E00C151D0594F4C050DF4F688354
:1008E000C050D1400E942B04F70181937F010F5F1C
:1008F0001F4FC050DF4F6881C050D140EBCFCE01B9
:1009000001960E944903D3950FB6F894DEBF0FBE3F
:10091000CDBFDF91CF911F910F91FF90EF90DF90AE
:10092000CF900895CF93DF930E942B04D82F0E947D
:100930002B04C82F61E08D2F0E94400ECC2309F4B8
:100940008BC0ED2FF0E0E85BFE4FE4914E2F50E0BE
:10095000FA013197EF30F10508F07EC0EA59FF4FF8
:100960000C94AE1984B5806884BDC7BD7BC084B5C6
:10097000806284BDC8BD76C080918000806880930D
:1009800080000C2E000CDD0BD0938900C0938800F2
:1009900069C0809180008062809380000C2E000CE2
:1009A000DD0BD0938B00C0938A005CC080918000E7
:1009B0008860809380000C2E000CDD0BD0938D009E
:1009C000C0938C004FC0809190008068809390000D
:1009D0000C2E000CDD0BD0939900C093980042C000
:1009E000809190008062809390000C2E000CDD0BB3
:1009F000D0939B00C0939A0035C08091900088608E
:100A0000809390000C2E000CDD0BD0939D00C093C2
:100A10009C0028C08091C00080688093C0008091B5
:100A2000C0008F7B8093C000C093CF001BC080911B
:100A3000C00080628093C000C093D00013C080913A
:100A4000C20088608093C2008091C2008B7F809337
:100A5000C200C093D20006C060E08D2FDF91CF911D
:100A60000C94100EDF91CF910895CF930E942B0428
:100A7000C82F0E942B04682F8C2FCF910C94100E3E
:100A8000CF930E942B04C82F0E942B04682F8C2F19
:100A9000CF910C94400E2091090130910A012F3919
:100AA00031052CF069E08FE790E00C9482032E5F13
:100AB0003F4F30930A0120930901F901E756FA4F9D
:100AC000918380830895CF93DF930E942B0482311A
:100AD00008F08251E82FF0E0E05EFE4FE491809153
:100AE0007B00E3FB992790F9C92F90E0D92F95E07F
:100AF000CC0FDD1F9A95E1F78F7DC82BC0937B004B
:100B0000E770E064E0937C0080917A0080648093D9
:100B10007A0080917A0086FDFCCF80917800209148
:100B2000790090E0922BDF91CF910C944B052091AE
:100B3000090130910A01203A310529F469E08FE773
:100B400090E00C9482032F5F3F4F30930A01209373
:100B50000901F901E656FA4F80830895EF92FF925A
:100B60000F931F93CF93DF9383E0E82E85E0F82E59
:100B70000AEE14E08091E904482F50E098012A5EC3
:100B80003440241735079CF4C4E0D0E0F701EC0FA3
:100B9000FD1F80810E9497052197C0F7F801819180
:100BA0008F010E949705F6E0EF0EF11CE3CF982F1E
:100BB000990F890F880F0E949705DF91CF911F91A0
:100BC0000F91FF90EF900C9446040F931F93CF93D7
:100BD000DF932091E7043091E8048091E404909140
:100BE000E5042817390729F465E08FE790E00E94B3
:100BF0008203E091E704F091E804CF01019690931D
:100C0000E8048093E704C081D0E08E01015011090F
:100C10002091E7043091E8040F3F8FEF180739F077
:100C2000F901E00FF11F80810E949705EFCF6091DD
:100C3000E4047091E504C901AC01421B530B4C174D
:100C40005D078CF4019668177907B0F79093E80474
:100C50008093E70465E08FE790E0DF91CF911F91EB
:100C60000F910C9482039093E8048093E704DF9142
:100C7000CF911F910F91089581E00E9497050C94E8
:100C800046040F931F93CF930E942B04C82F0E94FA
:100C90002B042C2F30E0F901E551FE4F6491F9014E
:100CA000E85EFD4FE491882311F0462F01C040E03B
:100CB000F0E0EE0FFF1FE45DFE4F8591949100E49C
:100CC00012E42FE030E00E94550F61157105810597
:100CD000910539F0DC01CB010196A11DB11DBF705A
:100CE00003C080E090E0DC01CF911F910F910C9444
:100CF0009705CF93DF930E942B04282F30E0F90152
:100D0000E85BFE4F8491F901E551FE4FD491F90162
:100D1000E85EFD4FC491CC2379F081110E94D30D80
:100D2000EC2FF0E0EE0FFF1FE45DFE4FA591B491B4
:100D3000EC91ED2381E009F480E0DF91CF910C94F8
:100D400097051F93CF93DF93CDB7DEB7CF5FD10960
:100D50000FB6F894DEBF0FBECDBF182F482F50E05E
:100D60004D3F510534F064E08FE790E00E9482032C
:100D700010C08CE789838091E6048A831B83CE01AF
:100D800004960E94E61A63E0610FCE0101960E946C
:100D90004903C150DF4F0FB6F894DEBF0FBECDBF81
:100DA000DF91CF911F910895E0910001F091010131
:100DB000DF010D900020E9F7CD010197BF018E1BE7
:100DC0000C94A106CF93DF931F92CDB7DEB70E949C
:100DD0002B0480939303482F50E04C30510508F0CA
:100DE00072C1FA01EB58FF4F0C94AE191092B20683
:100DF0001092B10644E650E060E070E04093B60621
:100E00005093B7066093B8067093B9062AE030E0B5
:100E10003093CB062093CA064CC126E030E03093D5
:100E2000B2062093B10644E650E060E070E04093E3
:100E3000B6065093B7066093B8067093B90642E3BE
:100E400050E060E070E04093BE065093BF066093B0
:100E5000C0067093C1061092C2061092C30610928B
:100E6000C4061092C5061092CD061092CC061092C0
:100E7000B4061092B30620919E0630919F063093DF
:100E8000CB062093CA061DC127E030E03093B2069E
:100E90002093B1064BE450E060E070E04093B6066A
:100EA0005093B7066093B8067093B90640E850E0D7
:100EB000BA014093BE065093BF066093C00670937C
:100EC000C1061092CD061092CC061092B406109274
:100ED000B30625E030E03093CB062093CA0691E0BC
:100EE0009093B506F0C022E030E03093B206209334
:100EF000B10644E650E060E070E04093B6065093DF
:100F0000B7066093B8067093B90620919E0630919B
:100F10009F063093CB062093CA0640E050E060E87D
:100F200070E0B7C028E030E03093B2062093B106FD
:100F300044E650E060E070E04093B6065093B70698
:100F40006093B8067093B9062AE030E03093CB0680
:100F50002093CA0640E059E96FEF70E06CC029E0C9
:100F600030E03093B2062093B10644E650E060E0F2
:100F700070E04093B6065093B7066093B80670933E
:100F8000B9062AE030E03093CB062093CA0640E051
:100F90005BE460E070E07DC02AE030E03093B206B0
:100FA0002093B10644E650E060E070E04093B6065E
:100FB0005093B7066093B8067093B9063093CB068A
:100FC0002093CA064093BE065093BF066093C006A6
:100FD0007093C1064FEF5FEF6FEF70E04093C20672
:100FE0005093C3066093C4067093C5061092C6065C
:100FF0001092C7061092C8061092C9065AC02BE07C
:1010000030E03093B2062093B10644E650E060E051
:1010100070E04093B6065093B7066093B80670939D
:10102000B9062AE030E03093CB062093CA0642E3AB
:1010300050E060E070E04093BE065093BF066093BE
:10104000C0067093C10635C02CE030E008C02DE02A
:1010500030E005C02EE030E002C02FE030E03093F9
:10106000B2062093B10644E650E060E070E04093A1
:10107000B6065093B7066093B8067093B9062AE097
:1010800030E03093CB062093CA0642E350E060E0A4
:1010900070E04093BE065093BF066093C006709305
:1010A000C1061092C2061092C3061092C406109296
:1010B000C5061092CD061092CC061092B40610927E
:1010C000B3061092B5068983BE016F5F7F4F81E042
:1010D0000E94A1060F90DF91CF910895CF93DF93E7
:1010E0001F92CDB7DEB7809193038983BE016F5FF6
:1010F0007F4F81E00E94A1060F90DF91CF9108956C
:101100008F929F92AF92BF92CF92DF92FF920F93F6
:101110001F93CF93DF934C018B01F090E904CF2D07
:10112000D0E093E0A92E95E0B92EC12CD12CCC169D
:10113000DD067CF446E050E0B401C5010E94EF1AE0
:1011400026E0A20EB11C892BC9F08FEFC81AD80A6D
:10115000EECF26E02C9FC0012D9F900D112446E07C
:1011600050E0B4018D5F9A4F0E94FD1AF394F09203
:10117000E904C651DB4F809108018883E0910801A2
:10118000F0E0EE0FFF1FEB56FE4F80819181892B1F
:1011900019F41183008305C066E08FE790E00E9498
:1011A00082038091080191E0980F90930801DF91EC
:1011B000CF911F910F91FF90DF90CF90BF90AF9094
:1011C0009F908F9008950F931F93CF93DF93CDB788
:1011D000DEB7CF5FD1090FB6F894DEBF0FBECDBF2B
:1011E000FC0101900020E9F731978F01081B190BD2
:1011F000A80155274E3F510530F064E08FE790E09D
:101200000E9482030EC02DE729830A83BC01CE0110
:1012100003960E94E61A62E0600FCE0101960E94DA
:101220004903C150DF4F0FB6F894DEBF0FBECDBFEC
:10123000DF91CF911F910F910895409147065091F2
:101240004806209145063091460642175307B4F4EC
:101250009091E8009570E1F39091E80092FD19C03B
:101260008093F100809147069091480601968F7314
:101270009927892B19F48EEF8093E8008091470617
:10128000909148060196909348068093470681E026
:10129000089580E00895CF92DF92EF92FF920F932E
:1012A0001F93CF93DF931F92CDB7DEB7182F062F72
:1012B000E42E862F880F8E5F99830E941D0983E09C
:1012C0000E941D09F12EC12E9981D92E8C2D8F19C6
:1012D000801798F4F601E7FE02C0849101C0808176
:1012E0000E941D09182F80E00E941D098123FFEF35
:1012F000CF1ADF0A8111EACF01C081E00F90DF91A0
:10130000CF911F910F91FF90EF90DF90CF900895B4
:10131000DF92EF92FF920F931F93CF93DF93D82E1C
:101320008A017B01E40EF51EEB01CE15DF0571F09D
:10133000D7FE03C0FE01849101C088810E941D096F
:1013400021968111F2CF8FEF9FEF01C0C801DF918D
:10135000CF911F910F91FF90EF90DF900895615012
:1013600030F02091F100FC0120830196F8CF289AFB
:1013700084E680934A060895CF92DF92EF92FF921F
:101380000F931F93CF93DF936C017A018B01C0E021
:10139000D0E0CE15DF0589F0D8016D918D01D60121
:1013A000ED91FC910190F081E02DC6010995892B0A
:1013B00011F47E0102C02196ECCFC701DF91CF91DD
:1013C0001F910F91FF90EF90DF90CF900895CF93F2
:1013D000DF931F92CDB7DEB76983DC01ED91FC91FD
:1013E0000280F381E02D41E050E0BE016F5F7F4F4E
:1013F00009950F90DF91CF910895FC018485958523
:1014000097FD0BC09FB7F89482E08093E90080912C
:10141000F2009FBF90E0019608959FB7F89482E094
:101420008093E9008091F2009FBF90E008950E94B0
:10143000E11A0C94A10E0F931F93CF93DF931F9289
:10144000CDB7DEB782E0898342E450E067E671E021
:1014500080E80E9488090E94410FDC0112960D91DC
:101460001C9113970115110569F0D801ED91FC91BC
:101470000280F381E02DBE016F5F7F4FC8010995A7
:1014800097FF07C089810F90DF91CF911F910F9136
:101490000895F80100851185E5CF8F929F92AF9254
:1014A000BF92CF92DF92EF92FF920F931F93CF9351
:1014B000DF935C016B018A0180911601882309F496
:1014C00059C080914B06882309F454C08091910142
:1014D00080FF05C08091E00082608093E000E80119
:1014E0008AEFF82E93E0E92E2FE3822E3AE3932E33
:1014F0002097C9F18FB7F894E092E9009091E80045
:1015000095FF06C09091F200282D291B922F01C053
:1015100090E08FBF911106C0FA94FF2059F10E940C
:10152000270FE6CF292F30E0C217D3070CF49C2FEA
:101530008FB7F894E092E9002091E80025FF11C0F0
:10154000292F30E0C21BD30BF601915020F04191BE
:101550004093F100FACFC20ED31E9091E80095FFA0
:1015600013C08FBFC5CF5D9A84E6809349061016DD
:10157000110644F081E090E0F5019383828380E0DE
:1015800090E005C0C80103C09092E800EACFDF9167
:10159000CF911F910F91FF90EF90DF90CF90BF9070
:1015A000AF909F908F900895CF93DF931F92CDB708
:1015B000DEB7FC018485958597FD05C02FEF3FEFD1
:1015C000358724870BC0CE0101960E94FD0E01973E
:1015D00019F4898190E002C08FEF9FEF0F90DF91A7
:1015E000CF9108950F931F93CF93DF931F92CDB7A1
:1015F000DEB78C01FC018485958597FF0EC0CE0176
:1016000001960E94FD0E019719F4298130E002C075
:101610002FEF3FEFF80135872487F8018485958502
:101620000F90DF91CF911F910F9108951F920F920C
:101630000FB60F9211242F933F934F935F936F93A5
:101640007F938F939F93AF93BF93CF93EF93FF932A
:10165000C091E1008091E100837F8093E100C3FFAE
:101660000FC01092E90081E08093EB001092EC0033
:1016700082E38093ED0010924B0688E08093F000A7
:10168000C2FF18C00E94A10E80914906882339F03C
:1016900080914906815080934906882389F1809181
:1016A0004A06882339F080914A06815080934A0681
:1016B000882341F1C4FF10C08091E2008E7E8160DA
:1016C0008093E2008091E1008F7E8093E100809121
:1016D00091018E7E806111C0C0FF16C08091E20032
:1016E0008E7E80618093E2008091E1008E7E809307
:1016F000E100809191018E7E81608093910104C010
:101700005D98CDCF2898D6CFFF91EF91CF91BF9123
:10171000AF919F918F917F916F915F914F913F9189
:101720002F910F900FBE0F901F9018951F920F9240
:101730000FB60F921124CF92DF92EF92FF920F9388
:101740001F932F933F934F935F936F937F938F9349
:101750009F93AF93BF93EF93FF93CF93DF93CDB757
:10176000DEB76C97DEBFCDBF1092E9008091E80034
:1017700083FFFAC168E0CE0145960E94AF0982EF6F
:101780008093E8008D8987FF05C09091E80090FF65
:10179000FCCF03C09EEF9093E800982F907609F05D
:1017A000C6C09E892F89188D91110CC0803829F4EC
:1017B000809192018093F10002C01092F10010928A
:1017C000F10047C1422F50E0512B913051F481116B
:1017D00040C14130510509F03CC1809192018D7F9B
:1017E0000BC0933061F4811134C14130510509F0CF
:1017F00030C1809192018260809392012AC195301C
:1018000041F48091E80080FFFCCF20682093E30042
:1018100020C1963009F05FC0EB8CFC8C1092E9007F
:101820001092480610924706123091F51092460623
:10183000109245060E941B0A99E0BE016F5F7F4F20
:10184000DB01E92F1D92EA95E9F799831A8391E06C
:101850009E8390EA98879AEF998720914706309166
:101860004806275F3F4F3C832B838D831092E9000E
:101870001092480610924706F0924606E0924506FE
:1018800049E050E080E00E9488090E941B0AE1C004
:10189000F0924606E09245060E94410FDC01129646
:1018A000ED90FC901397E114F10409F4C0C0D70146
:1018B000ED91FC910480F581E02DBE016B5E7F4FC0
:1018C000C7010995009719F00CF0C3C0C6C0F70115
:1018D000E084F184E8CF973009F4BFC0983021F458
:1018E00081E08093F100B5C0993009F0B2C08370F7
:1018F00009F0B3C0EEE1F1E081E021E036E3908150
:10190000992361F08093E9002093EB0091919093EB
:10191000EC003093ED008F5F873089F78EE780937E
:10192000EA001092EA008F8980934B0692C08B8D5B
:101930009C8D1092E90010924806109247069093F1
:10194000460680934506898D811156C08E899D89F2
:10195000913A59F4813209F080C047E050E06FE0DD
:1019600071E080E00E94880974C0913209F075C06E
:10197000833289F4888D90E0982F88272F89822BD5
:10198000A0E0B0E080930B0190930C01A0930D01B7
:10199000B0930E015EC0803269F48091E80082FF4E
:1019A000FCCF67E08FE091E00E94AF098BEF80935E
:1019B000E80006C0823209F04CC08F89809316017E
:1019C00080919001882319F0EEEFFAE002C0E0E088
:1019D000F8E080910F0190911001A0911101B09158
:1019E0001201803B9440A105B10509F088C08091A7
:1019F000160180FFA0C083C00E94410FDC01129637
:101A00000D911C9113970115110539F1D801ED9134
:101A1000FC910190F081E02DBE016B5E7F4FC8010B
:101A20000995811116C0F80100851185ECCF1130A0
:101A3000C1F0133091F48F89882309F455C08230A6
:101A4000E9F440E86DE089EB91E00E944B098823BE
:101A500021F08EEF8093E80087C081E28093EB0055
:101A600083C08B8D9C8D089711F410934406809150
:101A70004406811136C067EC71E038C0813029F42A
:101A800040E86BE08DEA91E0E0CF833031F70E94CF
:101A9000410FDC011296ED90FC9013978E010F5FC1
:101AA0001F4F6801E114F10479F0D701ED91FC9129
:101AB0000680F781E02DB801C7010995080F111DB7
:101AC000F701E084F184EECFD8011C92F601019079
:101AD0000020E9F73197BF016C197D0940E0C6018C
:101AE000B4CF69ED71E002C069EA71E0611571057A
:101AF00009F4B3CFFB01449150E080E833CF0FB637
:101B0000F894A8958091600088618093600010929D
:101B100060000FBEA895EE3F2AE0F20739F08091F1
:101B2000FE0A9091FF0A9183808393CF1092FF0A5F
:101B30001092FE0A8ECFEE3F8AE0F80731F08081E6
:101B400091819093FF0A8093FE0A87E797E791833C
:101B500080839BE088E10FB6F894A895809360009D
:101B60000FBE9093600075CF6C960FB6F894DEBFF1
:101B70000FBECDBFDF91CF91FF91EF91BF91AF919C
:101B80009F918F917F916F915F914F913F912F9195
:101B90001F910F91FF90EF90DF90CF900F900FBEAD
:101BA0000F901F90189590E0FC013197EF30F105F0
:101BB000B0F5EF57FF4F0C94AE19809180008F77EE
:101BC00003C0809180008F7D809380000895809174
:101BD0008000877FF9CF84B58F7702C084B58F7D71
:101BE00084BD0895809190008F7707C08091900008
:101BF0008F7D03C080919000877F8093900008952F
:101C00008091C0008F7703C08091C0008F7D80934A
:101C1000C00008958091C200877F8093C20008951C
:101C20001F93CF93DF93282F30E0F901E85BFE4F3D
:101C30008491F901E551FE4FD491F901E85EFD4F21
:101C4000C491CC23C9F0162F81110E94D30DEC2F23
:101C5000F0E0EE0FFF1FE65FFD4FA591B4918FB747
:101C6000F894111105C09C91ED2FE095E92302C075
:101C7000EC91ED2BEC938FBFDF91CF911F910895E5
:101C8000CF93DF9390E0FC01E551FE4F2491FC01DE
:101C9000E85EFD4F8491882361F190E0880F991FE1
:101CA000FC01E65CFE4FC591D491FC01E65FFD4F5F
:101CB000A591B491611109C09FB7F89488812095CE
:101CC00082238883EC912E230BC0623061F49FB78E
:101CD000F8943881822F809583238883EC912E2B72
:101CE0002C939FBF06C08FB7F894E8812E2B2883D2
:101CF0008FBFDF91CF9108953FB7F8948091400650
:101D000090914106A0914206B091430626B5A89B4A
:101D100005C02F3F19F00196A11DB11D3FBFBA2F7D
:101D2000A92F982F8827820F911DA11DB11DBC01DD
:101D3000CD0142E0660F771F881F991F4A95D1F7A2
:101D4000089583E08093E9008091F200882319F0E0
:101D50008AE38093E80008952091B3063091B40699
:101D60008091CC069091CD06232B11F5019690938E
:101D7000CD068093CC062091CA063091CB068217FF
:101D80009307D0F18091B506882369F081E090E057
:101D90009093B4068093B306215031093093CD0659
:101DA0002093CC0608951092CD061092CC061DC04B
:101DB00001979093CD068093CC06892BE9F480910E
:101DC000B506882349F01092B4061092B30610921B
:101DD000CD061092CC0608958091CA069091CB064C
:101DE00001979093CD068093CC06E091CE06F091BA
:101DF000CF06309709F009940895FC0180914B06B5
:101E0000811103C08FEF9FEF08959FB7F89482E090
:101E10008093E9002091F20030E01216130614F4CA
:101E200021E030E02115310559F0289A84E68093AD
:101E30004A068091F10080838091F200882319F096
:101E40009FBFC90108958BE68093E800F9CFCF9238
:101E5000DF92EF92FF920E947C0E6B017C010E9448
:101E60007C0EDC01CB018C199D09AE09BF09883EAF
:101E70009340A105B10598F3FF90EF90DF90CF90CC
:101E800008958091D40681110DC082E08093D00620
:101E900084E08093D1061092D3061092D20681E09E
:101EA0008093D40680ED96E00895CF92DF92EF9272
:101EB000FF920F931F93E82FF92F05C001501109CE
:101EC0002109310961F1908196239417B9F305C076
:101ED000015011092109310911F1908196239413C0
:101EE000F7CFC12CD12CE12CF12C0AC08FEFC81AEE
:101EF000D80AE80AF80A0C151D052E053F0579F0E9
:101F000080818623841791F36C2D7D2D8E2D9F2D3E
:101F10001F910F91FF90EF90DF90CF90089560E0B8
:101F200070E080E090E01F910F91FF90EF90DF90C4
:101F3000CF900895CF93DF93CDB7DEB7C550D14092
:101F40000FB6F894DEBF0FBECDBF789484B5826023
:101F500084BD84B5816084BD85B5826085BD85B54D
:101F6000816085BD80916E00816080936E001092CB
:101F70008100809181008260809381008091810046
:101F800081608093810080918000816080938000D7
:101F90008091910082608093910080919100816096
:101FA0008093910080919000816080939000809157
:101FB000C10084608093C1008091C10082608093E1
:101FC000C1008091C10081608093C1008091C300F5
:101FD00081608093C3008091C00082608093C000C4
:101FE0008091C20081608093C20080917A008460F9
:101FF00080937A0080917A00826080937A00809149
:102000007A00816080937A0080917A008068809362
:102010007A0010924B0610929201109291018091D9
:10202000D70081608093D70080EA8093D80089B57B
:10203000806189BD89B5826089BD09B400FEFDCF8C
:102040000E94270F8091D8008F7C80618093D800F8
:102050008091E000807F8093E0008091E1008E7E9F
:102060008093E1008DE08093E200559A209A5D987C
:102070002898EEEFFFE7859194918B3F9C4D19F4E2
:1020800081E0809390010FB6F894A895809160004C
:10209000886180936000109260000FBE84E391E03D
:1020A000909301018093000180919E0490919F0480
:1020B000892B71F480EA90E00E94B4199093940106
:1020C000809393018CE491E090939F0480939E040D
:1020D0008FEF9FEF90935906809358060E94A10EB0
:1020E0008FEFE5E9F1E0DF011D928A95E9F785EED2
:1020F00095E090939601809395018EEA95E09093F8
:102100009801809397018CE396E090939A018093D5
:10211000990186E494E090939C0180939B0184ED67
:1021200096E090939E0180939D0185E591E09093C8
:102130008A02809389028AEF93E0909398048093B7
:10214000970460E475E08EE491E00E94800869E7FE
:1021500076E08EE491E00E94800865E375E08EE40D
:1021600091E00E94800863E675E08EE491E00E94B1
:10217000800862E974E08EE491E00E94800861E4E6
:1021800076E08EE491E00E94800863E973E084E5E4
:1021900091E00E94800868E471E084E591E00E948B
:1021A000800881E090E00E944B050E94930380919B
:1021B000AE049091AF04FC01EE0FFF1FE055FB4F02
:1021C00024EF33E0318320839C012E5F3F4F309317
:1021D000AF042093AE04880F991FFC01EE54FB4F0F
:1021E00081E891E09183808362EE76E08AE591E078
:1021F0000E9480086EE678E08AE591E00E948008FF
:102200008091A20687FD08C061E00E94400E60E058
:102210008091A2060E94100E81E080939D0610928C
:1022200093031092B2061092B10684E690E0A0E00B
:10223000B0E08093B6069093B706A093B806B0932B
:10224000B9068AE090E09093CB068093CA0610927C
:10225000CD061092CC061092B4061092B3061092DE
:10226000B50661E08DE00E94400EFE0131963F010F
:102270009DE088E10FB6F894A895809360000FBEAA
:102280009093600011E08CE496E00E94FD09892B98
:1022900009F44FC08CE496E00E94D40A082F809184
:1022A00096048823B1F00C3D81F00D3D11F40BED47
:1022B0000DC061E08EE790E00E94820323E030E0F1
:1022C0003093A6042093A50401C000EC109296045C
:1022D0002AC00B3D19F410939604D5CF003C19F594
:1022E0008091A5049091A6048130910549F003974F
:1022F00071F4109299041092A6041092A5047FC65E
:1023000082E090E09093A6048093A50478C663E0F1
:102310008EE790E00E948203A3E0B0E0B093A604B1
:10232000A093A5046CC6809199048027809399049A
:1023300066C68091E204882329F08091E20481112D
:1023400032C0B6C08091E0049091E1040196909370
:10235000E1048093E00481E08093E20410EBE12E3D
:1023600014E0F12E00ED14E02091AE043091AF04A2
:10237000C801805D944082179307FCF6F8018081C4
:1023800081110BC0A895D701ED91FC910995F80139
:102390008083811102C01092E204F2E0EF0EF11C82
:1023A0000F5F1F4FE1CF8091AD04811105C01092E6
:1023B000950481E08093AD040E947C0E4B015C018A
:1023C0004091A9045091AA046091AB047091AC04AF
:1023D0008091A7049091A80484169506A606B706D6
:1023E00008F461C00E94C2038091E0049091E1046E
:1023F0000E94C2038BE70E94DD03D0900201D394B8
:102400008301ED2CF12CC801861997098E159F05C3
:10241000F4F480910201909103018F3F2FEF920716
:1024200039F46AE08FE790E00E9482038FEF0BC0DF
:102430009C01215031093093030120930201FC01DA
:10244000EB56FC4F8081D8018D938D01DCCF6D2D33
:10245000C3010E9449038091040190910501A0915C
:102460000601B0910701880E991EAA1EBB1E80921C
:10247000A9049092AA04A092AB04B092AC0410926A
:10248000E1041092E0041092A8041092A7041092A4
:10249000AD04E0EDF4E01192B4E0E03EFB07D9F7C3
:1024A0001092E20405C001969093A8048093A704BB
:1024B0000E94C1010091BA061091BB062091BC0692
:1024C0003091BD06DC01CB01801B910BA20BB30B3D
:1024D0000091B6061091B7062091B8063091B90662
:1024E000081719072A073B0708F081C50E94C10198
:1024F0006093BA067093BB068093BC069093BD06AA
:10250000E091B106F091B206E031F10508F06FC537
:10251000EA5AFF4F0C94AE1900E010E080919E063D
:1025200090919F060817190708F05BC520E030E07E
:10253000A901B8018CE996E00E9417020F5F1F4FB6
:10254000EDCFE12CF12C00E010E060919E0670913F
:102550009F060617170708F044C5C7010E945919BE
:102560002091CC06620F6095653568F4262F220F06
:10257000620F862F8095462F50E060E070E09A0150
:10258000AB01482B1DC06A3A58F46555862F880F59
:10259000860F282F2095422F50E060E070E00DC09C
:1025A0006A5A262F220F620F862F8095462F50E001
:1025B00060E070E0BA01552744279A01AB01382B3F
:1025C000B8018CE996E00E9417020F5F1F4FF39449
:1025D000BCCF00E010E080919E0690919F06081706
:1025E000190708F0FEC48091CC069091CD06800FAB
:1025F000911F80FD09C02091BE063091BF06409119
:10260000C0065091C10608C02091C2063091C30691
:102610004091C4065091C506B8018CE996E00E942D
:1026200017020F5F1F4FD7CF2091BE063091BF0614
:102630004091C0065091C1066091CC067091CD06C4
:10264000CCC4CC5FDE4F19821882C450D140CE5F1B
:10265000DE4F19821882C250D140812C912C80917A
:102660009E0690919F068816990608F0BAC420919C
:10267000CC063091CD068216930649F08091CA06A9
:102680009091CB06821B930B8816990649F42091F2
:10269000BE063091BF064091C0065091C10655C19B
:1026A0002091A906A090A6060091A4061091A50667
:1026B000C090A306822F90E0F091A706C050DF4F94
:1026C000F883C050D1403091A806CF5FDE4F3883E9
:1026D000C150D1402A117AC0CC5FDE4FA881B981A8
:1026E000C450D1400A0F1B1FCC2009F44CC0D12C80
:1026F000E12CF12CF801E80FF91F608170E0762FD2
:102700006627072E000C880B990BA70196010E94E3
:102710006D19290133242224F801C050DF4FB881FC
:10272000C050D140EB0FF11D608170E0762F66271D
:10273000072E000C880B990BA70196010E946D19BA
:10274000B42FA32F922F8827282A392A4A2A5B2AB6
:10275000F801CF5FDE4F2881C150D140E20FF11D5B
:10276000608170E0762F6627072E000C880B990B8E
:10277000A70196010E946D1972016101C22AD32A34
:10278000E42AF52AB8C0F801E80FF91F8081F801A2
:10279000C050DF4F3881C050D140E30FF11D208081
:1027A000422D50E060E070E0762F652F542F4427D3
:1027B000682BF801CF5FDE4F8881C150D140E80F10
:1027C000F11D80816A017B01C82A95C0CE5FDE4F72
:1027D000A881B981C250D1400A0F1B1FB12CCC2057
:1027E00009F463C0D12CE12CF12CF801E80FF91F9A
:1027F000608170E0762F6627072E000C880B990BFE
:10280000A70196010E946D19522E442433242224DC
:10281000F801EA0DFB1D608170E0762F6627072E18
:10282000000C880B990BA70196010E946D19D90124
:1028300099278827282A392A4A2A5B2AF801CF5F54
:10284000DE4FB881C150D140EB0FF11D608170E0C7
:10285000762F6627072E000C880B990BA70196018F
:102860000E946D19222A332A442A552AF801C050A1
:10287000DF4F2881C050D140E20FF11D608170E030
:10288000762F6627072E000C880B990BA70196015F
:102890000E946D19B42FA32F922F88277201610116
:1028A000C82AD92AEA2AFB2A26C0F801E80FF91F0C
:1028B0008081F801EA0DFB1D2080422D50E060E090
:1028C00070E0BA0155274427782BF801CF5FDE4F1F
:1028D0003881C150D140E30FF11D8081482BF801B0
:1028E000C050DF4F8881C050D140E80FF11D80817A
:1028F0006A017B01D82A2E2D30E035952795C90134
:10290000330FAA0BBB0BBC01552744278D2D90E03C
:1029100095958795092E000CAA0BBB0BBA2FA92FF2
:10292000982F8827842B952BA62BB72B2C2C312C5A
:10293000910135952795A901330F660B770B9A0105
:10294000AB01282B392B4A2B5B2BB4018CE996E089
:102950000E9417029FEF891A990ACE5FDE4FA88165
:10296000B981C250D1401496CE5FDE4FB983A8839F
:10297000C250D140CC5FDE4FE881F981C450D140D4
:102980003396CC5FDE4FF983E883C450D14067CEE5
:102990004091BE063091BF065091C006E091CA0634
:1029A000F091CB060091CC061091CD067F01E01A84
:1029B000F10A2091C206D090C3068091C406809F80
:1029C000B001819F700D11245E9DC0015F9D900D2F
:1029D0001124860F971FBF010E945919C62ED09E41
:1029E000D001D19EB00D11243E9DC0013F9D900DA0
:1029F00011248A0F9B1FBF010E945919862E912C0A
:102A0000A12CB12CBA2CA92C982C8824AC28209F5E
:102A1000C001219F900D11244E9D90014F9D300DBE
:102A20001124820F931FBF010E945919862A00E0CA
:102A300010E080919E0690919F060817190750F4A8
:102A4000A5019401B8018CE996E00E9417020F5F7E
:102A50001F4FEFCF8CE996E00E948302C2C200E0D4
:102A600010E0E0919E06F0919F060E171F0708F0F8
:102A7000B8C22091CC063091CD06C901BF010E9499
:102A800059190817190709F46CC3C9010196BF0148
:102A90000E9459190817190709F463C3C90102965E
:102AA000BF010E9459190817190709F063C359C3D8
:102AB00000E010E080919E0690919F06081719078C
:102AC00080F42091BE063091BF064091C00650911F
:102AD000C106B8018CE996E00E9417020F5F1F4FF4
:102AE000E9CF8091CC0614E1189F100D11241F5FCF
:102AF0006091A306161709F474C22091A4063091C0
:102B0000A506615049F0812F90E0982F8827019702
:102B100070E00E94591902C060E070E0F901409134
:102B2000A0065091A106CF01821B930B8417950735
:102B300040F44081469FC001479F900D112491931E
:102B4000EECF1093A3064DC200E010E080919E06E8
:102B500090919F060817190708F043C22091BE06FE
:102B60003091BF064091C0065091C106B8018CE972
:102B700096E00E9417020F5F1F4FE8CF00E010E0C1
:102B800080919E0690919F060817190780F4209166
:102B9000C2063091C3064091C4065091C506B801E3
:102BA0008CE996E00E9417020F5F1F4FE9CF8091DA
:102BB000CC069091CD06079700F12091BE0630918A
:102BC000BF064091C0065091C10662E070E08CE9FA
:102BD00096E00E9417022091BE063091BF064091F8
:102BE000C0065091C10660919E0670919F0662508A
:102BF00071098CE996E00E9417028091CC069091B1
:102C0000CD06059700F12091BE063091BF06409198
:102C1000C0065091C10661E070E08CE996E00E9428
:102C200017022091BE063091BF064091C006509118
:102C3000C10660919E0670919F06615071098CE9F2
:102C400096E00E9417028091CC069091CD060397E2
:102C500008F4C7C12091BE063091BF064091C0065E
:102C60005091C10660E070E0B8C100E010E08091D2
:102C70009E0690919F060817190780F42091C606BA
:102C80003091C7064091C8065091C906B8018CE939
:102C900096E00E9417020F5F1F4FE9CF2091BE06FA
:102CA0003091BF064091C0065091C10662E070E0CD
:102CB0008CE996E00E9417022091BE063091BF0673
:102CC0004091C0065091C10660919E0670919F068A
:102CD000625071098CE996E00E9417022091C206A9
:102CE0003091C3064091C4065091C50666E070E07D
:102CF0008CE996E00E9417022091C2063091C3062B
:102D00004091C4065091C50660919E0670919F0641
:102D1000665071098CE996E00E9417022091C20664
:102D20003091C3064091C4065091C50667E070E03B
:102D30008CE996E00E9417022091C2063091C306EA
:102D40004091C4065091C50660919E0670919F0601
:102D5000675071098CE996E00E9417022091C20623
:102D60003091C3064091C4065091C50668E070E0FA
:102D70008CE996E00E9417022091C2063091C306AA
:102D80004091C4065091C50660919E0670919F06C1
:102D90006850710922C12091BE063091BF06409152
:102DA000C0065091C10660E070E08CE996E00E9498
:102DB000170201E010E080919E0690919F0608178F
:102DC000190708F00EC120E030E0A901B8018CE934
:102DD00096E00E9417020F5F1F4FEDCF00E010E05A
:102DE00080919E0690919F060817190780F4209104
:102DF000C2063091C3064091C4065091C506B80181
:102E00008CE996E00E9417020F5F1F4FE9CF2091D7
:102E1000BE063091BF064091C0065091C10663E0E6
:102E200070E08CE996E00E9417022091BE06309176
:102E3000BF064091C0065091C10664E070E08CE985
:102E400096E00E9417022091BE063091BF06409185
:102E5000C0065091C10665E070E0BFC000E010E020
:102E600080919E0690919F060817190780F4209183
:102E7000C2063091C3064091C4065091C506B80100
:102E80008CE996E00E9417020F5F1F4FE9CF209157
:102E9000BE063091BF064091C0065091C1066DE05C
:102EA00070E08CE996E00E9417022091BE063091F6
:102EB000BF064091C0065091C1066CE070E08CE9FD
:102EC00096E00E9417022091BE063091BF06409105
:102ED000C0065091C1066BE070E07FC000E010E0DA
:102EE00080919E0690919F060817190780F4209103
:102EF000C2063091C3064091C4065091C506B80180
:102F00008CE996E00E9417020F5F1F4FE9CF2091D6
:102F1000BE063091BF064091C0065091C10661E0E7
:102F200070E08CE996E00E9417022091BE06309175
:102F3000BF064091C0065091C10660E070E08CE988
:102F400096E00E9417022091BE063091BF06409184
:102F5000C0065091C1066FE070E03FC000E010E095
:102F600080919E0690919F060817190780F4209182
:102F7000C2063091C3064091C4065091C506B801FF
:102F80008CE996E00E9417020F5F1F4FE9CF209156
:102F9000BE063091BF064091C0065091C10667E061
:102FA00070E08CE996E00E9417022091BE063091F5
:102FB000BF064091C0065091C10668E070E08CE900
:102FC00096E00E9417022091BE063091BF06409104
:102FD000C0065091C10669E070E08CE996E00E945D
:102FE00017028CE996E00E9483020E94AC0E80E0FA
:102FF00090E0892B09F43CC90E94000039C98091F6
:10300000A5049091A6048130910501F580919A0460
:1030100090919B0489130EC064E08FE790E00E94BA
:103020008203A3E0B0E0B093A604A093A50410929D
:10303000990429C9E0919C04F0919D0491E0980FB6
:1030400090939A04E80FF11D00831DC98230910509
:1030500059F50E94C1016093A0047093A10480936C
:10306000A2049093A30480919904811111C0E0916E
:103070009704F0919804309791F040919C045091FE
:103080009D0460919A0461508091A404099507C041
:1030900062E08EE790E00E94820310929904109201
:1030A000A6041092A504EFC8892B09F0ECC8009380
:1030B000A40480919403BB24B394B80EB0929403FB
:1030C0008017C9F1C090A004D090A104E090A204A0
:1030D000F090A3040E94C101C61AD70AE80AF90AAF
:1030E000B0E1CB16B7E2DB06E104F104F8F41F927D
:1030F0000F938B2D90E001979F938F93A0E6B1E003
:10310000BF93AF931F92FEE1FF937F926F920E9455
:103110000C1BC3010E94E30860E08EE790E00E9470
:1031200082030FB6F894DEBF0FBECDBF8091A4041A
:103130008F5F80939403E0919E04F0919F048CE94B
:1031400094E0099580939B0410929A048091A404C2
:103150008093990481E090E09093A6048093A50465
:1031600092C82091BE063091BF064091C006509192
:10317000C10608C02091C2063091C3064091C40622
:103180005091C506B8018CE996E00E9417020F5FC6
:103190001F4F67CC8091A4069091A506009711F06F
:1031A0000E94491A8091A20687FD03C060E00C943A
:1031B000400E089510924F0610924E0688EE93E04E
:1031C000A0E0B0E08093500690935106A093520681
:1031D000B093530688E291E090934D0680934C069D
:1031E0008FEF9FEF909359068093580610929D069B
:1031F0001092A3061092AA061092AB061092AC068B
:103200001092AD0681E08093A9068093A6061092E5
:10321000A70692E09093A80680939C0680E390E036
:103220009093A1068093A0060E94B4199093A506DE
:103230008093A406009761F020E3FC0111922A9587
:10324000E9F780E190E090939F0680939E0608C086
:103250001092A1061092A00610929F0610929E0650
:103260008BE08093A20680919D06882341F061E067
:103270008BE00E94400E60E08BE00E94100EE3E2C3
:10328000F2E0E491F0E0EE0FFF1FE65FFD4F859165
:1032900094919093AF068093AE06E6EFF1E0E4914F
:1032A000E093B0061092B5061092CF061092CE06AB
:1032B0000895AA1BBB1B51E107C0AA1FBB1FA6177D
:1032C000B70710F0A61BB70B881F991F5A95A9F7CF
:1032D00080959095BC01CD010895A1E21A2EAA1BFC
:1032E000BB1BFD010DC0AA1FBB1FEE1FFF1FA217B6
:1032F000B307E407F50720F0A21BB30BE40BF50BB3
:10330000661F771F881F991F1A9469F7609570953B
:10331000809590959B01AC01BD01CF010895052ECC
:1033200097FB1EF400940E94A61957FD07D00E9437
:103330006D1907FC03D04EF40C94A61950954095D6
:10334000309521953F4F4F4F5F4F08959095809551
:10335000709561957F4F8F4F9F4F0895EE0FFF1F20
:103360000590F491E02D0994CF93DF93823091057D
:1033700010F482E090E0E091DE06F091DF0620E0BC
:1033800030E0C0E0D0E0309711F140815181481722
:103390005907C0F04817590761F48281938120973B
:1033A00019F09B838A832BC09093DF068093DE06FF
:1033B00026C02115310519F04217530718F49A0158
:1033C000BE01DF01EF010280F381E02DDCCF21158A
:1033D000310509F1281B390B2430310590F4129680
:1033E0008D919C9113976115710521F0FB019383D9
:1033F000828304C09093DF068093DE06FD0132963F
:1034000044C0FD01E20FF31F8193919322503109D3
:103410002D933C933AC02091DC063091DD06232B9E
:1034200041F42091190130911A013093DD06209367
:10343000DC0620911701309118012115310541F466
:103440002DB73EB740911B0150911C01241B350B39
:10345000E091DC06F091DD06E217F307A0F42E1BE5
:103460003F0B2817390778F0AC014E5F5F4F2417E8
:10347000350748F04E0F5F1F5093DD064093DC0682
:103480008193919302C0E0E0F0E0CF01DF91CF9112
:1034900008950F931F93CF93DF93009709F48CC087
:1034A000FC013297138212820091DE061091DF0632
:1034B0000115110581F420813181820F931F209124
:1034C000DC063091DD062817390779F5F093DD0623
:1034D000E093DC0671C0D80140E050E0AE17BF07B2
:1034E00050F412962D913C911397AD0121153105A1
:1034F00009F1D901F3CF9D01DA0133832283608181
:103500007181860F971F8217930769F4EC01288158
:103510003981260F371F2E5F3F4F318320838A81E9
:103520009B8193838283452B29F4F093DF06E093FC
:10353000DE0642C01396FC93EE931297ED0149917B
:1035400059919E01240F351FE217F30771F4808112
:103550009181840F951F029611969C938E93828180
:10356000938113969C938E931297E0E0F0E0D8013C
:1035700012968D919C911397009719F0F8018C0188
:10358000F6CF8D919C9198012E5F3F4F820F931F34
:103590002091DC063091DD062817390769F4309751
:1035A00029F41092DF061092DE0602C01382128206
:1035B0001093DD060093DC06DF91CF911F910F91F0
:1035C000089581E090E0F8940C94F11DFB01DC017A
:1035D00002C001900D9241505040D8F70895FB0170
:1035E000DC014150504030F08D910190801919F468
:1035F0000020B9F7881B990B0895FB01DC014150AD
:10360000504048F001900D920020C9F701C01D9272
:1036100041505040E0F70895AEE0B0E0E2E1FBE158
:103620000C94C81D0D891E898F89988D26E02C83E6
:103630001A83098397FF02C080E090E801979E8378
:103640008D83AE01455E5F4F698D7A8DCE01019607
:103650000E943C1B4D815E8157FD0AC02F81388539
:10366000421753070CF49A01F801E20FF31F10827E
:103670002E96E4E00C94E41DACE0B0E0E2E4FBE163
:103680000C94BA1D7C016B018A01FC011782168221
:10369000838181FFBDC1CE0101964C01F701938169
:1036A000F60193FD859193FF81916F01882309F4C1
:1036B000ABC1853239F493FD859193FF81916F0100
:1036C000853229F4B70190E00E94241DE7CF512CE8
:1036D000312C20E02032A0F48B3269F030F48032BB
:1036E00059F0833269F420612CC08D3239F0803377
:1036F00039F4216026C02260246023C0286021C0E4
:1037000027FD27C030ED380F3A3078F426FF06C089
:10371000FAE05F9E300D1124532E13C08AE0389ECC
:10372000300D1124332E20620CC08E3221F426FD80
:103730006BC1206406C08C3611F4206802C0883644
:1037400041F4F60193FD859193FF81916F01811101
:10375000C1CF982F9F7D9554933028F40C5F1F4F55
:10376000FFE3F9830DC0833631F0833771F0833581
:1037700009F05BC022C0F801808189830E5F1F4F72
:1037800044244394512C540115C03801F2E06F0ECB
:10379000711CF801A080B18026FF03C0652D70E088
:1037A00002C06FEF7FEFC5012C870E94191D2C010D
:1037B00083012C852F77222E17C03801F2E06F0E7F
:1037C000711CF801A080B18026FF03C0652D70E058
:1037D00002C06FEF7FEFC5012C870E940E1D2C01E8
:1037E0002C852068222E830123FC1BC0832D90E0B2
:1037F00048165906B0F4B70180E290E00E94241DFB
:103800003A94F4CFF50127FC859127FE81915F0161
:10381000B70190E00E94241D31103A94F1E04F1A54
:1038200051084114510471F7E5C0843611F089360E
:1038300039F5F80127FF07C060817181828193818A
:103840000C5F1F4F08C060817181072E000C880B30
:10385000990B0E5F1F4F2F76722E97FF09C0909520
:103860008095709561957F4F8F4F9F4F2068722E86
:103870002AE030E0A4010E945C1DA82EA81844C0D4
:10388000853729F42F7EB22E2AE030E025C0F22FB2
:10389000F97FBF2E8F36C1F018F4883579F0B4C0A7
:1038A000803719F0883721F0AFC02F2F2061B22E5A
:1038B000B4FE0DC08B2D8460B82E09C024FF0AC051
:1038C0009F2F9660B92E06C028E030E005C020E1A9
:1038D00030E002C020E132E0F801B7FE07C06081AD
:1038E0007181828193810C5F1F4F06C0608171815D
:1038F00080E090E00E5F1F4FA4010E945C1DA82E87
:10390000A818FB2DFF777F2E76FE0BC0372D3E7F4C
:10391000A51450F474FE0AC072FC08C0372D3E7E18
:1039200005C0BA2C372D03C0BA2C01C0B52C34FF0A
:103930000DC0FE01EA0DF11D8081803311F4397E46
:1039400009C032FF06C0B394B39404C0832F8678B5
:1039500009F0B39433FD13C030FF06C05A2CB314E2
:1039600018F4530C5B18B32CB31468F4B70180E25D
:1039700090E03C870E94241DB3943C85F5CFB3149E
:1039800010F43B1801C0312C34FF12C0B70180E3A2
:1039900090E03C870E94241D3C8532FF17C031FD1A
:1039A00003C088E790E002C088E590E0B7010CC052
:1039B000832F867859F031FF02C08BE201C080E28C
:1039C00037FD8DE2B70190E00E94241DA51438F464
:1039D000B70180E390E00E94241D5A94F7CFAA9487
:1039E000F401EA0DF11D8081B70190E00E94241DD1
:1039F000A110F5CF332009F451CEB70180E290E059
:103A00000E94241D3A94F6CFF7018681978102C067
:103A10008FEF9FEF2C96E2E10C94D61DFC010590F0
:103A2000615070400110D8F7809590958E0F9F1FC0
:103A30000895FC016150704001900110D8F7809505
:103A400090958E0F9F1F08950F931F93CF93DF9331
:103A5000FB01238121FD03C08FEF9FEF28C022FFD0
:103A600016C046815781248135814217530744F49B
:103A7000A081B1819D012F5F3F4F318320838C93C3
:103A8000268137812F5F3F4F3783268310C0EB019C
:103A9000092F182F0084F185E02D0995892BE1F677
:103AA0008E819F8101969F838E83812F902FDF913E
:103AB000CF911F910F910895FA01AA27283051F153
:103AC000203181F1E8946F936E7F6E5F7F4F8F4F4F
:103AD0009F4FAF4FB1E03ED0B4E03CD0670F781FAE
:103AE000891F9A1FA11D680F791F8A1F911DA11D93
:103AF0006A0F711D811D911DA11D20D009F46894CC
:103B00003F912AE0269F11243019305D3193DEF673
:103B1000CF010895462F4770405D4193B3E00FD029
:103B2000C9F7F6CF462F4F70405D4A3318F0495D14
:103B300031FD4052419302D0A9F7EACFB4E0A695F7
:103B40009795879577956795BA95C9F70097610519
:103B5000710508959B01AC010A2E0694579547956F
:103B600037952795BA95C9F7620F731F841F951F64
:103B7000A01D08952F923F924F925F926F927F9275
:103B80008F929F92AF92BF92CF92DF92EF92FF926D
:103B90000F931F93CF93DF93CDB7DEB7CA1BDB0B19
:103BA0000FB6F894DEBF0FBECDBF09942A883988BE
:103BB00048885F846E847D848C849B84AA84B984C5
:103BC000C884DF80EE80FD800C811B81AA81B981D1
:103BD000CE0FD11D0FB6F894DEBF0FBECDBFED01E5
:103BE000089511E0CDE1D1E004C0FE010E94AE19BC
:0C3BF0002196CE31D107C9F7F894FFCF21
:103BFC007801FFFFA086010005FFFFFFFFFFFF001C
:103C0C00E10000000000000000E006800000C18020
:103C1C008100000000000000E7094D0AFD09D40AEC
:103C2C00F20A190A61726372656163746F72322DE4
:103C3C00323031362E30332E31342E303100617229
:103C4C0064753100686172743100617263723100A5
:103C5C0045787065637465642025782072656365AA
:103C6C0069766564202578007265666C656374619D
:103C7C002D323031362E30382E30392E3031000086
:00000001FF
