:100000000C941E010C9446010C9446010C9446017C
:100010000C9446010C9446010C9446010C94460144
:100020000C9446010C9446010C94250C0C94A50CE0
:100030000C9446010C9446010C9446010C94460124
:100040000C9446010C9434060C9446010C94460121
:100050000C9446010C9446010C9446010C948210B9
:100060000C9446010C9446010C9446010C944601F4
:100070000C9446010C9446010C9446010C944601E4
:100080000C9446010C9446010C9446010C944601D4
:100090000C9406050C9446010C9446010C94460100
:1000A0000C9446010C9446010C9446011E15331520
:1000B0007B15A615B3155A17C117EA17361850182D
:1000C000C7185D198019C019001A401A0E022502BE
:1000D0005C028B02AA02C702E40217033C033F033F
:1000E0004203450358085D0862086F087C08D2087F
:1000F000D208D20889089608A308B008BD08D2081B
:10010000C508FA0EFD0EEC0EF00EF60E1E0F1E0FB9
:100110001E0F010F050F090F0F0F130F1E0F190FE1
:10012000070605040100080A0B0C0D090000000079
:100130002300260029002C002F00000000002400CE
:1001400027002A002D0030000000000200090F00E7
:1001500000030401000C000000000000000000008B
:1001600000000000000000080B000202020100096C
:100170000400000102020000052400100105240112
:10018000010104240206052406000107058103106D
:10019000004009040100020A0000000705020240B5
:1001A0000000070583024000000403090441726453
:1001B00075696E6F204C4C430041726475696E6FB7
:1001C000204D6963726F001201000200000040417F
:1001D00023378000010102030112010002EF020136
:1001E000404123378000010102030104080201108D
:1001F0004080401020408040800802040180402060
:100200001002011080102040402000000000250056
:1002100028002B002E00310004040404040304050C
:100220000202020204030202020206060606060693
:1002300004040202020404006C1B5C1B11241FBE98
:10024000CFEFDAE0DEBFCDBF27E0AAEAB1E001C020
:100250001D92A03AB207E1F711E0A0E0B1E0E4E8B6
:10026000F1E402C005900D92AA3AB107D9F711E066
:10027000CDE1D1E004C02197FE010E94311CCC31B8
:10028000D107C9F70E9417120C94B5200C940000F6
:10029000CF93DF930E94D107823108F08251E82F7B
:1002A000F0E0E05EFE4FE49180917B00E3FB992754
:1002B00090F9C92F90E0D92F95E0CC0FDD1F9A95CA
:1002C000E1F78F7DC82BC0937B00E770E064E0937B
:1002D0007C0080917A00806480937A0080917A001B
:1002E00086FDFCCF809178002091790090E0922BE0
:1002F000DF91CF910C94DB08CF930E94D107C82FD8
:100300000E94D107682F8C2FCF910C941F0F8091E2
:10031000B004882329F061E08DE00E941F0F35C0F2
:1003200060E08DE00E941F0F87E08093AD038BE0BB
:1003300090E0909342078093410784E690E0A0E02C
:10034000B0E08093460790934707A0934807B09387
:1003500049078AE090E090935B0780935A071092D8
:100360005D0710925C0710924407109243071092A9
:10037000450780E090E0A9E1B0E080934E079093BC
:100380004F07A0935007B093510781E00895CF9392
:10039000DF930E94D107282F30E0F901E85BFE4F80
:1003A0008491F901E551FE4FD491F901E85EFD4FCA
:1003B000C491CC2379F081110E94E20EEC2FF0E081
:1003C000EE0FFF1FE45DFE4FA591B491EC91ED237C
:1003D00081E009F480E0DF91CF910C94F308CF9392
:1003E0000E94D107C82F0E94D107682F8C2FCF9170
:1003F0000C944F0FCF93DF931F92CDB7DEB70E94BF
:10040000D1078093AD03482F50E04C30510508F0E0
:1004100072C1FA01EA59FF4F0C94311C1092420745
:100420001092410744E650E060E070E040934607D8
:100430005093470760934807709349072AE030E0DC
:1004400030935B0720935A074CC126E030E030938D
:1004500042072093410744E650E060E070E040939B
:10046000460750934707609348077093490742E354
:1004700050E060E070E040934E0750934F07609368
:100480005007709351071092520710925307109221
:1004900054071092550710925D0710925C07109256
:1004A00044071092430720912E0730912F07309375
:1004B0005B0720935A071DC127E030E030934207C5
:1004C000209341074BE450E060E070E04093460722
:1004D00050934707609348077093490740E850E0FE
:1004E000BA0140934E0750934F07609350077093A3
:1004F000510710925D0710925C071092440710920A
:10050000430725E030E030935B0720935A0791E0E2
:1005100090934507F0C022E030E0309342072093EB
:10052000410744E650E060E070E040934607509396
:100530004707609348077093490720912E07309131
:100540002F0730935B0720935A0740E050E060E8A4
:1005500070E0B7C028E030E03093420720934107B5
:1005600044E650E060E070E0409346075093470750
:1005700060934807709349072AE030E030935B07A7
:1005800020935A0740E059E96FEF70E06CC029E012
:1005900030E0309342072093410744E650E060E0AA
:1005A00070E0409346075093470760934807709365
:1005B00049072AE030E030935B0720935A0740E078
:1005C0005BE460E070E07DC02AE030E030934207F9
:1005D0002093410744E650E060E070E04093460716
:1005E00050934707609348077093490730935B0720
:1005F00020935A0740934E0750934F07609350073C
:10060000709351074FEF5FEF6FEF70E04093520729
:1006100050935307609354077093550710925607F1
:100620001092570710925807109259075AC02BE0A2
:1006300030E0309342072093410744E650E060E009
:1006400070E04093460750934707609348077093C4
:1006500049072AE030E030935B0720935A0742E3D2
:1006600050E060E070E040934E0750934F07609376
:1006700050077093510735C02CE030E008C02DE0E2
:1006800030E005C02EE030E002C02FE030E03093D3
:1006900042072093410744E650E060E070E0409359
:1006A00046075093470760934807709349072AE02D
:1006B00030E030935B0720935A0742E350E060E05C
:1006C00070E040934E0750934F076093500770932C
:1006D000510710925207109253071092540710922C
:1006E000550710925D0710925C0710924407109214
:1006F0004307109245078983BE016F5F7F4F81E0FA
:100700000E94D5090F90DF91CF910895CF93DF9389
:100710001F92CDB7DEB78091AD038983BE016F5FB5
:100720007F4F81E00E94D5090F90DF91CF9108950E
:100730008091B0040E94890781E0089585ED80933F
:10074000BC008091BC0084FDFCCF1092800608950F
:1007500040915A06262F30E0240F311D21323105F9
:10076000DCF4209180062430C9F4FC0180E090E0A4
:10077000861758F430915A062191DC01A85CB94FD4
:10078000A30FB11D2C930196F3CF80915A06680FE9
:1007900060935A0680E0089581E0089582E008950C
:1007A00008958FEF9FEF08958FEF9FEF0895809149
:1007B000370690E09195819591090895CF93DF9345
:1007C00000D0CDB7DEB7CB01642F49835A830E9496
:1007D000A8034981842F5A81952F0F900F90DF91A4
:1007E000CF910895CF93DF931F92CDB7DEB7698382
:1007F00061E0CE0101960E94A80381E090E00F9095
:10080000DF91CF91089581E08093AE03089581E058
:100810008093B00408952091AD013091AE01FC01A8
:100820003183208380E408958FEF9FEF90930A0136
:10083000809309011092AF031092B4050C94381103
:10084000CF93C82F803C49F08B3D71F46BED87EB63
:1008500096E00E947D0B6DED08C06BED87EB96E096
:100860000E947D0B6CED01C0682F87EB96E00E9423
:100870007D0B8091FE04C827C093FE04CF9108959C
:10088000CF92DF92EF92FF920F931F93CF93DF935C
:10089000CDB7DEB729970FB6F894DEBF0FBECDBF38
:1008A0008C01DC0118968D919C911997892B09F484
:1008B0009EC00E948B0FF801C684D784E088F1881F
:1008C000DC01CB018C199D09AE09BF09C297A105B6
:1008D000B10578F3F894848195819A8389830084A3
:1008E000F185E02D7F01BFEFEB1AFB0A808189873C
:1008F000F80190810288F389E02DD80154968C91FB
:10090000992309F430C09081982B98879081809525
:1009100089238F838F818C8388E08B8358856F81B7
:1009200049853B812C8189819A81D701508347FD7C
:10093000252F3A952083262F39F0441F00C0000050
:100940006083000000C0F2CF38E04D91608300006A
:10095000019761F7D8015396FC93EE93529749871C
:100960003B832C833AC09081982B98879081809507
:1009700089238F838F818E8388E08D8358856F8153
:1009800049853D812E8189819A81D701508347FD18
:10099000252F00C000C0208300C000C000C000C0E0
:1009A00000C060830000262F3A9541F0441F0000EC
:1009B00000C000C000C000C000C0E8CF38E04D91CA
:1009C00000C0608300C0019709F7D8015396FC93DB
:1009D000EE93529749873D832E839A838983789437
:1009E0000E948B0FF80166877787808B918B299601
:1009F0000FB6F894DEBF0FBECDBFDF91CF911F9130
:100A00000F91FF90EF90DF90CF9008951F920F927B
:100A10000FB60F9211242F933F934F935F936F93D1
:100A20007F938F939F93AF93BF93EF93FF938091A7
:100A3000B900887F803609F49CC068F5883209F4D3
:100A40005BC090F4803109F454C038F4882309F471
:100A5000F6C0883009F44DC0F6C0883109F44CC0A6
:100A6000803209F45DC0EFC0803409F468C048F4F6
:100A7000803309F455C0883309F0E5C080937F06C0
:100A8000D8C0803509F44FC0883509F45DC088347A
:100A900009F0D9C0D6C0883909F4C7C0A8F488378E
:100AA00009F467C038F4883609F463C0803709F464
:100AB00060C0C9C0883809F4B8C0803909F45FC083
:100AC000803809F0C0C05BC0803B09F486C038F4B0
:100AD000803A09F466C0883A09F47FC0B4C0803C0B
:100AE00009F4A7C0883C09F4A4C0883B09F48AC073
:100AF000AAC08091A50610C09091A4068091A3067B
:100B0000981770F5E091A40681E08E0F8093A406FB
:100B1000F0E0ED57F94F80818093BB0085EC86C0F3
:100B200080937F068EC0E091A40681E08E0F8093B3
:100B3000A4068091BB00F0E0ED57F94F80839091BF
:100B4000A4068091A3066EC0E091A40681E08E0FFA
:100B50008093A4068091BB00F0E0ED57F94F8083AD
:100B60008091820681116DC081E08093810684EAC4
:100B700061C083E08093800610927E06CFCF809183
:100B80007E06803208F051C0E0917E0681E08E0F33
:100B900080937E068091BB00F0E0E25AF94F80839B
:100BA000BDCF85EC8093BC001092800680917E06BC
:100BB000803230F4E0917E06F0E0E25AF94F108284
:100BC00060917E0670E0E0915C06F0915D068EE536
:100BD00096E0099510927E0636C084E080938006E8
:100BE00010925B0610925A06E0915806F091590651
:100BF000099580915A06811105C081E080935A06BB
:100C000010923806E0915B0681E08E0F80935B06C0
:100C1000F0E0E85CF94F80818093BB0090915B0627
:100C200080915A06981708F479CF85E88093BC0024
:100C30000AC085EC8093BC001092800604C010921C
:100C40007F060E949E03FF91EF91BF91AF919F910C
:100C50008F917F916F915F914F913F912F910F9065
:100C60000FBE0F901F9018951F920F920FB60F9204
:100C700011242F933F934F935F936F937F938F93A1
:100C80009F93AF93BF93EF93FF938091360687FFB7
:100C900005C010928500109284001BC0209136067A
:100CA000022E000C330B80912B0790E02817390798
:100CB00084F480913606082E000C990BFC01EE0F8F
:100CC000FF1F8E0F9F1FFC01E95FF84F808186FD9B
:100CD00015C0809136068F5F8093360620913606C8
:100CE000022E000C330B80912B0790E02817390758
:100CF000C4F4809136068C3064F113C080913606BE
:100D0000082E000C990BFC01EE0FFF1F8E0F9F1F8A
:100D1000FC01E95FF84F808160E08F730E941F0F34
:100D2000D8CF8091840090918500049680349C49AE
:100D300018F480E49CE905C08091840090918500BE
:100D4000049690938900809388008FEF80933606F5
:100D50003BC0209184003091850080913606082E9A
:100D6000000C990BFC01EE0FFF1F8E0F9F1FFC0163
:100D7000E95FF84F81819281820F931F90938900E0
:100D80008093880080913606082E000C990BFC0198
:100D9000EE0FFF1F8E0F9F1FFC01E95FF84F808150
:100DA00086FF12C080913606082E000C990BFC01BC
:100DB000EE0FFF1F8E0F9F1FFC01E95FF84F808130
:100DC00061E08F730E941F0FFF91EF91BF91AF9170
:100DD0009F918F917F916F915F914F913F912F9153
:100DE0000F900FBE0F901F901895CF92DF92FF9239
:100DF0000F931F93CF93DF931F92CDB7DEB7182FBA
:100E0000062F1092FE048091B40599830E9420045D
:100E1000F12EC12E9981D92E8C2D8F19801730F487
:100E2000F60181916F010E942004F6CF8091FE04AB
:100E30000E94200460EC87EB96E00E947D0B80917D
:100E4000B40591E0980F9093B4050F90DF91CF9186
:100E50001F910F91FF90DF90CF900895CF93DF9374
:100E600000D0CDB7DEB789836A8362E0CE010196F8
:100E70000E94F5060F900F90DF91CF910895809119
:100E8000090190910A019C012F5F3F4F22303105EB
:100E900040F46AE08FE790E00E942E072FEF3FEFCB
:100EA0000AC0029790930A0180930901FC01EA5459
:100EB000FA4F20813181032E000C440B550B60E466
:100EC00072E48FE090E00E943D2020930401309373
:100ED00005014093060150930701089520910201F6
:100EE000309103012E3F31052CF069E08FE790E04F
:100EF0000C942E07F901E055FC4F91832E5F3F4F74
:100F00003093030120930201F901E055FC4F8083E7
:100F1000089520910201309103012F3F310529F4FA
:100F200069E08FE790E00C942E072F5F3F4F3093DE
:100F3000030120930201F901E055FC4F80830895DD
:100F4000509303054093020580930105460F511D00
:100F5000509300054093FF04E0910205F0910305D2
:100F60008091FF0490910005E817F907C9F0CF01BF
:100F700001969093030580930205E081F0E0EE0F67
:100F8000FF1FE155FE4F0190F081E02D309711F0E9
:100F90000995E2CF67E08FE790E00E942E07DCCF53
:100FA00008958091090190910A018F3F2FEF9207D8
:100FB00039F46AE08FE790E00E942E078FEF0895E2
:100FC0009C012150310930930A0120930901FC0151
:100FD000EB54FA4F80810895CF92DF92EF92FF9207
:100FE0000F931F93CF93DF93CDB7DEB7DA950FB68C
:100FF000F894DEBF0FBECDBF0E94D10763E0680F3B
:10100000C82E082E000CDD089CE7998390910105FD
:101010009A838B837E0184E0E80EF11C00E010E0EF
:101020000C151D0594F4C050DF4F6883C050D140AB
:101030000E94D107F70181937F010F5F1F4FC050BE
:10104000DF4F6881C050D140EBCFCE0101960E94A6
:10105000F506D3950FB6F894DEBF0FBECDBFDF9176
:10106000CF911F910F91FF90EF90DF90CF90089557
:10107000CF93DF930E94D107D82F0E94D107C82FAA
:1010800061E08D2F0E944F0FCC2309F48BC0ED2F10
:10109000F0E0E85BFE4FE4914E2F50E0FA0131970B
:1010A000EF30F10508F07EC0EE58FF4F0C94311C74
:1010B00084B5806884BDC7BD7BC084B5806284BDB3
:1010C000C8BD76C0809180008068809380000C2E1F
:1010D000000CDD0BD0938900C093880069C080911B
:1010E00080008062809380000C2E000CDD0BD0937A
:1010F0008B00C0938A005CC08091800088608093E0
:1011000080000C2E000CDD0BD0938D00C0938C0062
:101110004FC0809190008068809390000C2E000C4E
:10112000DD0BD0939900C093980042C0809190004D
:101130008062809390000C2E000CDD0BD0939B00FE
:10114000C0939A0035C08091900088608093900091
:101150000C2E000CDD0BD0939D00C0939C0028C08A
:101160008091C00080688093C0008091C0008F7B18
:101170008093C000C093CF001BC08091C0008062EC
:101180008093C000C093D00013C08091C2008860DB
:101190008093C2008091C2008B7F8093C200C09375
:1011A000D20006C060E08D2FDF91CF910C941F0F0D
:1011B000DF91CF9108952091090130910A012F37D5
:1011C00031052CF069E08FE790E00C942E072E5F3C
:1011D0003F4F30930A0120930901F901EC54FA4F73
:1011E0009183808308952091090130910A0120386C
:1011F000310529F469E08FE790E00C942E072F5F0A
:101200003F4F30930A0120930901F901EB54FA4F43
:1012100080830895EF92FF920F931F93CF93DF93F4
:101220008EE1E82E85E0F82E05E015E080910405BA
:10123000482F50E0980125503540241735079CF47D
:10124000C4E0D0E0F701EC0FFD1F80810E94F3089D
:101250002197C0F7F80181918F010E94F308F6E011
:10126000EF0EF11CE3CF982F990F890F880F0E9482
:10127000F308DF91CF911F910F91FF90EF900C94A5
:10128000EC070F931F93CF93DF93209102053091CA
:1012900003058091FF04909100052817390729F470
:1012A00065E08FE790E00E942E07E0910205F09143
:1012B0000305CF0101969093030580930205C08139
:1012C000D0E08E01015011092091020530910305F3
:1012D0000F3F8FEF180739F0F901E00FF11F808100
:1012E0000E94F308EFCF6091FF0470910005C901DF
:1012F000AC01421B530B4C175D078CF40196681729
:101300007907B0F7909303058093020565E08FE7B6
:1013100090E0DF91CF911F910F910C942E07909345
:10132000030580930205DF91CF911F910F910895DE
:1013300081E00E94F3080C94EC070F931F93CF9366
:101340000E94D107C82F0E94D1072C2F30E0F9014D
:10135000E551FE4F6491F901E85EFD4FE491882369
:1013600011F0462F01C040E0F0E0EE0FFF1FE45DFA
:10137000FE4F8591949100E412E42FE030E00E944A
:10138000D211611571058105910539F0DC01CB01A0
:101390000196A11DB11DBF7003C080E090E0DC018B
:1013A000CF911F910F910C94F3081F93CF93DF936C
:1013B000CDB7DEB7CF5FD1090FB6F894DEBF0FBE51
:1013C000CDBF182F482F50E04D3F510534F064E059
:1013D0008FE790E00E942E0710C08CE789838091F0
:1013E00001058A831B83CE0104960E94691D63E078
:1013F000610FCE0101960E94F506C150DF4F0FB676
:10140000F894DEBF0FBECDBFDF91CF911F9108953D
:10141000E0910001F0910101DF010D900020E9F75A
:10142000CD010197BF018E1B0C94D5098F929F921D
:10143000AF92BF92CF92DF92FF920F931F93CF9301
:10144000DF934C018B01F0900405CF2DD0E09EE19D
:10145000A92E95E0B92EC12CD12CCC16DD067CF43A
:1014600046E050E0B401C5010E94721D26E0A20EC4
:10147000B11C892BC9F08FEFC81AD80AEECF26E02D
:101480002C9FC0012D9F900D112446E050E0B40127
:10149000825E9A4F0E94801DF394F0920405CB5F08
:1014A000DA4F809108018883E0910801F0E0EE0FA7
:1014B000FF1FE155FE4F80819181892B19F4118323
:1014C000008305C066E08FE790E00E942E078091C0
:1014D000080191E0980F90930801DF91CF911F913F
:1014E0000F91FF90DF90CF90BF90AF909F908F9023
:1014F00008950F931F93CF93DF93CDB7DEB7CF5FE0
:10150000D1090FB6F894DEBF0FBECDBFFC0101902C
:101510000020E9F731978F01081B190BA801552707
:101520004E3F510530F064E08FE790E00E942E07B7
:101530000EC02DE729830A83BC01CE0103960E94C9
:10154000691D62E0600FCE0101960E94F506C15050
:10155000DF4F0FB6F894DEBF0FBECDBFDF91CF9146
:101560001F910F9108954091B2065091B3062091BA
:10157000B0063091B10642175307B4F49091E800D9
:101580009570E1F39091E80092FD19C08093F1000D
:101590008091B2069091B30601968F739927892B9B
:1015A00019F48EEF8093E8008091B2069091B30613
:1015B00001969093B3068093B20681E0089580E08F
:1015C0000895CF92DF92EF92FF920F931F93CF93E4
:1015D000DF931F92CDB7DEB7182F062FE42E862F8C
:1015E000880F8E5F99830E94B30A83E00E94B30A3A
:1015F000F12EC12E9981D92E8C2D8F19801798F438
:10160000F601E7FE02C0849101C080810E94B30A06
:10161000182F80E00E94B30A8123FFEFCF1ADF0A60
:101620008111EACF01C081E00F90DF91CF911F912E
:101630000F91FF90EF90DF90CF900895DF92EF929F
:10164000FF920F931F93CF93DF93D82E8A017B01D4
:10165000E40EF51EEB01CE15DF0571F0D7FE03C0D9
:10166000FE01849101C088810E94B30A21968111F4
:10167000F2CF8FEF9FEF01C0C801DF91CF911F9193
:101680000F91FF90EF90DF900895615030F020911E
:10169000F100FC0120830196F8CF289A84E680931C
:1016A000B5060895CF92DF92EF92FF920F931F93AA
:1016B000CF93DF936C017A018B01C0E0D0E0CE15AF
:1016C000DF0589F0D8016D918D01D601ED91FC9176
:1016D0000190F081E02DC6010995892B11F47E015E
:1016E00002C02196ECCFC701DF91CF911F910F91DE
:1016F000FF90EF90DF90CF900895CF93DF931F92EC
:10170000CDB7DEB76983DC01ED91FC910280F381F6
:10171000E02D41E050E0BE016F5F7F4F09950F90D3
:10172000DF91CF910895FC018485958597FD0BC0CD
:101730009FB7F89482E08093E9008091F2009FBF08
:1017400090E0019608959FB7F89482E08093E900B5
:101750008091F2009FBF90E008950E94641D0C9458
:1017600038110F931F93CF93DF931F92CDB7DEB73E
:1017700082E0898342E450E067E671E080E80E94FD
:101780001E0B0E94BE11DC0112960D911C91139745
:101790000115110569F0D801ED91FC910280F381EA
:1017A000E02DBE016F5F7F4FC801099597FF07C00D
:1017B00089810F90DF91CF911F910F910895F801CA
:1017C00000851185E5CF0F931F93CF93DF931F9271
:1017D000CDB7DEB78C01FC018485958597FF0EC0DF
:1017E000CE0101960E949411019719F4298130E0ED
:1017F00002C02FEF3FEFF80135872487F801848579
:1018000095850F90DF91CF911F910F910895CF9300
:10181000DF931F92CDB7DEB7FC018485958597FDD8
:1018200005C02FEF3FEF358724870BC0CE0101960F
:101830000E949411019719F4898190E002C08FEF02
:101840009FEF0F90DF91CF9108951F920F920FB6E7
:101850000F9211242F933F934F935F936F937F9336
:101860008F939F93AF93BF93CF93EF93FF93C091C9
:10187000E1008091E100837F8093E100C3FF0FC00E
:101880001092E90081E08093EB001092EC0082E37B
:101890008093ED001092B60688E08093F000C2FFBE
:1018A00018C00E9438118091B406882339F08091C5
:1018B000B40681508093B406882389F18091B506DF
:1018C000882339F08091B50681508093B50688232E
:1018D00041F1C4FF10C08091E2008E7E8160809350
:1018E000E2008091E1008F7E8093E1008091AB0166
:1018F0008E7E806111C0C0FF16C08091E2008E7E96
:1019000080618093E2008091E1008E7E8093E1000F
:101910008091AB018E7E81608093AB0104C05D98A5
:10192000CDCF2898D6CFFF91EF91CF91BF91AF91B6
:101930009F918F917F916F915F914F913F912F91E7
:101940000F900FBE0F901F9018951F920F920FB619
:101950000F921124CF92DF92EF92FF920F931F9379
:101960002F933F934F935F936F937F938F939F93A7
:10197000AF93BF93EF93FF93CF93DF93CDB7DEB7D2
:101980006C97DEBFCDBF1092E9008091E80083FF25
:10199000FAC168E0CE0145960E94450B82EF809324
:1019A000E8008D8987FF05C09091E80090FFFCCF8B
:1019B00003C09EEF9093E800982F907609F0C6C080
:1019C0009E892F89188D91110CC0803829F480913F
:1019D000AC018093F10002C01092F1001092F1006E
:1019E00047C1422F50E0512B913051F4811140C139
:1019F0004130510509F03CC18091AC018D7F0BC095
:101A0000933061F4811134C14130510509F030C186
:101A10008091AC0182608093AC012AC1953041F481
:101A20008091E80080FFFCCF20682093E30020C174
:101A3000963009F05FC0EB8CFC8C1092E90010929C
:101A4000B3061092B206123091F51092B1061092C0
:101A5000B0060E94B10B99E0BE016F5F7F4FDB01C2
:101A6000E92F1D92EA95E9F799831A8391E09E8305
:101A700090EA98879AEF99872091B2063091B30641
:101A8000275F3F4F3C832B838D831092E900109298
:101A9000B3061092B206F092B106E092B00649E0A9
:101AA00050E080E00E941E0B0E94B10BE1C0F0925A
:101AB000B106E092B0060E94BE11DC011296ED90D4
:101AC000FC901397E114F10409F4C0C0D701ED9123
:101AD000FC910480F581E02DBE016B5E7F4FC70154
:101AE0000995009719F00CF0C3C0C6C0F701E08457
:101AF000F184E8CF973009F4BFC0983021F481E039
:101B00008093F100B5C0993009F0B2C0837009F03C
:101B1000B3C0E2E2F1E081E021E036E39081992375
:101B200061F08093E9002093EB0091919093EC0099
:101B30003093ED008F5F873089F78EE78093EA005E
:101B40001092EA008F898093B60692C08B8D9C8D8F
:101B50001092E9001092B3061092B2069093B1066B
:101B60008093B006898D811156C08E899D89913AE6
:101B700059F4813209F080C047E050E06FE071E035
:101B800080E00E941E0B74C0913209F075C0833250
:101B900089F4888D90E0982F88272F89822BA0E0E8
:101BA000B0E080930B0190930C01A0930D01B093D2
:101BB0000E015EC0803269F48091E80082FFFCCFA4
:101BC00067E08FE091E00E94450B8BEF8093E80087
:101BD00006C0823209F04CC08F8980931601809133
:101BE000AA01882319F0EEEFFAE002C0E0E0F8E085
:101BF00080910F0190911001A0911101B0911201FB
:101C0000803B9440A105B10509F088C08091160180
:101C100080FFA0C083C00E94BE11DC0112960D910E
:101C20001C9113970115110539F1D801ED91FC9123
:101C30000190F081E02DBE016B5E7F4FC8010995D8
:101C4000811116C0F80100851185ECCF1130C1F06B
:101C5000133091F48F89882309F455C08230E9F458
:101C600040E86DE089EB91E00E94E10A882321F0D1
:101C70008EEF8093E80087C081E28093EB0083C001
:101C80008B8D9C8D089711F41093AF068091AF0651
:101C9000811136C067EC71E038C0813029F440E82A
:101CA0006BE08DEA91E0E0CF833031F70E94BE1106
:101CB000DC011296ED90FC9013978E010F5F1F4F81
:101CC0006801E114F10479F0D701ED91FC910680EF
:101CD000F781E02DB801C7010995080F111DF70123
:101CE000E084F184EECFD8011C92F601019000202F
:101CF000E9F73197BF016C197D0940E0C601B4CF07
:101D000069ED71E002C069EA71E06115710509F4DD
:101D1000B3CFFB01449150E080E833CF0FB6F89485
:101D2000A8958091600088618093600010926000A7
:101D30000FBEA895EE3F2AE0F20739F08091FE0A27
:101D40009091FF0A9183808393CF1092FF0A1092A3
:101D5000FE0A8ECFEE3F8AE0F80731F08081918154
:101D60009093FF0A8093FE0A87E797E79183808329
:101D70009BE088E10FB6F894A895809360000FBEB1
:101D80009093600075CF6C960FB6F894DEBF0FBECF
:101D9000CDBFDF91CF91FF91EF91BF91AF919F9117
:101DA0008F917F916F915F914F913F912F911F91F3
:101DB0000F91FF90EF90DF90CF900F900FBE0F909C
:101DC0001F90189590E0FC013197EF30F105B0F5C8
:101DD000EF57FF4F0C94311C809180008F7703C028
:101DE000809180008F7D8093800008958091800095
:101DF000877FF9CF84B58F7702C084B58F7D84BD8E
:101E00000895809190008F7707C0809190008F7D1A
:101E100003C080919000877F809390000895809107
:101E2000C0008F7703C08091C0008F7D8093C00079
:101E300008958091C200877F8093C20008951F9308
:101E4000CF93DF93282F30E0F901E85BFE4F8491B8
:101E5000F901E551FE4FD491F901E85EFD4FC491BF
:101E6000CC23C9F0162F81110E94E20EEC2FF0E076
:101E7000EE0FFF1FE65FFD4FA591B4918FB7F89469
:101E8000111105C09C91ED2FE095E92302C0EC9162
:101E9000ED2BEC938FBFDF91CF911F910895CF93DE
:101EA000DF9390E0FC01E551FE4F2491FC01E85ED8
:101EB000FD4F8491882361F190E0880F991FFC0108
:101EC000E65CFE4FC591D491FC01E65FFD4FA59104
:101ED000B491611109C09FB7F8948881209582233D
:101EE0008883EC912E230BC0623061F49FB7F89485
:101EF0003881822F809583238883EC912E2B2C931D
:101F00009FBF06C08FB7F894E8812E2B28838FBF20
:101F1000DF91CF9108953FB7F8948091AB069091EF
:101F2000AC06A091AD06B091AE0626B5A89B05C043
:101F30002F3F19F00196A11DB11D3FBFBA2FA92F48
:101F4000982F8827820F911DA11DB11DBC01CD01C5
:101F500042E0660F771F881F991F4A95D1F70895B1
:101F60008F929F92AF92BF92CF92DF92EF92FF92A9
:101F70006B017C010E948B0F4B015C01C114D104E9
:101F8000E104F104F1F00E948B0FDC01CB01881910
:101F90009909AA09BB09883E9340A105B10570F3D0
:101FA00021E0C21AD108E108F10888EE880E83E02A
:101FB000981EA11CB11CC114D104E104F10419F74D
:101FC000DDCFFF90EF90DF90CF90BF90AF909F90CC
:101FD0008F9008958F929F92AF92BF92CF92DF928F
:101FE000EF92FF920F931F93CF93DF935C016B01EE
:101FF0008A0180911601882309F45EC08091B6069B
:10200000882309F459C08091AB0180FF05C08091FD
:10201000E00082608093E000E8018AEFF82E93E010
:10202000E92E2FE3822E3AE3932E209709F43DC048
:102030008FB7F894E092E9009091E80095FF06C010
:102040009091F200282D291B922F01C090E08FBFA4
:1020500091110AC0FA94FF2079F161E070E080E00C
:1020600090E00E94B00FE1CF292F30E0C217D307D4
:102070000CF49C2F8FB7F894E092E9002091E800CF
:1020800025FF11C0292F30E0C21BD30BF601915060
:1020900020F041914093F100FACFC20ED31E9091EF
:1020A000E80095FF13C08FBFC0CF5D9A84E6809390
:1020B000B4061016110644F081E090E0F501938318
:1020C000828380E090E005C0C80103C09092E800E0
:1020D000EACFDF91CF911F910F91FF90EF90DF90AA
:1020E000CF90BF90AF909F908F9008952FB7F894A6
:1020F0006091A7067091A8068091A9069091AA0602
:102100002FBF08951F920F920FB60F9211242F9395
:102110003F938F939F93AF93BF938091A706909126
:10212000A806A091A906B091AA063091A60623E0C0
:10213000230F2D3720F40196A11DB11D05C026E8FF
:10214000230F0296A11DB11D2093A6068093A7061A
:102150009093A806A093A906B093AA068091AB0617
:102160009091AC06A091AD06B091AE060196A11D6E
:10217000B11D8093AB069093AC06A093AD06B093CF
:10218000AE06BF91AF919F918F913F912F910F908C
:102190000FBE0F901F9018958F929F92AF92BF9293
:1021A000CF92DF92EF92FF920F931F93CF93DF9323
:1021B000FC01828193816817790708F04CC04A01BD
:1021C000AA24BB24B82DC32ED42EE52EFF24AC2D7B
:1021D000922F8781882361F0889E40011124B92DB8
:1021E000C89E60011124AD2D289FE00111249D2F70
:1021F000D584C285E084F184DC1208C09B01220FE3
:10220000331F620F731F6E0D7F1D16C0660F771F81
:10221000660F771F6E0D7F1D052F1127222733278D
:10222000EB01CD0DD11D882329F0089F90011124C9
:10223000232F01C0202F28838285EB01C80FD11DD9
:10224000B8838385EB01C80FD11DA8838485FB016A
:10225000E80FF11D9083DF91CF911F910F91FF90B7
:10226000EF90DF90CF90BF90AF909F908F900895A8
:1022700083E08093E9008091F200882319F08AE3DB
:102280008093E8000895209143073091440780919E
:102290005C0790915D07232B11F5019690935D07E4
:1022A00080935C0720915A0730915B078217930750
:1022B000D0F180914507882369F081E090E0909308
:1022C0004407809343072150310930935D072093E1
:1022D0005C07089510925D0710925C071DC001977E
:1022E00090935D0780935C07892BE9F48091450703
:1022F000882349F0109244071092430710925D071B
:1023000010925C07089580915A0790915B0701979E
:1023100090935D0780935C07E0915E07F0915F0703
:10232000309709F009940895FC018091B606811157
:1023300003C08FEF9FEF08959FB7F89482E08093DA
:10234000E9002091F20030E01216130614F421E0A7
:1023500030E02115310559F0289A84E68093B506BE
:102360008091F10080838091F200882319F09FBF53
:10237000C90108958BE68093E800F9CF8091640746
:1023800081110DC082E08093600784E08093610733
:10239000109263071092620781E08093640780E6E1
:1023A00097E00895CF92DF92EF92FF920F931F93E1
:1023B000E82FF92F05C0015011092109310961F1F8
:1023C000908196239417B9F305C001501109210992
:1023D000310911F1908196239413F7CFC12CD12CA0
:1023E000E12CF12C0AC08FEFC81AD80AE80AF80AC3
:1023F0000C151D052E053F0579F080818623841775
:1024000091F36C2D7D2D8E2D9F2D1F910F91FF909F
:10241000EF90DF90CF90089560E070E080E090E072
:102420001F910F91FF90EF90DF90CF900895CF9381
:10243000DF93CDB7DEB7C550D1400FB6F894DEBFFD
:102440000FBECDBF789484B5826084BD84B58160B1
:1024500084BD85B5826085BD85B5816085BD80916F
:102460006E00816080936E001092810080918100E7
:1024700082608093810080918100816080938100DF
:1024800080918000816080938000809191008260C3
:102490008093910080919100816080939100809160
:1024A00090008160809390008091C100846080934F
:1024B000C1008091C10082608093C1008091C10001
:1024C00081608093C1008091C30081608093C300CC
:1024D0008091C00082608093C0008091C2008160C2
:1024E0008093C20080917A00846080937A0080910A
:1024F0007A00826080937A0080917A008160809374
:102500007A0080917A00806880937A001092B606F3
:102510001092AC011092AB018091D7008160809342
:10252000D70080EA8093D80089B5806189BD89B5DC
:10253000826089BD09B400FEFDCF61E070E080E0FB
:1025400090E00E94B00F8091D8008F7C80618093D2
:10255000D8008091E000807F8093E0008091E100CE
:102560008E7E8093E1008DE08093E200559A209A60
:102570005D982898EEEFFFE7859194918B3F9C4DF5
:1025800019F481E08093AA010FB6F894A895809180
:102590006000886180936000109260000FBE88E444
:1025A00091E090930101809300018091B904909192
:1025B000BA04892B71F480E490E00E94371C909358
:1025C000AE018093AD018BE094E09093BA048093C8
:1025D000B9048FEF9FEF9093C4068093C3060E94C7
:1025E00038118FEFEFEAF1E0DF011D928A95E9F7EC
:1025F00081E499E09093B0018093AF018AE099E083
:102600009093B2018093B10188E999E09093B4016D
:102610008093B3018CEE97E09093B6018093B5015F
:1026200088E09AE09093B8018093B70184E194E048
:102630009093A4028093A30280EA97E09093B3045E
:102640008093B2046FEE71E082E691E00E94160A78
:1026500067EC71E082E691E00E94160A6CE771E097
:1026600082E691E00E94160A68E471E082E691E059
:102670000E94160A68E378E082E691E00E94160A5A
:102680006DE979E082E691E00E94160A6FE377E057
:1026900088E691E00E94160A67E074E088E691E01F
:1026A0000E94160A81E090E00E94DB080E943F072A
:1026B0008091C9049091CA04FC01EE0FFF1FE553FD
:1026C000FB4F28E933E0318320839C012E5F3F4F8D
:1026D0003093CA042093C904880F991FFC01E35367
:1026E000FB4F87E891E0918380836AEF71E08EE68B
:1026F00091E00E94160A66E873E08EE691E00E947F
:10270000160A8091320787FD08C061E00E944F0FD2
:1027100060E0809132070E941F0F81E080932D07B7
:102720001092AD03109242071092410784E690E0A8
:10273000A0E0B0E08093460790934707A093480736
:10274000B09349078AE090E090935B0780935A0723
:1027500010925D0710925C07109244071092430795
:102760001092450761E08DE00E944F0F63E074E036
:1027700084E791E00E94160AFE0131963F019DE038
:1027800088E10FB6F894A895809360000FBE9093EF
:1027900060008091AE03882339F064E670E080E049
:1027A00090E00E94B00FF5CF11E087EB96E00E9419
:1027B000930B892B09F44FC087EB96E00E94070C1E
:1027C000082F8091B1048823B1F00C3D81F00D3DBC
:1027D00011F40BED0DC061E08EE790E00E942E0732
:1027E00023E030E03093C1042093C00401C000EC2A
:1027F0001092B1042AC00B3D19F41093B104D5CF47
:10280000003C19F58091C0049091C104813091057C
:1028100049F0039771F41092B4041092C10410921D
:10282000C0047FC682E090E09093C1048093C0040E
:1028300078C663E08EE790E00E942E07A3E0B0E048
:10284000B093C104A093C0046CC68091B4048027E7
:102850008093B40466C68091FD04882329F080919A
:10286000FD04811132C0B6C08091FB049091FC043C
:1028700001969093FC048093FB0481E08093FD0417
:102880001BECE12E14E0F12E0BEE14E02091C904B4
:102890003091CA04C8018B5E944082179307FCF6FE
:1028A000F801808181110BC0A895D701ED91FC91B1
:1028B0000995F8018083811102C01092FD04F2E0B5
:1028C000EF0EF11C0F5F1F4FE1CF8091C804811103
:1028D00005C01092B00481E08093C8040E948B0F61
:1028E0004B015C014091C4045091C5046091C60441
:1028F0007091C7048091C2049091C3048416950618
:10290000A606B70608F461C00E946E078091FB041A
:102910009091FC040E946E078BE70E948907D0907B
:102920000201D3948301ED2CF12CC801861997097B
:102930008E159F05F4F480910201909103018F3F61
:102940002FEF920739F46AE08FE790E00E942E079C
:102950008FEF0BC09C01215031093093030120936C
:102960000201FC01E055FC4F8081D8018D938D015F
:10297000DCCF6D2DC3010E94F5068091040190917A
:102980000501A0910601B0910701880E991EAA1EAB
:10299000BB1E8092C4049092C504A092C604B0925B
:1029A000C7041092FC041092FB041092C30410920E
:1029B000C2041092C804EBEEF4E01192B4E0EB3FD5
:1029C000FB07D9F71092FD0405C001969093C3044C
:1029D0008093C2040E94761000914A0710914B0721
:1029E00020914C0730914D07DC01CB01801B910BEE
:1029F000A20BB30B0091460710914707209148079F
:102A000030914907081719072A073B0708F081C5C5
:102A10000E94761060934A0770934B0780934C078F
:102A200090934D07E0914107F0914207E031F105A5
:102A300008F06FC5EA5AFF4F0C94311C00E010E01B
:102A400080912E0790912F070817190708F05BC592
:102A500020E030E0A901B8018CE297E00E94CC10A0
:102A60000F5F1F4FEDCFE12CF12C00E010E06091E3
:102A70002E0770912F070617170708F044C5C701E6
:102A80000E941D1C20915C07620F6095653568F4FB
:102A9000262F220F620F862F8095462F50E060E090
:102AA00070E09A01AB01482B1DC06A3A58F4655595
:102AB000862F880F860F282F2095422F50E060E048
:102AC00070E00DC06A5A262F220F620F862F809564
:102AD000462F50E060E070E0BA01552744279A0184
:102AE000AB01382BB8018CE297E00E94CC100F5F4D
:102AF0001F4FF394BCCF00E010E080912E0790911F
:102B00002F070817190708F0FEC480915C07909101
:102B10005D07800F911F80FD09C020914E07309105
:102B20004F07409150075091510708C0209152071C
:102B3000309153074091540750915507B8018CE2EA
:102B400097E00E94CC100F5F1F4FD7CF20914E0708
:102B500030914F07409150075091510760915C07A9
:102B600070915D07CCC4CC5FDE4F19821882C450CF
:102B7000D140CE5FDE4F19821882C250D140812CE5
:102B8000912C80912E0790912F078816990608F0B6
:102B9000BAC420915C0730915D078216930649F014
:102BA00080915A0790915B07821B930B88169906B8
:102BB00049F420914E0730914F07409150075091B2
:102BC000510755C120913907A0903607009134076D
:102BD00010913507C0903307822F90E0F0913707AE
:102BE000C050DF4FF883C050D14030913807CF5FDD
:102BF000DE4F3883C150D1402A117AC0CC5FDE4FFE
:102C0000A881B981C450D1400A0F1B1FCC2009F400
:102C10004CC0D12CE12CF12CF801E80FF91F608198
:102C200070E0762F6627072E000C880B990BA70102
:102C300096010E945C20290133242224F801C0500F
:102C4000DF4FB881C050D140EB0FF11D608170E0C3
:102C5000762F6627072E000C880B990BA70196018B
:102C60000E945C20B42FA32F922F8827282A392A6C
:102C70004A2A5B2AF801CF5FDE4F2881C150D1403C
:102C8000E20FF11D608170E0762F6627072E000CA1
:102C9000880B990BA70196010E945C2072016101CB
:102CA000C22AD32AE42AF52AB8C0F801E80FF91F8E
:102CB0008081F801C050DF4F3881C050D140E30F10
:102CC000F11D2080422D50E060E070E0762F652FEE
:102CD000542F4427682BF801CF5FDE4F8881C15005
:102CE000D140E80FF11D80816A017B01C82A95C09F
:102CF000CE5FDE4FA881B981C250D1400A0F1B1FA1
:102D0000B12CCC2009F463C0D12CE12CF12CF801BA
:102D1000E80FF91F608170E0762F6627072E000C00
:102D2000880B990BA70196010E945C20522E442427
:102D300033242224F801EA0DFB1D608170E0762F18
:102D40006627072E000C880B990BA70196010E949D
:102D50005C20D90199278827282A392A4A2A5B2A00
:102D6000F801CF5FDE4FB881C150D140EB0FF11DAC
:102D7000608170E0762F6627072E000C880B990B78
:102D8000A70196010E945C20222A332A442A552A50
:102D9000F801C050DF4F2881C050D140E20FF11D33
:102DA000608170E0762F6627072E000C880B990B48
:102DB000A70196010E945C20B42FA32F922F882791
:102DC00072016101C82AD92AEA2AFB2A26C0F80121
:102DD000E80FF91F8081F801EA0DFB1D2080422DCC
:102DE00050E060E070E0BA0155274427782BF801E5
:102DF000CF5FDE4F3881C150D140E30FF11D80819C
:102E0000482BF801C050DF4F8881C050D140E80FF7
:102E1000F11D80816A017B01D82A2E2D30E0359585
:102E20002795C901330FAA0BBB0BBC0155274427BB
:102E30008D2D90E095958795092E000CAA0BBB0B64
:102E4000BA2FA92F982F8827842B952BA62BB72B29
:102E50002C2C312C910135952795A901330F660B48
:102E6000770B9A01AB01282B392B4A2B5B2BB40132
:102E70008CE297E00E94CC109FEF891A990ACE5FEE
:102E8000DE4FA881B981C250D1401496CE5FDE4F8B
:102E9000B983A883C250D140CC5FDE4FE881F9816D
:102EA000C450D1403396CC5FDE4FF983E883C450E1
:102EB000D14067CE40914E0730914F075091500757
:102EC000E0915A07F0915B0700915C0710915D0754
:102ED0007F01E01AF10A20915207D09053078091A8
:102EE0005407809FB001819F700D11245E9DC00129
:102EF0005F9D900D1124860F971FBF010E941D1C1E
:102F0000C62ED09ED001D19EB00D11243E9DC00191
:102F10003F9D900D11248A0F9B1FBF010E941D1C15
:102F2000862E912CA12CB12CBA2CA92C982C88245B
:102F3000AC28209FC001219F900D11244E9D90012F
:102F40004F9D300D1124820F931FBF010E941D1C45
:102F5000862A00E010E080912E0790912F07081735
:102F6000190750F4A5019401B8018CE297E00E9482
:102F7000CC100F5F1F4FEFCF8CE297E00E94400410
:102F8000C2C200E010E0E0912E07F0912F070E176B
:102F90001F0708F0B8C220915C0730915D07C90196
:102FA000BF010E941D1C0817190709F46CC3C90151
:102FB0000196BF010E941D1C0817190709F463C37D
:102FC000C9010296BF010E941D1C0817190709F0CC
:102FD00063C359C300E010E080912E0790912F0742
:102FE0000817190780F420914E0730914F07409140
:102FF000500750915107B8018CE297E00E94CC1025
:103000000F5F1F4FE9CF80915C0714E1189F100DEF
:1030100011241F5F60913307161709F474C22091C1
:10302000340730913507615049F0812F90E0982F97
:103030008827019770E00E941D1C02C060E070E0CC
:10304000F9014091300750913107CF01821B930B5A
:103050008417950740F44081469FC001479F900D1B
:1030600011249193EECF109333074DC200E010E08E
:1030700080912E0790912F070817190708F043C277
:1030800020914E0730914F074091500750915107C2
:10309000B8018CE297E00E94CC100F5F1F4FE8CF81
:1030A00000E010E080912E0790912F070817190774
:1030B00080F420915207309153074091540750916A
:1030C0005507B8018CE297E00E94CC100F5F1F4FAC
:1030D000E9CF80915C0790915D07079700F12091FF
:1030E0004E0730914F07409150075091510762E0D1
:1030F00070E08CE297E00E94CC1020914E07309156
:103100004F07409150075091510760912E077091E1
:103110002F07625071098CE297E00E94CC108091D9
:103120005C0790915D07059700F120914E07309163
:103130004F07409150075091510761E070E08CE2D9
:1031400097E00E94CC1020914E0730914F0740919C
:1031500050075091510760912E0770912F076150D1
:1031600071098CE297E00E94CC1080915C079091ED
:103170005D07039708F4C7C120914E0730914F07B0
:10318000409150075091510760E070E0B8C100E0F5
:1031900010E080912E0790912F070817190780F4EF
:1031A0002091560730915707409158075091590781
:1031B000B8018CE297E00E94CC100F5F1F4FE9CF5F
:1031C00020914E0730914F07409150075091510781
:1031D00062E070E08CE297E00E94CC1020914E07F4
:1031E00030914F07409150075091510760912E0741
:1031F00070912F07625071098CE297E00E94CC1009
:103200002091520730915307409154075091550730
:1032100066E070E08CE297E00E94CC1020915207AB
:1032200030915307409154075091550760912E07F4
:1032300070912F07665071098CE297E00E94CC10C4
:1032400020915207309153074091540750915507F0
:1032500067E070E08CE297E00E94CC10209152076A
:1032600030915307409154075091550760912E07B4
:1032700070912F07675071098CE297E00E94CC1083
:1032800020915207309153074091540750915507B0
:1032900068E070E08CE297E00E94CC102091520729
:1032A00030915307409154075091550760912E0774
:1032B00070912F076850710922C120914E073091FB
:1032C0004F07409150075091510760E070E08CE249
:1032D00097E00E94CC1001E010E080912E079091C1
:1032E0002F070817190708F00EC120E030E0A901E8
:1032F000B8018CE297E00E94CC100F5F1F4FEDCF1A
:1033000000E010E080912E0790912F070817190711
:1033100080F4209152073091530740915407509107
:103320005507B8018CE297E00E94CC100F5F1F4F49
:10333000E9CF20914E0730914F07409150075091AF
:10334000510763E070E08CE297E00E94CC1020917E
:103350004E0730914F07409150075091510764E05C
:1033600070E08CE297E00E94CC1020914E073091E3
:103370004F07409150075091510765E070E0BFC082
:1033800000E010E080912E0790912F070817190791
:1033900080F4209152073091530740915407509187
:1033A0005507B8018CE297E00E94CC100F5F1F4FC9
:1033B000E9CF20914E0730914F074091500750912F
:1033C00051076DE070E08CE297E00E94CC102091F4
:1033D0004E0730914F0740915007509151076CE0D4
:1033E00070E08CE297E00E94CC1020914E07309163
:1033F0004F0740915007509151076BE070E07FC03C
:1034000000E010E080912E0790912F070817190710
:1034100080F4209152073091530740915407509106
:103420005507B8018CE297E00E94CC100F5F1F4F48
:10343000E9CF20914E0730914F07409150075091AE
:10344000510761E070E08CE297E00E94CC1020917F
:103450004E0730914F07409150075091510760E05F
:1034600070E08CE297E00E94CC1020914E073091E2
:103470004F0740915007509151076FE070E03FC0F7
:1034800000E010E080912E0790912F070817190790
:1034900080F4209152073091530740915407509186
:1034A0005507B8018CE297E00E94CC100F5F1F4FC8
:1034B000E9CF20914E0730914F074091500750912E
:1034C000510767E070E08CE297E00E94CC102091F9
:1034D0004E0730914F07409150075091510768E0D7
:1034E00070E08CE297E00E94CC1020914E07309162
:1034F0004F07409150075091510769E070E08CE20E
:1035000097E00E94CC108CE297E00E9440040E9459
:10351000431180E090E0892B09F431C90E9400003A
:103520002EC98091C0049091C1048130910501F5AC
:103530008091B5049091B60489130EC064E08FE7C2
:1035400090E00E942E07A3E0B0E0B093C104A093E6
:10355000C0041092B40429C9E091B704F091B804F2
:1035600091E0980F9093B504E80FF11D00831DC9F9
:103570008230910559F50E9476106093BB047093D8
:10358000BC048093BD049093BE048091B404811167
:1035900011C0E091B204F091B304309791F04091E2
:1035A000B7045091B8046091B50461508091BF0494
:1035B000099507C062E08EE790E00E942E07109206
:1035C000B4041092C1041092C004EFC8892B09F012
:1035D000ECC80093BF048091AF03BB24B394B80E32
:1035E000B092AF038017C9F1C090BB04D090BC0467
:1035F000E090BD04F090BE040E947610C61AD70A6F
:10360000E80AF90AB0E1CB16B7E2DB06E104F104FF
:10361000F8F41F920F938B2D90E001979F938F9357
:10362000AAE7B1E0BF93AF931F92FEE1FF937F92B1
:103630006F920E948F1DC3010E94790A60E08EE79D
:1036400090E00E942E070FB6F894DEBF0FBECDBFEC
:103650008091BF048F5F8093AF03E091B904F09134
:10366000BA0487EB94E009958093B6041092B504F0
:103670008091BF048093B40481E090E09093C104F2
:103680008093C00492C820914E0730914F0740911B
:1036900050075091510708C02091520730915307AD
:1036A0004091540750915507B8018CE297E00E9471
:1036B000CC100F5F1F4F67CC809134079091350776
:1036C000009711F00E94CC1C8091320787FD03C047
:1036D00060E00C944F0F08951092BA061092B9064C
:1036E00088EE93E0A0E0B0E08093BB069093BC0628
:1036F000A093BD06B093BE062CE231E03093B8062D
:103700002093B7062FEF3FEF3093C4062093C306F4
:1037100010926F0710926E07809370079093710755
:10372000A0937207B09373078CE391E090936D07B9
:1037300080936C0780912B07A8E7B7E09FEF48EBD9
:103740005BE08C3078F48C93282F30E0F901EE0F99
:10375000FF1F2E0F3F1FF901E95FF84F528341838E
:103760008F5F01C09C93139627E0AC39B20749F7ED
:1037700080932B0710922D071092330710923A076F
:1037800010923B0710923C0710923D0781E0809316
:103790003907809336071092370792E090933807E5
:1037A00080932C0780E390E090933107809330075B
:1037B0000E94371C9093350780933407009761F07F
:1037C00020E3FC0111922A95E9F780E190E09093C3
:1037D0002F0780932E0708C01092310710923007F0
:1037E00010922F0710922E078BE080933207809162
:1037F0002D07882341F061E08BE00E944F0F60E0CD
:103800008BE00E941F0FE3E2F2E0E491F0E0EE0FA4
:10381000FF1FE65FFD4F8591949190933F07809342
:103820003E07E6EFF1E0E491E09340071092450790
:1038300010925F0710925E070895AA1BBB1B51E10F
:1038400007C0AA1FBB1FA617B70710F0A61BB70B10
:10385000881F991F5A95A9F780959095BC01CD01B5
:103860000895EE0FFF1F0590F491E02D0994CF937A
:10387000DF938230910510F482E090E0E0919E07A2
:10388000F0919F0720E030E0C0E0D0E0309711F1E8
:103890004081518148175907C0F04817590761F412
:1038A00082819381209719F09B838A832BC0909308
:1038B0009F0780939E0726C02115310519F04217F6
:1038C000530718F49A01BE01DF01EF010280F38172
:1038D000E02DDCCF2115310509F1281B390B2430EF
:1038E000310590F412968D919C9113976115710595
:1038F00021F0FB019383828304C090939F07809300
:103900009E07FD01329644C0FD01E20FF31F819333
:103910009193225031092D933C933AC020919C07FA
:1039200030919D07232B41F42091190130911A0108
:1039300030939D0720939C07209117013091180127
:103940002115310541F42DB73EB740911B0150912F
:103950001C01241B350BE0919C07F0919D07E21799
:10396000F307A0F42E1B3F0B2817390778F0AC01A2
:103970004E5F5F4F2417350748F04E0F5F1F50937F
:103980009D0740939C078193919302C0E0E0F0E093
:10399000CF01DF91CF9108950F931F93CF93DF93C2
:1039A000009709F48CC0FC013297138212820091B7
:1039B0009E0710919F070115110581F42081318127
:1039C000820F931F20919C0730919D07281739077C
:1039D00079F5F0939D07E0939C0771C0D80140E012
:1039E00050E0AE17BF0750F412962D913C911397FB
:1039F000AD012115310509F1D901F3CF9D01DA019E
:103A00003383228360817181860F971F821793070A
:103A100069F4EC0128813981260F371F2E5F3F4F53
:103A2000318320838A819B8193838283452B29F470
:103A3000F0939F07E0939E0742C01396FC93EE938A
:103A40001297ED01499159919E01240F351FE217FC
:103A5000F30771F480819181840F951F029611966E
:103A60009C938E938281938113969C938E9312974D
:103A7000E0E0F0E0D80112968D919C9113970097A9
:103A800019F0F8018C01F6CF8D919C9198012E5F71
:103A90003F4F820F931F20919C0730919D0728175D
:103AA000390769F4309729F410929F0710929E0706
:103AB00002C01382128210939D0700939C07DF912E
:103AC000CF911F910F91089581E090E0F8940C94AC
:103AD000B520FB01DC0102C001900D924150504025
:103AE000D8F70895FB01DC014150504030F08D9132
:103AF0000190801919F40020B9F7881B990B0895DB
:103B0000FB01DC014150504048F001900D92002033
:103B1000C9F701C01D9241505040E0F70895AEE052
:103B2000B0E0E5E9FDE10C948C200D891E898F89B8
:103B3000988D26E02C831A83098397FF02C080E0CA
:103B400090E801979E838D83AE01455E5F4F698D3E
:103B50007A8DCE0101960E94BF1D4D815E8157FD79
:103B60000AC02F813885421753070CF49A01F801D7
:103B7000E20FF31F10822E96E4E00C94A820ACE034
:103B8000B0E0E5ECFDE10C947E207C016B018A0144
:103B9000FC0117821682838181FFBDC1CE0101968F
:103BA0004C01F7019381F60193FD859193FF81917B
:103BB0006F01882309F4ABC1853239F493FD8591F7
:103BC00093FF81916F01853229F4B70190E00E9443
:103BD000A71FE7CF512C312C20E02032A0F48B32EC
:103BE00069F030F4803259F0833269F420612CC0DE
:103BF0008D3239F0803339F4216026C02260246090
:103C000023C0286021C027FD27C030ED380F3A308F
:103C100078F426FF06C0FAE05F9E300D1124532E83
:103C200013C08AE0389E300D1124332E20620CC060
:103C30008E3221F426FD6BC1206406C08C3611F44F
:103C4000206802C0883641F4F60193FD859193FF08
:103C500081916F018111C1CF982F9F7D9554933031
:103C600028F40C5F1F4FFFE3F9830DC0833631F05A
:103C7000833771F0833509F05BC022C0F801808181
:103C800089830E5F1F4F44244394512C540115C067
:103C90003801F2E06F0E711CF801A080B18026FFA0
:103CA00003C0652D70E002C06FEF7FEFC5012C8768
:103CB0000E949C1F2C0183012C852F77222E17C078
:103CC0003801F2E06F0E711CF801A080B18026FF70
:103CD00003C0652D70E002C06FEF7FEFC5012C8738
:103CE0000E94911F2C012C852068222E830123FC29
:103CF0001BC0832D90E048165906B0F4B70180E24E
:103D000090E00E94A71F3A94F4CFF50127FC85911B
:103D100027FE81915F01B70190E00E94A71F31103B
:103D20003A94F1E04F1A51084114510471F7E5C07B
:103D3000843611F0893639F5F80127FF07C0608114
:103D40007181828193810C5F1F4F08C060817181F6
:103D5000072E000C880B990B0E5F1F4F2F76722ECB
:103D600097FF09C090958095709561957F4F8F4F13
:103D70009F4F2068722E2AE030E0A4010E94DF1FCE
:103D8000A82EA81844C0853729F42F7EB22E2AE029
:103D900030E025C0F22FF97FBF2E8F36C1F018F426
:103DA000883579F0B4C0803719F0883721F0AFC07A
:103DB0002F2F2061B22EB4FE0DC08B2D8460B82E43
:103DC00009C024FF0AC09F2F9660B92E06C028E0C4
:103DD00030E005C020E130E002C020E132E0F8012F
:103DE000B7FE07C060817181828193810C5F1F4F94
:103DF00006C06081718180E090E00E5F1F4FA401DA
:103E00000E94DF1FA82EA818FB2DFF777F2E76FEBD
:103E10000BC0372D3E7FA51450F474FE0AC072FC0F
:103E200008C0372D3E7E05C0BA2C372D03C0BA2CF2
:103E300001C0B52C34FF0DC0FE01EA0DF11D8081DB
:103E4000803311F4397E09C032FF06C0B394B394B5
:103E500004C0832F867809F0B39433FD13C030FF7C
:103E600006C05A2CB31418F4530C5B18B32CB314BB
:103E700068F4B70180E290E03C870E94A71FB394EA
:103E80003C85F5CFB31410F43B1801C0312C34FF3E
:103E900012C0B70180E390E03C870E94A71F3C85D9
:103EA00032FF17C031FD03C088E790E002C088E50B
:103EB00090E0B7010CC0832F867859F031FF02C023
:103EC0008BE201C080E237FD8DE2B70190E00E94F5
:103ED000A71FA51438F4B70180E390E00E94A71F44
:103EE0005A94F7CFAA94F401EA0DF11D8081B7012D
:103EF00090E00E94A71FA110F5CF332009F451CE06
:103F0000B70180E290E00E94A71F3A94F6CFF70134
:103F10008681978102C08FEF9FEF2C96E2E10C948F
:103F20009A20FC010590615070400110D8F78095EF
:103F300090958E0F9F1F0895FC0161507040019075
:103F40000110D8F7809590958E0F9F1F08950F93BD
:103F50001F93CF93DF93FB01238121FD03C08FEFDC
:103F60009FEF28C022FF16C04681578124813581EA
:103F70004217530744F4A081B1819D012F5F3F4F49
:103F8000318320838C93268137812F5F3F4F378386
:103F9000268310C0EB01092F182F0084F185E02D36
:103FA0000995892BE1F68E819F8101969F838E83EF
:103FB000812F902FDF91CF911F910F910895FA01DA
:103FC000AA27283051F1203181F1E8946F936E7F58
:103FD0006E5F7F4F8F4F9F4FAF4FB1E03ED0B4E049
:103FE0003CD0670F781F891F9A1FA11D680F791F8A
:103FF0008A1F911DA11D6A0F711D811D911DA11D9B
:1040000020D009F468943F912AE0269F11243019AA
:10401000305D3193DEF6CF010895462F4770405D45
:104020004193B3E00FD0C9F7F6CF462F4F70405DF4
:104030004A3318F0495D31FD4052419302D0A9F74F
:10404000EACFB4E0A6959795879577956795BA9549
:10405000C9F700976105710508959B01AC010A2E0F
:1040600006945795479537952795BA95C9F7620FE6
:10407000731F841F951FA01D0895052E97FB1EF426
:1040800000940E94542057FD07D00E945C2007FC3A
:1040900003D04EF40C9454205095409530952195C2
:1040A0003F4F4F4F5F4F0895909580957095619564
:1040B0007F4F8F4F9F4F0895A1E21A2EAA1BBB1B63
:1040C000FD010DC0AA1FBB1FEE1FFF1FA217B307E4
:1040D000E407F50720F0A21BB30BE40BF50B661FFA
:1040E000771F881F991F1A9469F7609570958095BE
:1040F00090959B01AC01BD01CF0108952F923F9295
:104100004F925F926F927F928F929F92AF92BF92E7
:10411000CF92DF92EF92FF920F931F93CF93DF9393
:10412000CDB7DEB7CA1BDB0B0FB6F894DEBF0FBEF0
:10413000CDBF09942A88398848885F846E847D843D
:104140008C849B84AA84B984C884DF80EE80FD803F
:104150000C811B81AA81B981CE0FD11D0FB6F894B5
:10416000DEBF0FBECDBFED01089511E0CDE1D1E07E
:1041700004C0FE010E94311C2196CE31D107C9F73F
:04418000F894FFCFE1
:104184009201FFFFA086010005FFFFFFFFFFFF0074
:10419400E10000000000000000A007800001000012
:1041A4000000C18081000000000000007D0BEA0FC8
:1041B400930B070CE30BAF0B00000000F203DE03CC
:1041C400D703D403D103D00361726372656163744E
:1041D4006F72322D323031362E30332E31342E3050
:1041E400310061726475310068617274310061720A
:1041F400637231007465737431004578706563745B
:104204006564202578207265636569766564202578
:1042140078007265666C656374612D323031362EB8
:0A42240030382E30392E3031000002
:00000001FF
